{
  "contractName": "ERC777PresetFixedSupply",
  "abi": [
    {
      "inputs": [
        {
          "internalType": "string",
          "name": "name",
          "type": "string"
        },
        {
          "internalType": "string",
          "name": "symbol",
          "type": "string"
        },
        {
          "internalType": "address[]",
          "name": "defaultOperators",
          "type": "address[]"
        },
        {
          "internalType": "uint256",
          "name": "initialSupply",
          "type": "uint256"
        },
        {
          "internalType": "address",
          "name": "owner",
          "type": "address"
        }
      ],
      "stateMutability": "nonpayable",
      "type": "constructor"
    },
    {
      "anonymous": false,
      "inputs": [
        {
          "indexed": true,
          "internalType": "address",
          "name": "owner",
          "type": "address"
        },
        {
          "indexed": true,
          "internalType": "address",
          "name": "spender",
          "type": "address"
        },
        {
          "indexed": false,
          "internalType": "uint256",
          "name": "value",
          "type": "uint256"
        }
      ],
      "name": "Approval",
      "type": "event"
    },
    {
      "anonymous": false,
      "inputs": [
        {
          "indexed": true,
          "internalType": "address",
          "name": "operator",
          "type": "address"
        },
        {
          "indexed": true,
          "internalType": "address",
          "name": "tokenHolder",
          "type": "address"
        }
      ],
      "name": "AuthorizedOperator",
      "type": "event"
    },
    {
      "anonymous": false,
      "inputs": [
        {
          "indexed": true,
          "internalType": "address",
          "name": "operator",
          "type": "address"
        },
        {
          "indexed": true,
          "internalType": "address",
          "name": "from",
          "type": "address"
        },
        {
          "indexed": false,
          "internalType": "uint256",
          "name": "amount",
          "type": "uint256"
        },
        {
          "indexed": false,
          "internalType": "bytes",
          "name": "data",
          "type": "bytes"
        },
        {
          "indexed": false,
          "internalType": "bytes",
          "name": "operatorData",
          "type": "bytes"
        }
      ],
      "name": "Burned",
      "type": "event"
    },
    {
      "anonymous": false,
      "inputs": [
        {
          "indexed": true,
          "internalType": "address",
          "name": "operator",
          "type": "address"
        },
        {
          "indexed": true,
          "internalType": "address",
          "name": "to",
          "type": "address"
        },
        {
          "indexed": false,
          "internalType": "uint256",
          "name": "amount",
          "type": "uint256"
        },
        {
          "indexed": false,
          "internalType": "bytes",
          "name": "data",
          "type": "bytes"
        },
        {
          "indexed": false,
          "internalType": "bytes",
          "name": "operatorData",
          "type": "bytes"
        }
      ],
      "name": "Minted",
      "type": "event"
    },
    {
      "anonymous": false,
      "inputs": [
        {
          "indexed": true,
          "internalType": "address",
          "name": "operator",
          "type": "address"
        },
        {
          "indexed": true,
          "internalType": "address",
          "name": "tokenHolder",
          "type": "address"
        }
      ],
      "name": "RevokedOperator",
      "type": "event"
    },
    {
      "anonymous": false,
      "inputs": [
        {
          "indexed": true,
          "internalType": "address",
          "name": "operator",
          "type": "address"
        },
        {
          "indexed": true,
          "internalType": "address",
          "name": "from",
          "type": "address"
        },
        {
          "indexed": true,
          "internalType": "address",
          "name": "to",
          "type": "address"
        },
        {
          "indexed": false,
          "internalType": "uint256",
          "name": "amount",
          "type": "uint256"
        },
        {
          "indexed": false,
          "internalType": "bytes",
          "name": "data",
          "type": "bytes"
        },
        {
          "indexed": false,
          "internalType": "bytes",
          "name": "operatorData",
          "type": "bytes"
        }
      ],
      "name": "Sent",
      "type": "event"
    },
    {
      "anonymous": false,
      "inputs": [
        {
          "indexed": true,
          "internalType": "address",
          "name": "from",
          "type": "address"
        },
        {
          "indexed": true,
          "internalType": "address",
          "name": "to",
          "type": "address"
        },
        {
          "indexed": false,
          "internalType": "uint256",
          "name": "value",
          "type": "uint256"
        }
      ],
      "name": "Transfer",
      "type": "event"
    },
    {
      "inputs": [
        {
          "internalType": "address",
          "name": "holder",
          "type": "address"
        },
        {
          "internalType": "address",
          "name": "spender",
          "type": "address"
        }
      ],
      "name": "allowance",
      "outputs": [
        {
          "internalType": "uint256",
          "name": "",
          "type": "uint256"
        }
      ],
      "stateMutability": "view",
      "type": "function"
    },
    {
      "inputs": [
        {
          "internalType": "address",
          "name": "spender",
          "type": "address"
        },
        {
          "internalType": "uint256",
          "name": "value",
          "type": "uint256"
        }
      ],
      "name": "approve",
      "outputs": [
        {
          "internalType": "bool",
          "name": "",
          "type": "bool"
        }
      ],
      "stateMutability": "nonpayable",
      "type": "function"
    },
    {
      "inputs": [
        {
          "internalType": "address",
          "name": "operator",
          "type": "address"
        }
      ],
      "name": "authorizeOperator",
      "outputs": [],
      "stateMutability": "nonpayable",
      "type": "function"
    },
    {
      "inputs": [
        {
          "internalType": "address",
          "name": "tokenHolder",
          "type": "address"
        }
      ],
      "name": "balanceOf",
      "outputs": [
        {
          "internalType": "uint256",
          "name": "",
          "type": "uint256"
        }
      ],
      "stateMutability": "view",
      "type": "function"
    },
    {
      "inputs": [
        {
          "internalType": "uint256",
          "name": "amount",
          "type": "uint256"
        },
        {
          "internalType": "bytes",
          "name": "data",
          "type": "bytes"
        }
      ],
      "name": "burn",
      "outputs": [],
      "stateMutability": "nonpayable",
      "type": "function"
    },
    {
      "inputs": [],
      "name": "decimals",
      "outputs": [
        {
          "internalType": "uint8",
          "name": "",
          "type": "uint8"
        }
      ],
      "stateMutability": "pure",
      "type": "function"
    },
    {
      "inputs": [],
      "name": "defaultOperators",
      "outputs": [
        {
          "internalType": "address[]",
          "name": "",
          "type": "address[]"
        }
      ],
      "stateMutability": "view",
      "type": "function"
    },
    {
      "inputs": [],
      "name": "granularity",
      "outputs": [
        {
          "internalType": "uint256",
          "name": "",
          "type": "uint256"
        }
      ],
      "stateMutability": "view",
      "type": "function"
    },
    {
      "inputs": [
        {
          "internalType": "address",
          "name": "operator",
          "type": "address"
        },
        {
          "internalType": "address",
          "name": "tokenHolder",
          "type": "address"
        }
      ],
      "name": "isOperatorFor",
      "outputs": [
        {
          "internalType": "bool",
          "name": "",
          "type": "bool"
        }
      ],
      "stateMutability": "view",
      "type": "function"
    },
    {
      "inputs": [],
      "name": "name",
      "outputs": [
        {
          "internalType": "string",
          "name": "",
          "type": "string"
        }
      ],
      "stateMutability": "view",
      "type": "function"
    },
    {
      "inputs": [
        {
          "internalType": "address",
          "name": "account",
          "type": "address"
        },
        {
          "internalType": "uint256",
          "name": "amount",
          "type": "uint256"
        },
        {
          "internalType": "bytes",
          "name": "data",
          "type": "bytes"
        },
        {
          "internalType": "bytes",
          "name": "operatorData",
          "type": "bytes"
        }
      ],
      "name": "operatorBurn",
      "outputs": [],
      "stateMutability": "nonpayable",
      "type": "function"
    },
    {
      "inputs": [
        {
          "internalType": "address",
          "name": "sender",
          "type": "address"
        },
        {
          "internalType": "address",
          "name": "recipient",
          "type": "address"
        },
        {
          "internalType": "uint256",
          "name": "amount",
          "type": "uint256"
        },
        {
          "internalType": "bytes",
          "name": "data",
          "type": "bytes"
        },
        {
          "internalType": "bytes",
          "name": "operatorData",
          "type": "bytes"
        }
      ],
      "name": "operatorSend",
      "outputs": [],
      "stateMutability": "nonpayable",
      "type": "function"
    },
    {
      "inputs": [
        {
          "internalType": "address",
          "name": "operator",
          "type": "address"
        }
      ],
      "name": "revokeOperator",
      "outputs": [],
      "stateMutability": "nonpayable",
      "type": "function"
    },
    {
      "inputs": [
        {
          "internalType": "address",
          "name": "recipient",
          "type": "address"
        },
        {
          "internalType": "uint256",
          "name": "amount",
          "type": "uint256"
        },
        {
          "internalType": "bytes",
          "name": "data",
          "type": "bytes"
        }
      ],
      "name": "send",
      "outputs": [],
      "stateMutability": "nonpayable",
      "type": "function"
    },
    {
      "inputs": [],
      "name": "symbol",
      "outputs": [
        {
          "internalType": "string",
          "name": "",
          "type": "string"
        }
      ],
      "stateMutability": "view",
      "type": "function"
    },
    {
      "inputs": [],
      "name": "totalSupply",
      "outputs": [
        {
          "internalType": "uint256",
          "name": "",
          "type": "uint256"
        }
      ],
      "stateMutability": "view",
      "type": "function"
    },
    {
      "inputs": [
        {
          "internalType": "address",
          "name": "recipient",
          "type": "address"
        },
        {
          "internalType": "uint256",
          "name": "amount",
          "type": "uint256"
        }
      ],
      "name": "transfer",
      "outputs": [
        {
          "internalType": "bool",
          "name": "",
          "type": "bool"
        }
      ],
      "stateMutability": "nonpayable",
      "type": "function"
    },
    {
      "inputs": [
        {
          "internalType": "address",
          "name": "holder",
          "type": "address"
        },
        {
          "internalType": "address",
          "name": "recipient",
          "type": "address"
        },
        {
          "internalType": "uint256",
          "name": "amount",
          "type": "uint256"
        }
      ],
      "name": "transferFrom",
      "outputs": [
        {
          "internalType": "bool",
          "name": "",
          "type": "bool"
        }
      ],
      "stateMutability": "nonpayable",
      "type": "function"
    }
  ],
  "bytecode": "0x60806040523480156200001157600080fd5b5060405162003d6b38038062003d6b833981810160405281019062000037919062000a90565b84848482600290816200004b919062000db6565b5081600390816200005d919062000db6565b50806004908051906020019062000076929190620006d4565b5060005b81518110156200010f57600160056000848481518110620000a0576200009f62000e9d565b5b602002602001015173ffffffffffffffffffffffffffffffffffffffff1673ffffffffffffffffffffffffffffffffffffffff16815260200190815260200160002060006101000a81548160ff0219169083151502179055508080620001069062000efb565b9150506200007a565b50731820a4b7618bde71dce8cdc73aab6c95905fad2473ffffffffffffffffffffffffffffffffffffffff166329965a1d307fac7fbab5f54a3ca8194167523c6753bfeb96a445279294b6125b68cce2177054306040518463ffffffff1660e01b8152600401620001839392919062000f74565b600060405180830381600087803b1580156200019e57600080fd5b505af1158015620001b3573d6000803e3d6000fd5b50505050731820a4b7618bde71dce8cdc73aab6c95905fad2473ffffffffffffffffffffffffffffffffffffffff166329965a1d307faea199e31a596269b42cdafd93407f14436db6e4cad65417994c2eb37381e05a306040518463ffffffff1660e01b81526004016200022a9392919062000f74565b600060405180830381600087803b1580156200024557600080fd5b505af11580156200025a573d6000803e3d6000fd5b5050505050505062000293818360405180602001604052806000815250604051806020016040528060008152506200029e60201b60201c565b5050505050620012dd565b620002b4848484846001620002ba60201b60201c565b50505050565b600073ffffffffffffffffffffffffffffffffffffffff168573ffffffffffffffffffffffffffffffffffffffff16036200032c576040517f08c379a0000000000000000000000000000000000000000000000000000000008152600401620003239062001012565b60405180910390fd5b60006200033e620004ba60201b60201c565b9050620003558160008888620004c260201b60201c565b846001600082825462000369919062001034565b92505081905550846000808873ffffffffffffffffffffffffffffffffffffffff1673ffffffffffffffffffffffffffffffffffffffff1681526020019081526020016000206000828254620003c0919062001034565b92505081905550620003df8160008888888888620004c860201b60201c565b8573ffffffffffffffffffffffffffffffffffffffff168173ffffffffffffffffffffffffffffffffffffffff167f2fe5be0146f74c5bce36c0b80911af6c7d86ff27e89d5cfa61fc681327954e5d8787876040516200044293929190620010dd565b60405180910390a38573ffffffffffffffffffffffffffffffffffffffff16600073ffffffffffffffffffffffffffffffffffffffff167fddf252ad1be2c89b69c2b068fc378daa952ba7f163c4a11628f55a4df523b3ef87604051620004aa919062001128565b60405180910390a3505050505050565b600033905090565b50505050565b6000731820a4b7618bde71dce8cdc73aab6c95905fad2473ffffffffffffffffffffffffffffffffffffffff1663aabbb8ca877fb281fc8c12954d22544db45de3159a39272895b169a852b314f9cc762e44c53b6040518363ffffffff1660e01b81526004016200053b92919062001145565b602060405180830381865afa15801562000559573d6000803e3d6000fd5b505050506040513d601f19601f820116820180604052508101906200057f919062001172565b9050600073ffffffffffffffffffffffffffffffffffffffff168173ffffffffffffffffffffffffffffffffffffffff161462000634578073ffffffffffffffffffffffffffffffffffffffff166223de298989898989896040518763ffffffff1660e01b8152600401620005fa96959493929190620011a4565b600060405180830381600087803b1580156200061557600080fd5b505af11580156200062a573d6000803e3d6000fd5b50505050620006a7565b8115620006a657620006628673ffffffffffffffffffffffffffffffffffffffff16620006b160201b60201c565b15620006a5576040517f08c379a00000000000000000000000000000000000000000000000000000000081526004016200069c90620012bb565b60405180910390fd5b5b5b5050505050505050565b6000808273ffffffffffffffffffffffffffffffffffffffff163b119050919050565b82805482825590600052602060002090810192821562000750579160200282015b828111156200074f5782518260006101000a81548173ffffffffffffffffffffffffffffffffffffffff021916908373ffffffffffffffffffffffffffffffffffffffff16021790555091602001919060010190620006f5565b5b5090506200075f919062000763565b5090565b5b808211156200077e57600081600090555060010162000764565b5090565b6000604051905090565b600080fd5b600080fd5b600080fd5b600080fd5b6000601f19601f8301169050919050565b7f4e487b7100000000000000000000000000000000000000000000000000000000600052604160045260246000fd5b620007eb82620007a0565b810181811067ffffffffffffffff821117156200080d576200080c620007b1565b5b80604052505050565b60006200082262000782565b9050620008308282620007e0565b919050565b600067ffffffffffffffff821115620008535762000852620007b1565b5b6200085e82620007a0565b9050602081019050919050565b60005b838110156200088b5780820151818401526020810190506200086e565b60008484015250505050565b6000620008ae620008a88462000835565b62000816565b905082815260208101848484011115620008cd57620008cc6200079b565b5b620008da8482856200086b565b509392505050565b600082601f830112620008fa57620008f962000796565b5b81516200090c84826020860162000897565b91505092915050565b600067ffffffffffffffff821115620009335762000932620007b1565b5b602082029050602081019050919050565b600080fd5b600073ffffffffffffffffffffffffffffffffffffffff82169050919050565b6000620009768262000949565b9050919050565b620009888162000969565b81146200099457600080fd5b50565b600081519050620009a8816200097d565b92915050565b6000620009c5620009bf8462000915565b62000816565b90508083825260208201905060208402830185811115620009eb57620009ea62000944565b5b835b8181101562000a18578062000a03888262000997565b845260208401935050602081019050620009ed565b5050509392505050565b600082601f83011262000a3a5762000a3962000796565b5b815162000a4c848260208601620009ae565b91505092915050565b6000819050919050565b62000a6a8162000a55565b811462000a7657600080fd5b50565b60008151905062000a8a8162000a5f565b92915050565b600080600080600060a0868803121562000aaf5762000aae6200078c565b5b600086015167ffffffffffffffff81111562000ad05762000acf62000791565b5b62000ade88828901620008e2565b955050602086015167ffffffffffffffff81111562000b025762000b0162000791565b5b62000b1088828901620008e2565b945050604086015167ffffffffffffffff81111562000b345762000b3362000791565b5b62000b428882890162000a22565b935050606062000b558882890162000a79565b925050608062000b688882890162000997565b9150509295509295909350565b600081519050919050565b7f4e487b7100000000000000000000000000000000000000000000000000000000600052602260045260246000fd5b6000600282049050600182168062000bc857607f821691505b60208210810362000bde5762000bdd62000b80565b5b50919050565b60008190508160005260206000209050919050565b60006020601f8301049050919050565b600082821b905092915050565b60006008830262000c487fffffffffffffffffffffffffffffffffffffffffffffffffffffffffffffffff8262000c09565b62000c54868362000c09565b95508019841693508086168417925050509392505050565b6000819050919050565b600062000c9762000c9162000c8b8462000a55565b62000c6c565b62000a55565b9050919050565b6000819050919050565b62000cb38362000c76565b62000ccb62000cc28262000c9e565b84845462000c16565b825550505050565b600090565b62000ce262000cd3565b62000cef81848462000ca8565b505050565b5b8181101562000d175762000d0b60008262000cd8565b60018101905062000cf5565b5050565b601f82111562000d665762000d308162000be4565b62000d3b8462000bf9565b8101602085101562000d4b578190505b62000d6362000d5a8562000bf9565b83018262000cf4565b50505b505050565b600082821c905092915050565b600062000d8b6000198460080262000d6b565b1980831691505092915050565b600062000da6838362000d78565b9150826002028217905092915050565b62000dc18262000b75565b67ffffffffffffffff81111562000ddd5762000ddc620007b1565b5b62000de9825462000baf565b62000df682828562000d1b565b600060209050601f83116001811462000e2e576000841562000e19578287015190505b62000e25858262000d98565b86555062000e95565b601f19841662000e3e8662000be4565b60005b8281101562000e685784890151825560018201915060208501945060208101905062000e41565b8683101562000e88578489015162000e84601f89168262000d78565b8355505b6001600288020188555050505b505050505050565b7f4e487b7100000000000000000000000000000000000000000000000000000000600052603260045260246000fd5b7f4e487b7100000000000000000000000000000000000000000000000000000000600052601160045260246000fd5b600062000f088262000a55565b91507fffffffffffffffffffffffffffffffffffffffffffffffffffffffffffffffff820362000f3d5762000f3c62000ecc565b5b600182019050919050565b62000f538162000969565b82525050565b6000819050919050565b62000f6e8162000f59565b82525050565b600060608201905062000f8b600083018662000f48565b62000f9a602083018562000f63565b62000fa9604083018462000f48565b949350505050565b600082825260208201905092915050565b7f4552433737373a206d696e7420746f20746865207a65726f2061646472657373600082015250565b600062000ffa60208362000fb1565b9150620010078262000fc2565b602082019050919050565b600060208201905081810360008301526200102d8162000feb565b9050919050565b6000620010418262000a55565b91506200104e8362000a55565b925082820190508082111562001069576200106862000ecc565b5b92915050565b6200107a8162000a55565b82525050565b600081519050919050565b600082825260208201905092915050565b6000620010a98262001080565b620010b581856200108b565b9350620010c78185602086016200086b565b620010d281620007a0565b840191505092915050565b6000606082019050620010f460008301866200106f565b81810360208301526200110881856200109c565b905081810360408301526200111e81846200109c565b9050949350505050565b60006020820190506200113f60008301846200106f565b92915050565b60006040820190506200115c600083018562000f48565b6200116b602083018462000f63565b9392505050565b6000602082840312156200118b576200118a6200078c565b5b60006200119b8482850162000997565b91505092915050565b600060c082019050620011bb600083018962000f48565b620011ca602083018862000f48565b620011d9604083018762000f48565b620011e860608301866200106f565b8181036080830152620011fc81856200109c565b905081810360a08301526200121281846200109c565b9050979650505050505050565b7f4552433737373a20746f6b656e20726563697069656e7420636f6e747261637460008201527f20686173206e6f20696d706c656d656e74657220666f7220455243373737546f60208201527f6b656e73526563697069656e7400000000000000000000000000000000000000604082015250565b6000620012a3604d8362000fb1565b9150620012b0826200121f565b606082019050919050565b60006020820190508181036000830152620012d68162001294565b9050919050565b612a7e80620012ed6000396000f3fe608060405234801561001057600080fd5b50600436106101165760003560e01c8063959b8c3f116100a2578063d95b637111610071578063d95b6371146102e3578063dd62ed3e14610313578063fad8b32a14610343578063fc673c4f1461035f578063fe9d93031461037b57610116565b8063959b8c3f1461025d57806395d89b41146102795780639bd9bbc614610297578063a9059cbb146102b357610116565b806323b872dd116100e957806323b872dd146101a5578063313ce567146101d5578063556f0dc7146101f357806362ad1b831461021157806370a082311461022d57610116565b806306e485381461011b57806306fdde0314610139578063095ea7b31461015757806318160ddd14610187575b600080fd5b610123610397565b6040516101309190611aaa565b60405180910390f35b610141610425565b60405161014e9190611b5c565b60405180910390f35b610171600480360381019061016c9190611bf4565b6104b7565b60405161017e9190611c4f565b60405180910390f35b61018f6104da565b60405161019c9190611c79565b60405180910390f35b6101bf60048036038101906101ba9190611c94565b6104e4565b6040516101cc9190611c4f565b60405180910390f35b6101dd610535565b6040516101ea9190611d03565b60405180910390f35b6101fb61053e565b6040516102089190611c79565b60405180910390f35b61022b60048036038101906102269190611e53565b610547565b005b61024760048036038101906102429190611f06565b6105ad565b6040516102549190611c79565b60405180910390f35b61027760048036038101906102729190611f06565b6105f5565b005b610281610855565b60405161028e9190611b5c565b60405180910390f35b6102b160048036038101906102ac9190611f33565b6108e7565b005b6102cd60048036038101906102c89190611bf4565b610911565b6040516102da9190611c4f565b60405180910390f35b6102fd60048036038101906102f89190611fa2565b610951565b60405161030a9190611c4f565b60405180910390f35b61032d60048036038101906103289190611fa2565b610b02565b60405161033a9190611c79565b60405180910390f35b61035d60048036038101906103589190611f06565b610b89565b005b61037960048036038101906103749190611fe2565b610de9565b005b61039560048036038101906103909190612081565b610e4b565b005b6060600480548060200260200160405190810160405280929190818152602001828054801561041b57602002820191906000526020600020905b8160009054906101000a900473ffffffffffffffffffffffffffffffffffffffff1673ffffffffffffffffffffffffffffffffffffffff16815260200190600101908083116103d1575b5050505050905090565b6060600280546104349061210c565b80601f01602080910402602001604051908101604052809291908181526020018280546104609061210c565b80156104ad5780601f10610482576101008083540402835291602001916104ad565b820191906000526020600020905b81548152906001019060200180831161049057829003601f168201915b5050505050905090565b6000806104c2610e71565b90506104cf818585610e79565b600191505092915050565b6000600154905090565b6000806104ef610e71565b90506104fc858285611042565b610529858585604051806020016040528060008152506040518060200160405280600081525060006110ce565b60019150509392505050565b60006012905090565b60006001905090565b610558610552610e71565b86610951565b610597576040517f08c379a000000000000000000000000000000000000000000000000000000000815260040161058e906121af565b60405180910390fd5b6105a6858585858560016110ce565b5050505050565b60008060008373ffffffffffffffffffffffffffffffffffffffff1673ffffffffffffffffffffffffffffffffffffffff168152602001908152602001600020549050919050565b8073ffffffffffffffffffffffffffffffffffffffff16610614610e71565b73ffffffffffffffffffffffffffffffffffffffff160361066a576040517f08c379a000000000000000000000000000000000000000000000000000000000815260040161066190612241565b60405180910390fd5b600560008273ffffffffffffffffffffffffffffffffffffffff1673ffffffffffffffffffffffffffffffffffffffff16815260200190815260200160002060009054906101000a900460ff161561075457600760006106c8610e71565b73ffffffffffffffffffffffffffffffffffffffff1673ffffffffffffffffffffffffffffffffffffffff16815260200190815260200160002060008273ffffffffffffffffffffffffffffffffffffffff1673ffffffffffffffffffffffffffffffffffffffff16815260200190815260200160002060006101000a81549060ff02191690556107f1565b600160066000610762610e71565b73ffffffffffffffffffffffffffffffffffffffff1673ffffffffffffffffffffffffffffffffffffffff16815260200190815260200160002060008373ffffffffffffffffffffffffffffffffffffffff1673ffffffffffffffffffffffffffffffffffffffff16815260200190815260200160002060006101000a81548160ff0219169083151502179055505b6107f9610e71565b73ffffffffffffffffffffffffffffffffffffffff168173ffffffffffffffffffffffffffffffffffffffff167ff4caeb2d6ca8932a215a353d0703c326ec2d81fc68170f320eb2ab49e9df61f960405160405180910390a350565b6060600380546108649061210c565b80601f01602080910402602001604051908101604052809291908181526020018280546108909061210c565b80156108dd5780601f106108b2576101008083540402835291602001916108dd565b820191906000526020600020905b8154815290600101906020018083116108c057829003601f168201915b5050505050905090565b61090c6108f2610e71565b8484846040518060200160405280600081525060016110ce565b505050565b600061094761091e610e71565b8484604051806020016040528060008152506040518060200160405280600081525060006110ce565b6001905092915050565b60008173ffffffffffffffffffffffffffffffffffffffff168373ffffffffffffffffffffffffffffffffffffffff161480610a695750600560008473ffffffffffffffffffffffffffffffffffffffff1673ffffffffffffffffffffffffffffffffffffffff16815260200190815260200160002060009054906101000a900460ff168015610a685750600760008373ffffffffffffffffffffffffffffffffffffffff1673ffffffffffffffffffffffffffffffffffffffff16815260200190815260200160002060008473ffffffffffffffffffffffffffffffffffffffff1673ffffffffffffffffffffffffffffffffffffffff16815260200190815260200160002060009054906101000a900460ff16155b5b80610afa5750600660008373ffffffffffffffffffffffffffffffffffffffff1673ffffffffffffffffffffffffffffffffffffffff16815260200190815260200160002060008473ffffffffffffffffffffffffffffffffffffffff1673ffffffffffffffffffffffffffffffffffffffff16815260200190815260200160002060009054906101000a900460ff165b905092915050565b6000600860008473ffffffffffffffffffffffffffffffffffffffff1673ffffffffffffffffffffffffffffffffffffffff16815260200190815260200160002060008373ffffffffffffffffffffffffffffffffffffffff1673ffffffffffffffffffffffffffffffffffffffff16815260200190815260200160002054905092915050565b610b91610e71565b73ffffffffffffffffffffffffffffffffffffffff168173ffffffffffffffffffffffffffffffffffffffff1603610bfe576040517f08c379a0000000000000000000000000000000000000000000000000000000008152600401610bf5906122d3565b60405180910390fd5b600560008273ffffffffffffffffffffffffffffffffffffffff1673ffffffffffffffffffffffffffffffffffffffff16815260200190815260200160002060009054906101000a900460ff1615610cf157600160076000610c5e610e71565b73ffffffffffffffffffffffffffffffffffffffff1673ffffffffffffffffffffffffffffffffffffffff16815260200190815260200160002060008373ffffffffffffffffffffffffffffffffffffffff1673ffffffffffffffffffffffffffffffffffffffff16815260200190815260200160002060006101000a81548160ff021916908315150217905550610d85565b60066000610cfd610e71565b73ffffffffffffffffffffffffffffffffffffffff1673ffffffffffffffffffffffffffffffffffffffff16815260200190815260200160002060008273ffffffffffffffffffffffffffffffffffffffff1673ffffffffffffffffffffffffffffffffffffffff16815260200190815260200160002060006101000a81549060ff02191690555b610d8d610e71565b73ffffffffffffffffffffffffffffffffffffffff168173ffffffffffffffffffffffffffffffffffffffff167f50546e66e5f44d728365dc3908c63bc5cfeeab470722c1677e3073a6ac294aa160405160405180910390a350565b610dfa610df4610e71565b85610951565b610e39576040517f08c379a0000000000000000000000000000000000000000000000000000000008152600401610e30906121af565b60405180910390fd5b610e45848484846111ec565b50505050565b610e6d610e56610e71565b8383604051806020016040528060008152506111ec565b5050565b600033905090565b600073ffffffffffffffffffffffffffffffffffffffff168373ffffffffffffffffffffffffffffffffffffffff1603610ee8576040517f08c379a0000000000000000000000000000000000000000000000000000000008152600401610edf90612365565b60405180910390fd5b600073ffffffffffffffffffffffffffffffffffffffff168273ffffffffffffffffffffffffffffffffffffffff1603610f57576040517f08c379a0000000000000000000000000000000000000000000000000000000008152600401610f4e906123f7565b60405180910390fd5b80600860008573ffffffffffffffffffffffffffffffffffffffff1673ffffffffffffffffffffffffffffffffffffffff16815260200190815260200160002060008473ffffffffffffffffffffffffffffffffffffffff1673ffffffffffffffffffffffffffffffffffffffff168152602001908152602001600020819055508173ffffffffffffffffffffffffffffffffffffffff168373ffffffffffffffffffffffffffffffffffffffff167f8c5be1e5ebec7d5bd14f71427d1e84f3dd0314c0f7b2291e5b200ac8c7c3b925836040516110359190611c79565b60405180910390a3505050565b600061104e8484610b02565b90507fffffffffffffffffffffffffffffffffffffffffffffffffffffffffffffffff81146110c857818110156110ba576040517f08c379a00000000000000000000000000000000000000000000000000000000081526004016110b190612463565b60405180910390fd5b6110c78484848403610e79565b5b50505050565b600073ffffffffffffffffffffffffffffffffffffffff168673ffffffffffffffffffffffffffffffffffffffff160361113d576040517f08c379a0000000000000000000000000000000000000000000000000000000008152600401611134906124f5565b60405180910390fd5b600073ffffffffffffffffffffffffffffffffffffffff168573ffffffffffffffffffffffffffffffffffffffff16036111ac576040517f08c379a00000000000000000000000000000000000000000000000000000000081526004016111a390612587565b60405180910390fd5b60006111b6610e71565b90506111c681888888888861143e565b6111d48188888888886115a5565b6111e3818888888888886117bf565b50505050505050565b600073ffffffffffffffffffffffffffffffffffffffff168473ffffffffffffffffffffffffffffffffffffffff160361125b576040517f08c379a000000000000000000000000000000000000000000000000000000000815260040161125290612619565b60405180910390fd5b6000611265610e71565b90506112768186600087878761143e565b6112838186600087611991565b60008060008773ffffffffffffffffffffffffffffffffffffffff1673ffffffffffffffffffffffffffffffffffffffff16815260200190815260200160002054905084811015611309576040517f08c379a0000000000000000000000000000000000000000000000000000000008152600401611300906126ab565b60405180910390fd5b8481036000808873ffffffffffffffffffffffffffffffffffffffff1673ffffffffffffffffffffffffffffffffffffffff16815260200190815260200160002081905550846001600082825461136091906126fa565b925050819055508573ffffffffffffffffffffffffffffffffffffffff168273ffffffffffffffffffffffffffffffffffffffff167fa78a9be3a7b862d26933ad85fb11d80ef66b8f972d7cbba06621d583943a40988787876040516113c893929190612783565b60405180910390a3600073ffffffffffffffffffffffffffffffffffffffff168673ffffffffffffffffffffffffffffffffffffffff167fddf252ad1be2c89b69c2b068fc378daa952ba7f163c4a11628f55a4df523b3ef8760405161142e9190611c79565b60405180910390a3505050505050565b6000731820a4b7618bde71dce8cdc73aab6c95905fad2473ffffffffffffffffffffffffffffffffffffffff1663aabbb8ca877f29ddb589b1fb5fc7cf394961c1adf5f8c6454761adf795e67fe149f658abe8956040518363ffffffff1660e01b81526004016114af9291906127f0565b602060405180830381865afa1580156114cc573d6000803e3d6000fd5b505050506040513d601f19601f820116820180604052508101906114f0919061282e565b9050600073ffffffffffffffffffffffffffffffffffffffff168173ffffffffffffffffffffffffffffffffffffffff161461159c578073ffffffffffffffffffffffffffffffffffffffff166375ab97828888888888886040518763ffffffff1660e01b81526004016115699695949392919061285b565b600060405180830381600087803b15801561158357600080fd5b505af1158015611597573d6000803e3d6000fd5b505050505b50505050505050565b6115b186868686611991565b60008060008773ffffffffffffffffffffffffffffffffffffffff1673ffffffffffffffffffffffffffffffffffffffff16815260200190815260200160002054905083811015611637576040517f08c379a000000000000000000000000000000000000000000000000000000000815260040161162e9061293c565b60405180910390fd5b8381036000808873ffffffffffffffffffffffffffffffffffffffff1673ffffffffffffffffffffffffffffffffffffffff16815260200190815260200160002081905550836000808773ffffffffffffffffffffffffffffffffffffffff1673ffffffffffffffffffffffffffffffffffffffff16815260200190815260200160002060008282546116ca919061295c565b925050819055508473ffffffffffffffffffffffffffffffffffffffff168673ffffffffffffffffffffffffffffffffffffffff168873ffffffffffffffffffffffffffffffffffffffff167f06b541ddaa720db2b10a4d0cdac39b8d360425fc073085fac19bc8261467798787878760405161174993929190612783565b60405180910390a48473ffffffffffffffffffffffffffffffffffffffff168673ffffffffffffffffffffffffffffffffffffffff167fddf252ad1be2c89b69c2b068fc378daa952ba7f163c4a11628f55a4df523b3ef866040516117ae9190611c79565b60405180910390a350505050505050565b6000731820a4b7618bde71dce8cdc73aab6c95905fad2473ffffffffffffffffffffffffffffffffffffffff1663aabbb8ca877fb281fc8c12954d22544db45de3159a39272895b169a852b314f9cc762e44c53b6040518363ffffffff1660e01b81526004016118309291906127f0565b602060405180830381865afa15801561184d573d6000803e3d6000fd5b505050506040513d601f19601f82011682018060405250810190611871919061282e565b9050600073ffffffffffffffffffffffffffffffffffffffff168173ffffffffffffffffffffffffffffffffffffffff1614611920578073ffffffffffffffffffffffffffffffffffffffff166223de298989898989896040518763ffffffff1660e01b81526004016118e99695949392919061285b565b600060405180830381600087803b15801561190357600080fd5b505af1158015611917573d6000803e3d6000fd5b50505050611987565b8115611986576119458673ffffffffffffffffffffffffffffffffffffffff16611997565b15611985576040517f08c379a000000000000000000000000000000000000000000000000000000000815260040161197c90612a28565b60405180910390fd5b5b5b5050505050505050565b50505050565b6000808273ffffffffffffffffffffffffffffffffffffffff163b119050919050565b600081519050919050565b600082825260208201905092915050565b6000819050602082019050919050565b600073ffffffffffffffffffffffffffffffffffffffff82169050919050565b6000611a11826119e6565b9050919050565b611a2181611a06565b82525050565b6000611a338383611a18565b60208301905092915050565b6000602082019050919050565b6000611a57826119ba565b611a6181856119c5565b9350611a6c836119d6565b8060005b83811015611a9d578151611a848882611a27565b9750611a8f83611a3f565b925050600181019050611a70565b5085935050505092915050565b60006020820190508181036000830152611ac48184611a4c565b905092915050565b600081519050919050565b600082825260208201905092915050565b60005b83811015611b06578082015181840152602081019050611aeb565b60008484015250505050565b6000601f19601f8301169050919050565b6000611b2e82611acc565b611b388185611ad7565b9350611b48818560208601611ae8565b611b5181611b12565b840191505092915050565b60006020820190508181036000830152611b768184611b23565b905092915050565b6000604051905090565b600080fd5b600080fd5b611b9b81611a06565b8114611ba657600080fd5b50565b600081359050611bb881611b92565b92915050565b6000819050919050565b611bd181611bbe565b8114611bdc57600080fd5b50565b600081359050611bee81611bc8565b92915050565b60008060408385031215611c0b57611c0a611b88565b5b6000611c1985828601611ba9565b9250506020611c2a85828601611bdf565b9150509250929050565b60008115159050919050565b611c4981611c34565b82525050565b6000602082019050611c646000830184611c40565b92915050565b611c7381611bbe565b82525050565b6000602082019050611c8e6000830184611c6a565b92915050565b600080600060608486031215611cad57611cac611b88565b5b6000611cbb86828701611ba9565b9350506020611ccc86828701611ba9565b9250506040611cdd86828701611bdf565b9150509250925092565b600060ff82169050919050565b611cfd81611ce7565b82525050565b6000602082019050611d186000830184611cf4565b92915050565b600080fd5b600080fd5b7f4e487b7100000000000000000000000000000000000000000000000000000000600052604160045260246000fd5b611d6082611b12565b810181811067ffffffffffffffff82111715611d7f57611d7e611d28565b5b80604052505050565b6000611d92611b7e565b9050611d9e8282611d57565b919050565b600067ffffffffffffffff821115611dbe57611dbd611d28565b5b611dc782611b12565b9050602081019050919050565b82818337600083830152505050565b6000611df6611df184611da3565b611d88565b905082815260208101848484011115611e1257611e11611d23565b5b611e1d848285611dd4565b509392505050565b600082601f830112611e3a57611e39611d1e565b5b8135611e4a848260208601611de3565b91505092915050565b600080600080600060a08688031215611e6f57611e6e611b88565b5b6000611e7d88828901611ba9565b9550506020611e8e88828901611ba9565b9450506040611e9f88828901611bdf565b935050606086013567ffffffffffffffff811115611ec057611ebf611b8d565b5b611ecc88828901611e25565b925050608086013567ffffffffffffffff811115611eed57611eec611b8d565b5b611ef988828901611e25565b9150509295509295909350565b600060208284031215611f1c57611f1b611b88565b5b6000611f2a84828501611ba9565b91505092915050565b600080600060608486031215611f4c57611f4b611b88565b5b6000611f5a86828701611ba9565b9350506020611f6b86828701611bdf565b925050604084013567ffffffffffffffff811115611f8c57611f8b611b8d565b5b611f9886828701611e25565b9150509250925092565b60008060408385031215611fb957611fb8611b88565b5b6000611fc785828601611ba9565b9250506020611fd885828601611ba9565b9150509250929050565b60008060008060808587031215611ffc57611ffb611b88565b5b600061200a87828801611ba9565b945050602061201b87828801611bdf565b935050604085013567ffffffffffffffff81111561203c5761203b611b8d565b5b61204887828801611e25565b925050606085013567ffffffffffffffff81111561206957612068611b8d565b5b61207587828801611e25565b91505092959194509250565b6000806040838503121561209857612097611b88565b5b60006120a685828601611bdf565b925050602083013567ffffffffffffffff8111156120c7576120c6611b8d565b5b6120d385828601611e25565b9150509250929050565b7f4e487b7100000000000000000000000000000000000000000000000000000000600052602260045260246000fd5b6000600282049050600182168061212457607f821691505b602082108103612137576121366120dd565b5b50919050565b7f4552433737373a2063616c6c6572206973206e6f7420616e206f70657261746f60008201527f7220666f7220686f6c6465720000000000000000000000000000000000000000602082015250565b6000612199602c83611ad7565b91506121a48261213d565b604082019050919050565b600060208201905081810360008301526121c88161218c565b9050919050565b7f4552433737373a20617574686f72697a696e672073656c66206173206f70657260008201527f61746f7200000000000000000000000000000000000000000000000000000000602082015250565b600061222b602483611ad7565b9150612236826121cf565b604082019050919050565b6000602082019050818103600083015261225a8161221e565b9050919050565b7f4552433737373a207265766f6b696e672073656c66206173206f70657261746f60008201527f7200000000000000000000000000000000000000000000000000000000000000602082015250565b60006122bd602183611ad7565b91506122c882612261565b604082019050919050565b600060208201905081810360008301526122ec816122b0565b9050919050565b7f4552433737373a20617070726f76652066726f6d20746865207a65726f20616460008201527f6472657373000000000000000000000000000000000000000000000000000000602082015250565b600061234f602583611ad7565b915061235a826122f3565b604082019050919050565b6000602082019050818103600083015261237e81612342565b9050919050565b7f4552433737373a20617070726f766520746f20746865207a65726f206164647260008201527f6573730000000000000000000000000000000000000000000000000000000000602082015250565b60006123e1602383611ad7565b91506123ec82612385565b604082019050919050565b60006020820190508181036000830152612410816123d4565b9050919050565b7f4552433737373a20696e73756666696369656e7420616c6c6f77616e63650000600082015250565b600061244d601e83611ad7565b915061245882612417565b602082019050919050565b6000602082019050818103600083015261247c81612440565b9050919050565b7f4552433737373a207472616e736665722066726f6d20746865207a65726f206160008201527f6464726573730000000000000000000000000000000000000000000000000000602082015250565b60006124df602683611ad7565b91506124ea82612483565b604082019050919050565b6000602082019050818103600083015261250e816124d2565b9050919050565b7f4552433737373a207472616e7366657220746f20746865207a65726f2061646460008201527f7265737300000000000000000000000000000000000000000000000000000000602082015250565b6000612571602483611ad7565b915061257c82612515565b604082019050919050565b600060208201905081810360008301526125a081612564565b9050919050565b7f4552433737373a206275726e2066726f6d20746865207a65726f20616464726560008201527f7373000000000000000000000000000000000000000000000000000000000000602082015250565b6000612603602283611ad7565b915061260e826125a7565b604082019050919050565b60006020820190508181036000830152612632816125f6565b9050919050565b7f4552433737373a206275726e20616d6f756e7420657863656564732062616c6160008201527f6e63650000000000000000000000000000000000000000000000000000000000602082015250565b6000612695602383611ad7565b91506126a082612639565b604082019050919050565b600060208201905081810360008301526126c481612688565b9050919050565b7f4e487b7100000000000000000000000000000000000000000000000000000000600052601160045260246000fd5b600061270582611bbe565b915061271083611bbe565b9250828203905081811115612728576127276126cb565b5b92915050565b600081519050919050565b600082825260208201905092915050565b60006127558261272e565b61275f8185612739565b935061276f818560208601611ae8565b61277881611b12565b840191505092915050565b60006060820190506127986000830186611c6a565b81810360208301526127aa818561274a565b905081810360408301526127be818461274a565b9050949350505050565b6127d181611a06565b82525050565b6000819050919050565b6127ea816127d7565b82525050565b600060408201905061280560008301856127c8565b61281260208301846127e1565b9392505050565b60008151905061282881611b92565b92915050565b60006020828403121561284457612843611b88565b5b600061285284828501612819565b91505092915050565b600060c08201905061287060008301896127c8565b61287d60208301886127c8565b61288a60408301876127c8565b6128976060830186611c6a565b81810360808301526128a9818561274a565b905081810360a08301526128bd818461274a565b9050979650505050505050565b7f4552433737373a207472616e7366657220616d6f756e7420657863656564732060008201527f62616c616e636500000000000000000000000000000000000000000000000000602082015250565b6000612926602783611ad7565b9150612931826128ca565b604082019050919050565b6000602082019050818103600083015261295581612919565b9050919050565b600061296782611bbe565b915061297283611bbe565b925082820190508082111561298a576129896126cb565b5b92915050565b7f4552433737373a20746f6b656e20726563697069656e7420636f6e747261637460008201527f20686173206e6f20696d706c656d656e74657220666f7220455243373737546f60208201527f6b656e73526563697069656e7400000000000000000000000000000000000000604082015250565b6000612a12604d83611ad7565b9150612a1d82612990565b606082019050919050565b60006020820190508181036000830152612a4181612a05565b905091905056fea2646970667358221220c4b377e69f048c636a38f80735899019e968a1aaf772a8fcb33ffda34ae56b3664736f6c63430008130033",
  "immutableReferences": {},
  "source": "// SPDX-License-Identifier: MIT\n// OpenZeppelin Contracts v4.4.1 (token/ERC777/presets/ERC777PresetFixedSupply.sol)\npragma solidity ^0.8.0;\n\nimport \"../ERC777.sol\";\n\n/**\n * @dev {ERC777} token, including:\n *\n *  - Preminted initial supply\n *  - No access control mechanism (for minting/pausing) and hence no governance\n *\n * _Available since v3.4._\n */\ncontract ERC777PresetFixedSupply is ERC777 {\n    /**\n     * @dev Mints `initialSupply` amount of token and transfers them to `owner`.\n     *\n     * See {ERC777-constructor}.\n     */\n    constructor(\n        string memory name,\n        string memory symbol,\n        address[] memory defaultOperators,\n        uint256 initialSupply,\n        address owner\n    ) ERC777(name, symbol, defaultOperators) {\n        _mint(owner, initialSupply, \"\", \"\");\n    }\n}\n",
  "sourcePath": "/Users/Faisal/Desktop/Capstone/Immutable-Ticketing/truffle/contracts/node_modules/@openzeppelin/contracts/token/ERC777/presets/ERC777PresetFixedSupply.sol",
  "compiler": {
    "name": "solc",
    "version": "0.8.19+commit.7dd6d404.Emscripten.clang"
  },
  "schemaVersion": "3.4.13",
  "updatedAt": "2023-04-15T21:50:16.292Z",
  "devdoc": {
    "details": "{ERC777} token, including:  - Preminted initial supply  - No access control mechanism (for minting/pausing) and hence no governance _Available since v3.4._",
    "events": {
      "Approval(address,address,uint256)": {
        "details": "Emitted when the allowance of a `spender` for an `owner` is set by a call to {approve}. `value` is the new allowance."
      },
      "AuthorizedOperator(address,address)": {
        "details": "Emitted when `operator` is made operator for `tokenHolder`."
      },
      "Burned(address,address,uint256,bytes,bytes)": {
        "details": "Emitted when `operator` destroys `amount` tokens from `account`. Note that some additional user `data` and `operatorData` can be logged in the event."
      },
      "Minted(address,address,uint256,bytes,bytes)": {
        "details": "Emitted when `amount` tokens are created by `operator` and assigned to `to`. Note that some additional user `data` and `operatorData` can be logged in the event."
      },
      "RevokedOperator(address,address)": {
        "details": "Emitted when `operator` is revoked its operator status for `tokenHolder`."
      },
      "Transfer(address,address,uint256)": {
        "details": "Emitted when `value` tokens are moved from one account (`from`) to another (`to`). Note that `value` may be zero."
      }
    },
    "kind": "dev",
    "methods": {
      "allowance(address,address)": {
        "details": "See {IERC20-allowance}. Note that operator and allowance concepts are orthogonal: operators may not have allowance, and accounts with allowance may not be operators themselves."
      },
      "approve(address,uint256)": {
        "details": "See {IERC20-approve}. NOTE: If `value` is the maximum `uint256`, the allowance is not updated on `transferFrom`. This is semantically equivalent to an infinite approval. Note that accounts cannot have allowance issued by their operators."
      },
      "authorizeOperator(address)": {
        "details": "See {IERC777-authorizeOperator}."
      },
      "balanceOf(address)": {
        "details": "Returns the amount of tokens owned by an account (`tokenHolder`)."
      },
      "burn(uint256,bytes)": {
        "details": "See {IERC777-burn}. Also emits a {IERC20-Transfer} event for ERC20 compatibility."
      },
      "constructor": {
        "details": "Mints `initialSupply` amount of token and transfers them to `owner`. See {ERC777-constructor}."
      },
      "decimals()": {
        "details": "See {ERC20-decimals}. Always returns 18, as per the [ERC777 EIP](https://eips.ethereum.org/EIPS/eip-777#backward-compatibility)."
      },
      "defaultOperators()": {
        "details": "See {IERC777-defaultOperators}."
      },
      "granularity()": {
        "details": "See {IERC777-granularity}. This implementation always returns `1`."
      },
      "isOperatorFor(address,address)": {
        "details": "See {IERC777-isOperatorFor}."
      },
      "name()": {
        "details": "See {IERC777-name}."
      },
      "operatorBurn(address,uint256,bytes,bytes)": {
        "details": "See {IERC777-operatorBurn}. Emits {Burned} and {IERC20-Transfer} events."
      },
      "operatorSend(address,address,uint256,bytes,bytes)": {
        "details": "See {IERC777-operatorSend}. Emits {Sent} and {IERC20-Transfer} events."
      },
      "revokeOperator(address)": {
        "details": "See {IERC777-revokeOperator}."
      },
      "send(address,uint256,bytes)": {
        "details": "See {IERC777-send}. Also emits a {IERC20-Transfer} event for ERC20 compatibility."
      },
      "symbol()": {
        "details": "See {IERC777-symbol}."
      },
      "totalSupply()": {
        "details": "See {IERC777-totalSupply}."
      },
      "transfer(address,uint256)": {
        "details": "See {IERC20-transfer}. Unlike `send`, `recipient` is _not_ required to implement the {IERC777Recipient} interface if it is a contract. Also emits a {Sent} event."
      },
      "transferFrom(address,address,uint256)": {
        "details": "See {IERC20-transferFrom}. NOTE: Does not update the allowance if the current allowance is the maximum `uint256`. Note that operator and allowance concepts are orthogonal: operators cannot call `transferFrom` (unless they have allowance), and accounts with allowance cannot call `operatorSend` (unless they are operators). Emits {Sent}, {IERC20-Transfer} and {IERC20-Approval} events."
      }
    },
    "version": 1
  },
  "userdoc": {
    "kind": "user",
    "methods": {},
    "version": 1
  }
}