{
  "contractName": "TicketNFT",
  "abi": [
    {
      "inputs": [
        {
          "internalType": "string",
          "name": "name",
          "type": "string"
        },
        {
          "internalType": "string",
          "name": "symbol",
          "type": "string"
        },
        {
          "internalType": "string",
          "name": "eventLocation",
          "type": "string"
        },
        {
          "internalType": "string",
          "name": "eventType",
          "type": "string"
        },
        {
          "internalType": "uint256",
          "name": "startDate",
          "type": "uint256"
        },
        {
          "internalType": "uint256",
          "name": "endDate",
          "type": "uint256"
        }
      ],
      "stateMutability": "nonpayable",
      "type": "constructor"
    },
    {
      "anonymous": false,
      "inputs": [
        {
          "indexed": true,
          "internalType": "address",
          "name": "owner",
          "type": "address"
        },
        {
          "indexed": true,
          "internalType": "address",
          "name": "approved",
          "type": "address"
        },
        {
          "indexed": true,
          "internalType": "uint256",
          "name": "tokenId",
          "type": "uint256"
        }
      ],
      "name": "Approval",
      "type": "event"
    },
    {
      "anonymous": false,
      "inputs": [
        {
          "indexed": true,
          "internalType": "address",
          "name": "owner",
          "type": "address"
        },
        {
          "indexed": true,
          "internalType": "address",
          "name": "operator",
          "type": "address"
        },
        {
          "indexed": false,
          "internalType": "bool",
          "name": "approved",
          "type": "bool"
        }
      ],
      "name": "ApprovalForAll",
      "type": "event"
    },
    {
      "anonymous": false,
      "inputs": [
        {
          "indexed": true,
          "internalType": "address",
          "name": "previousOwner",
          "type": "address"
        },
        {
          "indexed": true,
          "internalType": "address",
          "name": "newOwner",
          "type": "address"
        }
      ],
      "name": "OwnershipTransferred",
      "type": "event"
    },
    {
      "anonymous": false,
      "inputs": [
        {
          "indexed": true,
          "internalType": "bytes32",
          "name": "role",
          "type": "bytes32"
        },
        {
          "indexed": true,
          "internalType": "bytes32",
          "name": "previousAdminRole",
          "type": "bytes32"
        },
        {
          "indexed": true,
          "internalType": "bytes32",
          "name": "newAdminRole",
          "type": "bytes32"
        }
      ],
      "name": "RoleAdminChanged",
      "type": "event"
    },
    {
      "anonymous": false,
      "inputs": [
        {
          "indexed": true,
          "internalType": "bytes32",
          "name": "role",
          "type": "bytes32"
        },
        {
          "indexed": true,
          "internalType": "address",
          "name": "account",
          "type": "address"
        },
        {
          "indexed": true,
          "internalType": "address",
          "name": "sender",
          "type": "address"
        }
      ],
      "name": "RoleGranted",
      "type": "event"
    },
    {
      "anonymous": false,
      "inputs": [
        {
          "indexed": true,
          "internalType": "bytes32",
          "name": "role",
          "type": "bytes32"
        },
        {
          "indexed": true,
          "internalType": "address",
          "name": "account",
          "type": "address"
        },
        {
          "indexed": true,
          "internalType": "address",
          "name": "sender",
          "type": "address"
        }
      ],
      "name": "RoleRevoked",
      "type": "event"
    },
    {
      "anonymous": false,
      "inputs": [
        {
          "indexed": true,
          "internalType": "address",
          "name": "from",
          "type": "address"
        },
        {
          "indexed": true,
          "internalType": "address",
          "name": "to",
          "type": "address"
        },
        {
          "indexed": true,
          "internalType": "uint256",
          "name": "tokenId",
          "type": "uint256"
        }
      ],
      "name": "Transfer",
      "type": "event"
    },
    {
      "anonymous": false,
      "inputs": [
        {
          "indexed": false,
          "internalType": "uint256",
          "name": "value",
          "type": "uint256"
        }
      ],
      "name": "ValueLogged",
      "type": "event"
    },
    {
      "inputs": [],
      "name": "DEFAULT_ADMIN_ROLE",
      "outputs": [
        {
          "internalType": "bytes32",
          "name": "",
          "type": "bytes32"
        }
      ],
      "stateMutability": "view",
      "type": "function",
      "constant": true
    },
    {
      "inputs": [],
      "name": "GATE_ACCOUNTS",
      "outputs": [
        {
          "internalType": "bytes32",
          "name": "",
          "type": "bytes32"
        }
      ],
      "stateMutability": "view",
      "type": "function",
      "constant": true
    },
    {
      "inputs": [],
      "name": "GEA_ACCOUNTS",
      "outputs": [
        {
          "internalType": "bytes32",
          "name": "",
          "type": "bytes32"
        }
      ],
      "stateMutability": "view",
      "type": "function",
      "constant": true
    },
    {
      "inputs": [],
      "name": "MINTER_ROLE",
      "outputs": [
        {
          "internalType": "bytes32",
          "name": "",
          "type": "bytes32"
        }
      ],
      "stateMutability": "view",
      "type": "function",
      "constant": true
    },
    {
      "inputs": [],
      "name": "VERIFIED_ACCOUNTS",
      "outputs": [
        {
          "internalType": "bytes32",
          "name": "",
          "type": "bytes32"
        }
      ],
      "stateMutability": "view",
      "type": "function",
      "constant": true
    },
    {
      "inputs": [
        {
          "internalType": "uint256",
          "name": "",
          "type": "uint256"
        }
      ],
      "name": "_allTickets",
      "outputs": [
        {
          "internalType": "uint256",
          "name": "_price",
          "type": "uint256"
        },
        {
          "internalType": "bool",
          "name": "_forSale",
          "type": "bool"
        },
        {
          "internalType": "uint256",
          "name": "_seatNumber",
          "type": "uint256"
        }
      ],
      "stateMutability": "view",
      "type": "function",
      "constant": true
    },
    {
      "inputs": [],
      "name": "_endDate",
      "outputs": [
        {
          "internalType": "uint256",
          "name": "",
          "type": "uint256"
        }
      ],
      "stateMutability": "view",
      "type": "function",
      "constant": true
    },
    {
      "inputs": [],
      "name": "_eventLocation",
      "outputs": [
        {
          "internalType": "string",
          "name": "",
          "type": "string"
        }
      ],
      "stateMutability": "view",
      "type": "function",
      "constant": true
    },
    {
      "inputs": [],
      "name": "_eventName",
      "outputs": [
        {
          "internalType": "string",
          "name": "",
          "type": "string"
        }
      ],
      "stateMutability": "view",
      "type": "function",
      "constant": true
    },
    {
      "inputs": [],
      "name": "_eventType",
      "outputs": [
        {
          "internalType": "string",
          "name": "",
          "type": "string"
        }
      ],
      "stateMutability": "view",
      "type": "function",
      "constant": true
    },
    {
      "inputs": [],
      "name": "_startDate",
      "outputs": [
        {
          "internalType": "uint256",
          "name": "",
          "type": "uint256"
        }
      ],
      "stateMutability": "view",
      "type": "function",
      "constant": true
    },
    {
      "inputs": [],
      "name": "_tokenIdCounter",
      "outputs": [
        {
          "internalType": "uint256",
          "name": "_value",
          "type": "uint256"
        }
      ],
      "stateMutability": "view",
      "type": "function",
      "constant": true
    },
    {
      "inputs": [
        {
          "internalType": "address",
          "name": "to",
          "type": "address"
        },
        {
          "internalType": "uint256",
          "name": "tokenId",
          "type": "uint256"
        }
      ],
      "name": "approve",
      "outputs": [],
      "stateMutability": "nonpayable",
      "type": "function"
    },
    {
      "inputs": [
        {
          "internalType": "address",
          "name": "owner",
          "type": "address"
        }
      ],
      "name": "balanceOf",
      "outputs": [
        {
          "internalType": "uint256",
          "name": "",
          "type": "uint256"
        }
      ],
      "stateMutability": "view",
      "type": "function",
      "constant": true
    },
    {
      "inputs": [
        {
          "internalType": "uint256",
          "name": "tokenId",
          "type": "uint256"
        }
      ],
      "name": "burn",
      "outputs": [],
      "stateMutability": "nonpayable",
      "type": "function"
    },
    {
      "inputs": [
        {
          "internalType": "uint256",
          "name": "tokenId",
          "type": "uint256"
        }
      ],
      "name": "getApproved",
      "outputs": [
        {
          "internalType": "address",
          "name": "",
          "type": "address"
        }
      ],
      "stateMutability": "view",
      "type": "function",
      "constant": true
    },
    {
      "inputs": [
        {
          "internalType": "bytes32",
          "name": "role",
          "type": "bytes32"
        }
      ],
      "name": "getRoleAdmin",
      "outputs": [
        {
          "internalType": "bytes32",
          "name": "",
          "type": "bytes32"
        }
      ],
      "stateMutability": "view",
      "type": "function",
      "constant": true
    },
    {
      "inputs": [
        {
          "internalType": "bytes32",
          "name": "role",
          "type": "bytes32"
        },
        {
          "internalType": "address",
          "name": "account",
          "type": "address"
        }
      ],
      "name": "grantRole",
      "outputs": [],
      "stateMutability": "nonpayable",
      "type": "function"
    },
    {
      "inputs": [
        {
          "internalType": "bytes32",
          "name": "role",
          "type": "bytes32"
        },
        {
          "internalType": "address",
          "name": "account",
          "type": "address"
        }
      ],
      "name": "hasRole",
      "outputs": [
        {
          "internalType": "bool",
          "name": "",
          "type": "bool"
        }
      ],
      "stateMutability": "view",
      "type": "function",
      "constant": true
    },
    {
      "inputs": [
        {
          "internalType": "address",
          "name": "owner",
          "type": "address"
        },
        {
          "internalType": "address",
          "name": "operator",
          "type": "address"
        }
      ],
      "name": "isApprovedForAll",
      "outputs": [
        {
          "internalType": "bool",
          "name": "",
          "type": "bool"
        }
      ],
      "stateMutability": "view",
      "type": "function",
      "constant": true
    },
    {
      "inputs": [],
      "name": "name",
      "outputs": [
        {
          "internalType": "string",
          "name": "",
          "type": "string"
        }
      ],
      "stateMutability": "view",
      "type": "function",
      "constant": true
    },
    {
      "inputs": [],
      "name": "owner",
      "outputs": [
        {
          "internalType": "address",
          "name": "",
          "type": "address"
        }
      ],
      "stateMutability": "view",
      "type": "function",
      "constant": true
    },
    {
      "inputs": [
        {
          "internalType": "uint256",
          "name": "tokenId",
          "type": "uint256"
        }
      ],
      "name": "ownerOf",
      "outputs": [
        {
          "internalType": "address",
          "name": "",
          "type": "address"
        }
      ],
      "stateMutability": "view",
      "type": "function",
      "constant": true
    },
    {
      "inputs": [],
      "name": "renounceOwnership",
      "outputs": [],
      "stateMutability": "nonpayable",
      "type": "function"
    },
    {
      "inputs": [
        {
          "internalType": "bytes32",
          "name": "role",
          "type": "bytes32"
        },
        {
          "internalType": "address",
          "name": "account",
          "type": "address"
        }
      ],
      "name": "renounceRole",
      "outputs": [],
      "stateMutability": "nonpayable",
      "type": "function"
    },
    {
      "inputs": [
        {
          "internalType": "bytes32",
          "name": "role",
          "type": "bytes32"
        },
        {
          "internalType": "address",
          "name": "account",
          "type": "address"
        }
      ],
      "name": "revokeRole",
      "outputs": [],
      "stateMutability": "nonpayable",
      "type": "function"
    },
    {
      "inputs": [
        {
          "internalType": "address",
          "name": "operator",
          "type": "address"
        },
        {
          "internalType": "bool",
          "name": "approved",
          "type": "bool"
        }
      ],
      "name": "setApprovalForAll",
      "outputs": [],
      "stateMutability": "nonpayable",
      "type": "function"
    },
    {
      "inputs": [],
      "name": "symbol",
      "outputs": [
        {
          "internalType": "string",
          "name": "",
          "type": "string"
        }
      ],
      "stateMutability": "view",
      "type": "function",
      "constant": true
    },
    {
      "inputs": [
        {
          "internalType": "uint256",
          "name": "",
          "type": "uint256"
        }
      ],
      "name": "ticketIndexToOwner",
      "outputs": [
        {
          "internalType": "address",
          "name": "",
          "type": "address"
        }
      ],
      "stateMutability": "view",
      "type": "function",
      "constant": true
    },
    {
      "inputs": [
        {
          "internalType": "address",
          "name": "from",
          "type": "address"
        },
        {
          "internalType": "address",
          "name": "to",
          "type": "address"
        },
        {
          "internalType": "uint256",
          "name": "tokenId",
          "type": "uint256"
        }
      ],
      "name": "transferFrom",
      "outputs": [],
      "stateMutability": "nonpayable",
      "type": "function"
    },
    {
      "inputs": [
        {
          "internalType": "address",
          "name": "newOwner",
          "type": "address"
        }
      ],
      "name": "transferOwnership",
      "outputs": [],
      "stateMutability": "nonpayable",
      "type": "function"
    },
    {
      "inputs": [
        {
          "internalType": "address",
          "name": "to",
          "type": "address"
        },
        {
          "internalType": "string",
          "name": "uri",
          "type": "string"
        },
        {
          "internalType": "uint256",
          "name": "price",
          "type": "uint256"
        },
        {
          "internalType": "uint256",
          "name": "seatNumber",
          "type": "uint256"
        }
      ],
      "name": "safeMint",
      "outputs": [],
      "stateMutability": "nonpayable",
      "type": "function"
    },
    {
      "inputs": [
        {
          "internalType": "uint256",
          "name": "tokenId",
          "type": "uint256"
        },
        {
          "internalType": "bytes",
          "name": "data",
          "type": "bytes"
        }
      ],
      "name": "buy",
      "outputs": [],
      "stateMutability": "payable",
      "type": "function",
      "payable": true
    },
    {
      "inputs": [
        {
          "internalType": "bool",
          "name": "option",
          "type": "bool"
        },
        {
          "internalType": "uint256",
          "name": "tokenId",
          "type": "uint256"
        }
      ],
      "name": "sale",
      "outputs": [],
      "stateMutability": "nonpayable",
      "type": "function"
    },
    {
      "inputs": [
        {
          "internalType": "address",
          "name": "to",
          "type": "address"
        },
        {
          "internalType": "uint256",
          "name": "tokenId",
          "type": "uint256"
        },
        {
          "internalType": "bytes",
          "name": "data",
          "type": "bytes"
        }
      ],
      "name": "useTicket",
      "outputs": [],
      "stateMutability": "payable",
      "type": "function",
      "payable": true
    },
    {
      "inputs": [
        {
          "internalType": "address",
          "name": "from",
          "type": "address"
        },
        {
          "internalType": "address",
          "name": "to",
          "type": "address"
        },
        {
          "internalType": "uint256",
          "name": "tokenId",
          "type": "uint256"
        }
      ],
      "name": "safeTransferFrom",
      "outputs": [],
      "stateMutability": "nonpayable",
      "type": "function"
    },
    {
      "inputs": [
        {
          "internalType": "address",
          "name": "from",
          "type": "address"
        },
        {
          "internalType": "address",
          "name": "to",
          "type": "address"
        },
        {
          "internalType": "uint256",
          "name": "tokenId",
          "type": "uint256"
        },
        {
          "internalType": "bytes",
          "name": "data",
          "type": "bytes"
        }
      ],
      "name": "safeTransferFrom",
      "outputs": [],
      "stateMutability": "nonpayable",
      "type": "function"
    },
    {
      "inputs": [
        {
          "internalType": "uint256",
          "name": "tokenId",
          "type": "uint256"
        }
      ],
      "name": "tokenURI",
      "outputs": [
        {
          "internalType": "string",
          "name": "",
          "type": "string"
        }
      ],
      "stateMutability": "view",
      "type": "function",
      "constant": true
    },
    {
      "inputs": [
        {
          "internalType": "bytes4",
          "name": "interfaceId",
          "type": "bytes4"
        }
      ],
      "name": "supportsInterface",
      "outputs": [
        {
          "internalType": "bool",
          "name": "",
          "type": "bool"
        }
      ],
      "stateMutability": "view",
      "type": "function",
      "constant": true
    }
  ],
  "bytecode": "0x60806040523480156200001157600080fd5b5060405162005828380380620058288339818101604052810190620000379190620004e1565b858581600090816200004a91906200083a565b5080600190816200005c91906200083a565b5050506200007f62000073620000d260201b60201c565b620000da60201b60201c565b620000946000801b33620001a060201b60201c565b83600c9081620000a591906200083a565b5082600d9081620000b791906200083a565b5081600e8190555080600f8190555050505050505062000921565b600033905090565b6000600760009054906101000a900473ffffffffffffffffffffffffffffffffffffffff16905081600760006101000a81548173ffffffffffffffffffffffffffffffffffffffff021916908373ffffffffffffffffffffffffffffffffffffffff1602179055508173ffffffffffffffffffffffffffffffffffffffff168173ffffffffffffffffffffffffffffffffffffffff167f8be0079c531659141344cd1fd0a4f28419497f9722a3daafe3b4186f6b6457e060405160405180910390a35050565b620001b28282620001b660201b60201c565b5050565b620001c88282620002a860201b60201c565b620002a45760016008600084815260200190815260200160002060000160008373ffffffffffffffffffffffffffffffffffffffff1673ffffffffffffffffffffffffffffffffffffffff16815260200190815260200160002060006101000a81548160ff02191690831515021790555062000249620000d260201b60201c565b73ffffffffffffffffffffffffffffffffffffffff168173ffffffffffffffffffffffffffffffffffffffff16837f2f8788117e7eff1d82e926ec794901d17c78024a50270940304540a733656f0d60405160405180910390a45b5050565b60006008600084815260200190815260200160002060000160008373ffffffffffffffffffffffffffffffffffffffff1673ffffffffffffffffffffffffffffffffffffffff16815260200190815260200160002060009054906101000a900460ff16905092915050565b6000604051905090565b600080fd5b600080fd5b600080fd5b600080fd5b6000601f19601f8301169050919050565b7f4e487b7100000000000000000000000000000000000000000000000000000000600052604160045260246000fd5b6200037c8262000331565b810181811067ffffffffffffffff821117156200039e576200039d62000342565b5b80604052505050565b6000620003b362000313565b9050620003c1828262000371565b919050565b600067ffffffffffffffff821115620003e457620003e362000342565b5b620003ef8262000331565b9050602081019050919050565b60005b838110156200041c578082015181840152602081019050620003ff565b60008484015250505050565b60006200043f6200043984620003c6565b620003a7565b9050828152602081018484840111156200045e576200045d6200032c565b5b6200046b848285620003fc565b509392505050565b600082601f8301126200048b576200048a62000327565b5b81516200049d84826020860162000428565b91505092915050565b6000819050919050565b620004bb81620004a6565b8114620004c757600080fd5b50565b600081519050620004db81620004b0565b92915050565b60008060008060008060c087890312156200050157620005006200031d565b5b600087015167ffffffffffffffff81111562000522576200052162000322565b5b6200053089828a0162000473565b965050602087015167ffffffffffffffff81111562000554576200055362000322565b5b6200056289828a0162000473565b955050604087015167ffffffffffffffff81111562000586576200058562000322565b5b6200059489828a0162000473565b945050606087015167ffffffffffffffff811115620005b857620005b762000322565b5b620005c689828a0162000473565b9350506080620005d989828a01620004ca565b92505060a0620005ec89828a01620004ca565b9150509295509295509295565b600081519050919050565b7f4e487b7100000000000000000000000000000000000000000000000000000000600052602260045260246000fd5b600060028204905060018216806200064c57607f821691505b60208210810362000662576200066162000604565b5b50919050565b60008190508160005260206000209050919050565b60006020601f8301049050919050565b600082821b905092915050565b600060088302620006cc7fffffffffffffffffffffffffffffffffffffffffffffffffffffffffffffffff826200068d565b620006d886836200068d565b95508019841693508086168417925050509392505050565b6000819050919050565b60006200071b620007156200070f84620004a6565b620006f0565b620004a6565b9050919050565b6000819050919050565b6200073783620006fa565b6200074f620007468262000722565b8484546200069a565b825550505050565b600090565b6200076662000757565b620007738184846200072c565b505050565b5b818110156200079b576200078f6000826200075c565b60018101905062000779565b5050565b601f821115620007ea57620007b48162000668565b620007bf846200067d565b81016020851015620007cf578190505b620007e7620007de856200067d565b83018262000778565b50505b505050565b600082821c905092915050565b60006200080f60001984600802620007ef565b1980831691505092915050565b60006200082a8383620007fc565b9150826002028217905092915050565b6200084582620005f9565b67ffffffffffffffff81111562000861576200086062000342565b5b6200086d825462000633565b6200087a8282856200079f565b600060209050601f831160018114620008b257600084156200089d578287015190505b620008a985826200081c565b86555062000919565b601f198416620008c28662000668565b60005b82811015620008ec57848901518255600182019150602085019450602081019050620008c5565b868310156200090c578489015162000908601f891682620007fc565b8355505b6001600288020188555050505b505050505050565b614ef780620009316000396000f3fe6080604052600436106102305760003560e01c806380310ea51161012e578063a9ec9a22116100ab578063d53913931161006f578063d539139314610849578063d547741f14610874578063dbfa58631461089d578063e985e9c5146108c8578063f2fde38b1461090557610230565b8063a9ec9a2214610762578063ac8daba01461078d578063b88d4fde146107b8578063b8cba204146107e1578063c87b56dd1461080c57610230565b806391d14854116100f257806391d148541461067d578063924eef47146106ba57806395d89b41146106e3578063a217fddf1461070e578063a22cb4651461073957610230565b806380310ea5146105a357806382189551146105e057806384c4bd4b146105fc5780638c445977146106275780638da5cb5b1461065257610230565b80632f2ff15d116101bc57806349a5aaf01161018057806349a5aaf0146104bc5780634c95ef60146104e75780636352211e1461051257806370a082311461054f578063715018a61461058c57610230565b80632f2ff15d146103d957806336568abe1461040257806342842e0e1461042b57806342966c68146104545780634960209a1461047d57610230565b80630ad41329116102035780630ad413291461030357806323b872dd1461032e578063248a9ca3146103575780632674c2a7146103945780632923ce11146103b057610230565b806301ffc9a71461023557806306fdde0314610272578063081812fc1461029d578063095ea7b3146102da575b600080fd5b34801561024157600080fd5b5061025c60048036038101906102579190613471565b61092e565b60405161026991906134b9565b60405180910390f35b34801561027e57600080fd5b50610287610940565b6040516102949190613564565b60405180910390f35b3480156102a957600080fd5b506102c460048036038101906102bf91906135bc565b6109d2565b6040516102d1919061362a565b60405180910390f35b3480156102e657600080fd5b5061030160048036038101906102fc9190613671565b610a18565b005b34801561030f57600080fd5b50610318610b2f565b60405161032591906136ca565b60405180910390f35b34801561033a57600080fd5b50610355600480360381019061035091906136e5565b610b53565b005b34801561036357600080fd5b5061037e60048036038101906103799190613764565b610bb3565b60405161038b91906136ca565b60405180910390f35b6103ae60048036038101906103a991906138c6565b610bd3565b005b3480156103bc57600080fd5b506103d760048036038101906103d291906139d6565b610d4b565b005b3480156103e557600080fd5b5061040060048036038101906103fb9190613a59565b610ee3565b005b34801561040e57600080fd5b5061042960048036038101906104249190613a59565b610f04565b005b34801561043757600080fd5b50610452600480360381019061044d91906136e5565b610f87565b005b34801561046057600080fd5b5061047b600480360381019061047691906135bc565b610fa7565b005b34801561048957600080fd5b506104a4600480360381019061049f91906135bc565b611003565b6040516104b393929190613aa8565b60405180910390f35b3480156104c857600080fd5b506104d161104a565b6040516104de91906136ca565b60405180910390f35b3480156104f357600080fd5b506104fc61106e565b6040516105099190613564565b60405180910390f35b34801561051e57600080fd5b50610539600480360381019061053491906135bc565b6110fc565b604051610546919061362a565b60405180910390f35b34801561055b57600080fd5b5061057660048036038101906105719190613adf565b611182565b6040516105839190613b0c565b60405180910390f35b34801561059857600080fd5b506105a1611239565b005b3480156105af57600080fd5b506105ca60048036038101906105c591906135bc565b61124d565b6040516105d7919061362a565b60405180910390f35b6105fa60048036038101906105f59190613b27565b611280565b005b34801561060857600080fd5b5061061161146a565b60405161061e9190613b0c565b60405180910390f35b34801561063357600080fd5b5061063c611476565b6040516106499190613564565b60405180910390f35b34801561065e57600080fd5b50610667611504565b604051610674919061362a565b60405180910390f35b34801561068957600080fd5b506106a4600480360381019061069f9190613a59565b61152e565b6040516106b191906134b9565b60405180910390f35b3480156106c657600080fd5b506106e160048036038101906106dc9190613baf565b611599565b005b3480156106ef57600080fd5b506106f861167b565b6040516107059190613564565b60405180910390f35b34801561071a57600080fd5b5061072361170d565b60405161073091906136ca565b60405180910390f35b34801561074557600080fd5b50610760600480360381019061075b9190613bef565b611714565b005b34801561076e57600080fd5b5061077761172a565b60405161078491906136ca565b60405180910390f35b34801561079957600080fd5b506107a261174e565b6040516107af9190613b0c565b60405180910390f35b3480156107c457600080fd5b506107df60048036038101906107da9190613c2f565b611754565b005b3480156107ed57600080fd5b506107f661179b565b6040516108039190613564565b60405180910390f35b34801561081857600080fd5b50610833600480360381019061082e91906135bc565b611829565b6040516108409190613564565b60405180910390f35b34801561085557600080fd5b5061085e61183b565b60405161086b91906136ca565b60405180910390f35b34801561088057600080fd5b5061089b60048036038101906108969190613a59565b61185f565b005b3480156108a957600080fd5b506108b2611880565b6040516108bf9190613b0c565b60405180910390f35b3480156108d457600080fd5b506108ef60048036038101906108ea9190613cb2565b611886565b6040516108fc91906134b9565b60405180910390f35b34801561091157600080fd5b5061092c60048036038101906109279190613adf565b61191a565b005b60006109398261199d565b9050919050565b60606000805461094f90613d21565b80601f016020809104026020016040519081016040528092919081815260200182805461097b90613d21565b80156109c85780601f1061099d576101008083540402835291602001916109c8565b820191906000526020600020905b8154815290600101906020018083116109ab57829003601f168201915b5050505050905090565b60006109dd82611a17565b6004600083815260200190815260200160002060009054906101000a900473ffffffffffffffffffffffffffffffffffffffff169050919050565b6000610a23826110fc565b90508073ffffffffffffffffffffffffffffffffffffffff168373ffffffffffffffffffffffffffffffffffffffff1603610a93576040517f08c379a0000000000000000000000000000000000000000000000000000000008152600401610a8a90613dc4565b60405180910390fd5b8073ffffffffffffffffffffffffffffffffffffffff16610ab2611a62565b73ffffffffffffffffffffffffffffffffffffffff161480610ae15750610ae081610adb611a62565b611886565b5b610b20576040517f08c379a0000000000000000000000000000000000000000000000000000000008152600401610b1790613e56565b60405180910390fd5b610b2a8383611a6a565b505050565b7f8c04bd11d77ff50ce74eb27dbf3be5835bb80388d39725f7e4808cb26a02e7cd81565b610b64610b5e611a62565b82611b23565b610ba3576040517f08c379a0000000000000000000000000000000000000000000000000000000008152600401610b9a90613ee8565b60405180910390fd5b610bae838383611bb8565b505050565b600060086000838152602001908152602001600020600101549050919050565b7f8c04bd11d77ff50ce74eb27dbf3be5835bb80388d39725f7e4808cb26a02e7cd610bfd81611eb1565b610c277ff1e558ad2d1ae84c04c78952391580ee1aabc290ce5ab9337aaa08da394d328f8561152e565b610c66576040517f08c379a0000000000000000000000000000000000000000000000000000000008152600401610c5d90613f7a565b60405180910390fd5b60001515600a8481548110610c7e57610c7d613f9a565b5b906000526020600020906003020160010160009054906101000a900460ff16151514610cdf576040517f08c379a0000000000000000000000000000000000000000000000000000000008152600401610cd690614015565b60405180910390fd5b610cf3610ceb846110fc565b858585611ec5565b836009600085815260200190815260200160002060006101000a81548173ffffffffffffffffffffffffffffffffffffffff021916908373ffffffffffffffffffffffffffffffffffffffff16021790555050505050565b7f9f2df0fed2c77648de5860a4cc508cd0818c85b8b8a1ab4ceeef8d981c8956a6610d7581611eb1565b610d9f7fbc7dbb233c603795f906644f7c42dc46861c7eaeae18d4f0099de42c6a7c92de8661152e565b610dde576040517f08c379a0000000000000000000000000000000000000000000000000000000008152600401610dd5906140a7565b60405180910390fd5b6000610dea6010611f21565b9050600a60405180606001604052808681526020016001151581526020018581525090806001815401808255809150506001900390600052602060002090600302016000909190919091506000820151816000015560208201518160010160006101000a81548160ff021916908315150217905550604082015181600201555050610e756010611f2f565b610e7f8682611f45565b856009600083815260200190815260200160002060006101000a81548173ffffffffffffffffffffffffffffffffffffffff021916908373ffffffffffffffffffffffffffffffffffffffff160217905550610edb8186611f63565b505050505050565b610eec82610bb3565b610ef581611eb1565b610eff8383611fd0565b505050565b610f0c611a62565b73ffffffffffffffffffffffffffffffffffffffff168173ffffffffffffffffffffffffffffffffffffffff1614610f79576040517f08c379a0000000000000000000000000000000000000000000000000000000008152600401610f7090614139565b60405180910390fd5b610f8382826120b1565b5050565b610fa283838360405180602001604052806000815250611754565b505050565b610fb8610fb2611a62565b82611b23565b610ff7576040517f08c379a0000000000000000000000000000000000000000000000000000000008152600401610fee90613ee8565b60405180910390fd5b61100081612193565b50565b600a818154811061101357600080fd5b90600052602060002090600302016000915090508060000154908060010160009054906101000a900460ff16908060020154905083565b7fbc7dbb233c603795f906644f7c42dc46861c7eaeae18d4f0099de42c6a7c92de81565b600c805461107b90613d21565b80601f01602080910402602001604051908101604052809291908181526020018280546110a790613d21565b80156110f45780601f106110c9576101008083540402835291602001916110f4565b820191906000526020600020905b8154815290600101906020018083116110d757829003601f168201915b505050505081565b6000806111088361219f565b9050600073ffffffffffffffffffffffffffffffffffffffff168173ffffffffffffffffffffffffffffffffffffffff1603611179576040517f08c379a0000000000000000000000000000000000000000000000000000000008152600401611170906141a5565b60405180910390fd5b80915050919050565b60008073ffffffffffffffffffffffffffffffffffffffff168273ffffffffffffffffffffffffffffffffffffffff16036111f2576040517f08c379a00000000000000000000000000000000000000000000000000000000081526004016111e990614237565b60405180910390fd5b600360008373ffffffffffffffffffffffffffffffffffffffff1673ffffffffffffffffffffffffffffffffffffffff168152602001908152602001600020549050919050565b6112416121dc565b61124b600061225a565b565b60096020528060005260406000206000915054906101000a900473ffffffffffffffffffffffffffffffffffffffff1681565b7f8c04bd11d77ff50ce74eb27dbf3be5835bb80388d39725f7e4808cb26a02e7cd6112aa81611eb1565b60011515600a84815481106112c2576112c1613f9a565b5b906000526020600020906003020160010160009054906101000a900460ff16151514611323576040517f08c379a000000000000000000000000000000000000000000000000000000000815260040161131a906142a3565b60405180910390fd5b600a838154811061133757611336613f9a565b5b906000526020600020906003020160000154341461138a576040517f08c379a00000000000000000000000000000000000000000000000000000000081526004016113819061430f565b60405180910390fd5b7f90cdca1b020636d47627223f96eaf00cf8f1359630dd01afbbbe837a4e3b6284346040516113b99190613b0c565b60405180910390a16113d56113cd846110fc565b338585611ec5565b336009600085815260200190815260200160002060006101000a81548173ffffffffffffffffffffffffffffffffffffffff021916908373ffffffffffffffffffffffffffffffffffffffff1602179055506000600a848154811061143d5761143c613f9a565b5b906000526020600020906003020160010160006101000a81548160ff021916908315150217905550505050565b60108060000154905081565b600b805461148390613d21565b80601f01602080910402602001604051908101604052809291908181526020018280546114af90613d21565b80156114fc5780601f106114d1576101008083540402835291602001916114fc565b820191906000526020600020905b8154815290600101906020018083116114df57829003601f168201915b505050505081565b6000600760009054906101000a900473ffffffffffffffffffffffffffffffffffffffff16905090565b60006008600084815260200190815260200160002060000160008373ffffffffffffffffffffffffffffffffffffffff1673ffffffffffffffffffffffffffffffffffffffff16815260200190815260200160002060009054906101000a900460ff16905092915050565b3373ffffffffffffffffffffffffffffffffffffffff166009600083815260200190815260200160002060009054906101000a900473ffffffffffffffffffffffffffffffffffffffff1673ffffffffffffffffffffffffffffffffffffffff161461163a576040517f08c379a00000000000000000000000000000000000000000000000000000000081526004016116319061437b565b60405180910390fd5b81600a828154811061164f5761164e613f9a565b5b906000526020600020906003020160010160006101000a81548160ff0219169083151502179055505050565b60606001805461168a90613d21565b80601f01602080910402602001604051908101604052809291908181526020018280546116b690613d21565b80156117035780601f106116d857610100808354040283529160200191611703565b820191906000526020600020905b8154815290600101906020018083116116e657829003601f168201915b5050505050905090565b6000801b81565b61172661171f611a62565b8383612320565b5050565b7ff1e558ad2d1ae84c04c78952391580ee1aabc290ce5ab9337aaa08da394d328f81565b600e5481565b6000611795576040517f08c379a000000000000000000000000000000000000000000000000000000000815260040161178c906143e7565b60405180910390fd5b50505050565b600d80546117a890613d21565b80601f01602080910402602001604051908101604052809291908181526020018280546117d490613d21565b80156118215780601f106117f657610100808354040283529160200191611821565b820191906000526020600020905b81548152906001019060200180831161180457829003601f168201915b505050505081565b60606118348261248c565b9050919050565b7f9f2df0fed2c77648de5860a4cc508cd0818c85b8b8a1ab4ceeef8d981c8956a681565b61186882610bb3565b61187181611eb1565b61187b83836120b1565b505050565b600f5481565b6000600560008473ffffffffffffffffffffffffffffffffffffffff1673ffffffffffffffffffffffffffffffffffffffff16815260200190815260200160002060008373ffffffffffffffffffffffffffffffffffffffff1673ffffffffffffffffffffffffffffffffffffffff16815260200190815260200160002060009054906101000a900460ff16905092915050565b6119226121dc565b600073ffffffffffffffffffffffffffffffffffffffff168173ffffffffffffffffffffffffffffffffffffffff1603611991576040517f08c379a000000000000000000000000000000000000000000000000000000000815260040161198890614479565b60405180910390fd5b61199a8161225a565b50565b60007f7965db0b000000000000000000000000000000000000000000000000000000007bffffffffffffffffffffffffffffffffffffffffffffffffffffffff1916827bffffffffffffffffffffffffffffffffffffffffffffffffffffffff19161480611a105750611a0f8261259e565b5b9050919050565b611a2081612680565b611a5f576040517f08c379a0000000000000000000000000000000000000000000000000000000008152600401611a56906141a5565b60405180910390fd5b50565b600033905090565b816004600083815260200190815260200160002060006101000a81548173ffffffffffffffffffffffffffffffffffffffff021916908373ffffffffffffffffffffffffffffffffffffffff160217905550808273ffffffffffffffffffffffffffffffffffffffff16611add836110fc565b73ffffffffffffffffffffffffffffffffffffffff167f8c5be1e5ebec7d5bd14f71427d1e84f3dd0314c0f7b2291e5b200ac8c7c3b92560405160405180910390a45050565b600080611b2f836110fc565b90508073ffffffffffffffffffffffffffffffffffffffff168473ffffffffffffffffffffffffffffffffffffffff161480611b715750611b708185611886565b5b80611baf57508373ffffffffffffffffffffffffffffffffffffffff16611b97846109d2565b73ffffffffffffffffffffffffffffffffffffffff16145b91505092915050565b8273ffffffffffffffffffffffffffffffffffffffff16611bd8826110fc565b73ffffffffffffffffffffffffffffffffffffffff1614611c2e576040517f08c379a0000000000000000000000000000000000000000000000000000000008152600401611c259061450b565b60405180910390fd5b600073ffffffffffffffffffffffffffffffffffffffff168273ffffffffffffffffffffffffffffffffffffffff1603611c9d576040517f08c379a0000000000000000000000000000000000000000000000000000000008152600401611c949061459d565b60405180910390fd5b611caa83838360016126c1565b8273ffffffffffffffffffffffffffffffffffffffff16611cca826110fc565b73ffffffffffffffffffffffffffffffffffffffff1614611d20576040517f08c379a0000000000000000000000000000000000000000000000000000000008152600401611d179061450b565b60405180910390fd5b6004600082815260200190815260200160002060006101000a81549073ffffffffffffffffffffffffffffffffffffffff02191690556001600360008573ffffffffffffffffffffffffffffffffffffffff1673ffffffffffffffffffffffffffffffffffffffff168152602001908152602001600020600082825403925050819055506001600360008473ffffffffffffffffffffffffffffffffffffffff1673ffffffffffffffffffffffffffffffffffffffff16815260200190815260200160002060008282540192505081905550816002600083815260200190815260200160002060006101000a81548173ffffffffffffffffffffffffffffffffffffffff021916908373ffffffffffffffffffffffffffffffffffffffff160217905550808273ffffffffffffffffffffffffffffffffffffffff168473ffffffffffffffffffffffffffffffffffffffff167fddf252ad1be2c89b69c2b068fc378daa952ba7f163c4a11628f55a4df523b3ef60405160405180910390a4611eac83838360016127e7565b505050565b611ec281611ebd611a62565b6127ed565b50565b611ed0848484611bb8565b611edc84848484612872565b611f1b576040517f08c379a0000000000000000000000000000000000000000000000000000000008152600401611f129061462f565b60405180910390fd5b50505050565b600081600001549050919050565b6001816000016000828254019250508190555050565b611f5f8282604051806020016040528060008152506129f9565b5050565b611f6c82612680565b611fab576040517f08c379a0000000000000000000000000000000000000000000000000000000008152600401611fa2906146c1565b60405180910390fd5b80600660008481526020019081526020016000209081611fcb919061488d565b505050565b611fda828261152e565b6120ad5760016008600084815260200190815260200160002060000160008373ffffffffffffffffffffffffffffffffffffffff1673ffffffffffffffffffffffffffffffffffffffff16815260200190815260200160002060006101000a81548160ff021916908315150217905550612052611a62565b73ffffffffffffffffffffffffffffffffffffffff168173ffffffffffffffffffffffffffffffffffffffff16837f2f8788117e7eff1d82e926ec794901d17c78024a50270940304540a733656f0d60405160405180910390a45b5050565b6120bb828261152e565b1561218f5760006008600084815260200190815260200160002060000160008373ffffffffffffffffffffffffffffffffffffffff1673ffffffffffffffffffffffffffffffffffffffff16815260200190815260200160002060006101000a81548160ff021916908315150217905550612134611a62565b73ffffffffffffffffffffffffffffffffffffffff168173ffffffffffffffffffffffffffffffffffffffff16837ff6391f5c32d9c69d2a47ea670b442974b53935d1edc7fd64eb21e047a839171b60405160405180910390a45b5050565b61219c81612a54565b50565b60006002600083815260200190815260200160002060009054906101000a900473ffffffffffffffffffffffffffffffffffffffff169050919050565b6121e4611a62565b73ffffffffffffffffffffffffffffffffffffffff16612202611504565b73ffffffffffffffffffffffffffffffffffffffff1614612258576040517f08c379a000000000000000000000000000000000000000000000000000000000815260040161224f906149ab565b60405180910390fd5b565b6000600760009054906101000a900473ffffffffffffffffffffffffffffffffffffffff16905081600760006101000a81548173ffffffffffffffffffffffffffffffffffffffff021916908373ffffffffffffffffffffffffffffffffffffffff1602179055508173ffffffffffffffffffffffffffffffffffffffff168173ffffffffffffffffffffffffffffffffffffffff167f8be0079c531659141344cd1fd0a4f28419497f9722a3daafe3b4186f6b6457e060405160405180910390a35050565b8173ffffffffffffffffffffffffffffffffffffffff168373ffffffffffffffffffffffffffffffffffffffff160361238e576040517f08c379a000000000000000000000000000000000000000000000000000000000815260040161238590614a17565b60405180910390fd5b80600560008573ffffffffffffffffffffffffffffffffffffffff1673ffffffffffffffffffffffffffffffffffffffff16815260200190815260200160002060008473ffffffffffffffffffffffffffffffffffffffff1673ffffffffffffffffffffffffffffffffffffffff16815260200190815260200160002060006101000a81548160ff0219169083151502179055508173ffffffffffffffffffffffffffffffffffffffff168373ffffffffffffffffffffffffffffffffffffffff167f17307eab39ab6107e8899845ad3d59bd9653f200f220920489ca2b5937696c318360405161247f91906134b9565b60405180910390a3505050565b606061249782611a17565b60006006600084815260200190815260200160002080546124b790613d21565b80601f01602080910402602001604051908101604052809291908181526020018280546124e390613d21565b80156125305780601f1061250557610100808354040283529160200191612530565b820191906000526020600020905b81548152906001019060200180831161251357829003601f168201915b505050505090506000612541612aa7565b90506000815103612556578192505050612599565b60008251111561258b578082604051602001612573929190614a73565b60405160208183030381529060405292505050612599565b61259484612abe565b925050505b919050565b60007f80ac58cd000000000000000000000000000000000000000000000000000000007bffffffffffffffffffffffffffffffffffffffffffffffffffffffff1916827bffffffffffffffffffffffffffffffffffffffffffffffffffffffff1916148061266957507f5b5e139f000000000000000000000000000000000000000000000000000000007bffffffffffffffffffffffffffffffffffffffffffffffffffffffff1916827bffffffffffffffffffffffffffffffffffffffffffffffffffffffff1916145b80612679575061267882612b26565b5b9050919050565b60008073ffffffffffffffffffffffffffffffffffffffff166126a28361219f565b73ffffffffffffffffffffffffffffffffffffffff1614159050919050565b60018111156127e157600073ffffffffffffffffffffffffffffffffffffffff168473ffffffffffffffffffffffffffffffffffffffff16146127555780600360008673ffffffffffffffffffffffffffffffffffffffff1673ffffffffffffffffffffffffffffffffffffffff168152602001908152602001600020600082825461274d9190614ac6565b925050819055505b600073ffffffffffffffffffffffffffffffffffffffff168373ffffffffffffffffffffffffffffffffffffffff16146127e05780600360008573ffffffffffffffffffffffffffffffffffffffff1673ffffffffffffffffffffffffffffffffffffffff16815260200190815260200160002060008282546127d89190614afa565b925050819055505b5b50505050565b50505050565b6127f7828261152e565b61286e5761280481612b90565b6128128360001c6020612bbd565b604051602001612823929190614bc6565b6040516020818303038152906040526040517f08c379a00000000000000000000000000000000000000000000000000000000081526004016128659190613564565b60405180910390fd5b5050565b60006128938473ffffffffffffffffffffffffffffffffffffffff16612df9565b156129ec578373ffffffffffffffffffffffffffffffffffffffff1663150b7a026128bc611a62565b8786866040518563ffffffff1660e01b81526004016128de9493929190614c55565b6020604051808303816000875af192505050801561291a57506040513d601f19601f820116820180604052508101906129179190614cb6565b60015b61299c573d806000811461294a576040519150601f19603f3d011682016040523d82523d6000602084013e61294f565b606091505b506000815103612994576040517f08c379a000000000000000000000000000000000000000000000000000000000815260040161298b9061462f565b60405180910390fd5b805181602001fd5b63150b7a0260e01b7bffffffffffffffffffffffffffffffffffffffffffffffffffffffff1916817bffffffffffffffffffffffffffffffffffffffffffffffffffffffff1916149150506129f1565b600190505b949350505050565b612a038383612e1c565b612a106000848484612872565b612a4f576040517f08c379a0000000000000000000000000000000000000000000000000000000008152600401612a469061462f565b60405180910390fd5b505050565b612a5d81613039565b6000600660008381526020019081526020016000208054612a7d90613d21565b905014612aa457600660008281526020019081526020016000206000612aa391906133a8565b5b50565b606060405180602001604052806000815250905090565b6060612ac982611a17565b6000612ad3612aa7565b90506000815111612af35760405180602001604052806000815250612b1e565b80612afd84613187565b604051602001612b0e929190614a73565b6040516020818303038152906040525b915050919050565b60007f01ffc9a7000000000000000000000000000000000000000000000000000000007bffffffffffffffffffffffffffffffffffffffffffffffffffffffff1916827bffffffffffffffffffffffffffffffffffffffffffffffffffffffff1916149050919050565b6060612bb68273ffffffffffffffffffffffffffffffffffffffff16601460ff16612bbd565b9050919050565b606060006002836002612bd09190614ce3565b612bda9190614afa565b67ffffffffffffffff811115612bf357612bf261379b565b5b6040519080825280601f01601f191660200182016040528015612c255781602001600182028036833780820191505090505b5090507f300000000000000000000000000000000000000000000000000000000000000081600081518110612c5d57612c5c613f9a565b5b60200101907effffffffffffffffffffffffffffffffffffffffffffffffffffffffffffff1916908160001a9053507f780000000000000000000000000000000000000000000000000000000000000081600181518110612cc157612cc0613f9a565b5b60200101907effffffffffffffffffffffffffffffffffffffffffffffffffffffffffffff1916908160001a90535060006001846002612d019190614ce3565b612d0b9190614afa565b90505b6001811115612dab577f3031323334353637383961626364656600000000000000000000000000000000600f861660108110612d4d57612d4c613f9a565b5b1a60f81b828281518110612d6457612d63613f9a565b5b60200101907effffffffffffffffffffffffffffffffffffffffffffffffffffffffffffff1916908160001a905350600485901c945080612da490614d25565b9050612d0e565b5060008414612def576040517f08c379a0000000000000000000000000000000000000000000000000000000008152600401612de690614d9a565b60405180910390fd5b8091505092915050565b6000808273ffffffffffffffffffffffffffffffffffffffff163b119050919050565b600073ffffffffffffffffffffffffffffffffffffffff168273ffffffffffffffffffffffffffffffffffffffff1603612e8b576040517f08c379a0000000000000000000000000000000000000000000000000000000008152600401612e8290614e06565b60405180910390fd5b612e9481612680565b15612ed4576040517f08c379a0000000000000000000000000000000000000000000000000000000008152600401612ecb90614e72565b60405180910390fd5b612ee26000838360016126c1565b612eeb81612680565b15612f2b576040517f08c379a0000000000000000000000000000000000000000000000000000000008152600401612f2290614e72565b60405180910390fd5b6001600360008473ffffffffffffffffffffffffffffffffffffffff1673ffffffffffffffffffffffffffffffffffffffff16815260200190815260200160002060008282540192505081905550816002600083815260200190815260200160002060006101000a81548173ffffffffffffffffffffffffffffffffffffffff021916908373ffffffffffffffffffffffffffffffffffffffff160217905550808273ffffffffffffffffffffffffffffffffffffffff16600073ffffffffffffffffffffffffffffffffffffffff167fddf252ad1be2c89b69c2b068fc378daa952ba7f163c4a11628f55a4df523b3ef60405160405180910390a46130356000838360016127e7565b5050565b6000613044826110fc565b90506130548160008460016126c1565b61305d826110fc565b90506004600083815260200190815260200160002060006101000a81549073ffffffffffffffffffffffffffffffffffffffff02191690556001600360008373ffffffffffffffffffffffffffffffffffffffff1673ffffffffffffffffffffffffffffffffffffffff168152602001908152602001600020600082825403925050819055506002600083815260200190815260200160002060006101000a81549073ffffffffffffffffffffffffffffffffffffffff021916905581600073ffffffffffffffffffffffffffffffffffffffff168273ffffffffffffffffffffffffffffffffffffffff167fddf252ad1be2c89b69c2b068fc378daa952ba7f163c4a11628f55a4df523b3ef60405160405180910390a46131838160008460016127e7565b5050565b60606000600161319684613255565b01905060008167ffffffffffffffff8111156131b5576131b461379b565b5b6040519080825280601f01601f1916602001820160405280156131e75781602001600182028036833780820191505090505b509050600082602001820190505b60011561324a578080600190039150507f3031323334353637383961626364656600000000000000000000000000000000600a86061a8153600a858161323e5761323d614e92565b5b049450600085036131f5575b819350505050919050565b600080600090507a184f03e93ff9f4daa797ed6e38ed64bf6a1f01000000000000000083106132b3577a184f03e93ff9f4daa797ed6e38ed64bf6a1f01000000000000000083816132a9576132a8614e92565b5b0492506040810190505b6d04ee2d6d415b85acef810000000083106132f0576d04ee2d6d415b85acef810000000083816132e6576132e5614e92565b5b0492506020810190505b662386f26fc10000831061331f57662386f26fc10000838161331557613314614e92565b5b0492506010810190505b6305f5e1008310613348576305f5e100838161333e5761333d614e92565b5b0492506008810190505b612710831061336d57612710838161336357613362614e92565b5b0492506004810190505b60648310613390576064838161338657613385614e92565b5b0492506002810190505b600a831061339f576001810190505b80915050919050565b5080546133b490613d21565b6000825580601f106133c657506133e5565b601f0160209004906000526020600020908101906133e491906133e8565b5b50565b5b808211156134015760008160009055506001016133e9565b5090565b6000604051905090565b600080fd5b600080fd5b60007fffffffff0000000000000000000000000000000000000000000000000000000082169050919050565b61344e81613419565b811461345957600080fd5b50565b60008135905061346b81613445565b92915050565b6000602082840312156134875761348661340f565b5b60006134958482850161345c565b91505092915050565b60008115159050919050565b6134b38161349e565b82525050565b60006020820190506134ce60008301846134aa565b92915050565b600081519050919050565b600082825260208201905092915050565b60005b8381101561350e5780820151818401526020810190506134f3565b60008484015250505050565b6000601f19601f8301169050919050565b6000613536826134d4565b61354081856134df565b93506135508185602086016134f0565b6135598161351a565b840191505092915050565b6000602082019050818103600083015261357e818461352b565b905092915050565b6000819050919050565b61359981613586565b81146135a457600080fd5b50565b6000813590506135b681613590565b92915050565b6000602082840312156135d2576135d161340f565b5b60006135e0848285016135a7565b91505092915050565b600073ffffffffffffffffffffffffffffffffffffffff82169050919050565b6000613614826135e9565b9050919050565b61362481613609565b82525050565b600060208201905061363f600083018461361b565b92915050565b61364e81613609565b811461365957600080fd5b50565b60008135905061366b81613645565b92915050565b600080604083850312156136885761368761340f565b5b60006136968582860161365c565b92505060206136a7858286016135a7565b9150509250929050565b6000819050919050565b6136c4816136b1565b82525050565b60006020820190506136df60008301846136bb565b92915050565b6000806000606084860312156136fe576136fd61340f565b5b600061370c8682870161365c565b935050602061371d8682870161365c565b925050604061372e868287016135a7565b9150509250925092565b613741816136b1565b811461374c57600080fd5b50565b60008135905061375e81613738565b92915050565b60006020828403121561377a5761377961340f565b5b60006137888482850161374f565b91505092915050565b600080fd5b600080fd5b7f4e487b7100000000000000000000000000000000000000000000000000000000600052604160045260246000fd5b6137d38261351a565b810181811067ffffffffffffffff821117156137f2576137f161379b565b5b80604052505050565b6000613805613405565b905061381182826137ca565b919050565b600067ffffffffffffffff8211156138315761383061379b565b5b61383a8261351a565b9050602081019050919050565b82818337600083830152505050565b600061386961386484613816565b6137fb565b90508281526020810184848401111561388557613884613796565b5b613890848285613847565b509392505050565b600082601f8301126138ad576138ac613791565b5b81356138bd848260208601613856565b91505092915050565b6000806000606084860312156138df576138de61340f565b5b60006138ed8682870161365c565b93505060206138fe868287016135a7565b925050604084013567ffffffffffffffff81111561391f5761391e613414565b5b61392b86828701613898565b9150509250925092565b600067ffffffffffffffff8211156139505761394f61379b565b5b6139598261351a565b9050602081019050919050565b600061397961397484613935565b6137fb565b90508281526020810184848401111561399557613994613796565b5b6139a0848285613847565b509392505050565b600082601f8301126139bd576139bc613791565b5b81356139cd848260208601613966565b91505092915050565b600080600080608085870312156139f0576139ef61340f565b5b60006139fe8782880161365c565b945050602085013567ffffffffffffffff811115613a1f57613a1e613414565b5b613a2b878288016139a8565b9350506040613a3c878288016135a7565b9250506060613a4d878288016135a7565b91505092959194509250565b60008060408385031215613a7057613a6f61340f565b5b6000613a7e8582860161374f565b9250506020613a8f8582860161365c565b9150509250929050565b613aa281613586565b82525050565b6000606082019050613abd6000830186613a99565b613aca60208301856134aa565b613ad76040830184613a99565b949350505050565b600060208284031215613af557613af461340f565b5b6000613b038482850161365c565b91505092915050565b6000602082019050613b216000830184613a99565b92915050565b60008060408385031215613b3e57613b3d61340f565b5b6000613b4c858286016135a7565b925050602083013567ffffffffffffffff811115613b6d57613b6c613414565b5b613b7985828601613898565b9150509250929050565b613b8c8161349e565b8114613b9757600080fd5b50565b600081359050613ba981613b83565b92915050565b60008060408385031215613bc657613bc561340f565b5b6000613bd485828601613b9a565b9250506020613be5858286016135a7565b9150509250929050565b60008060408385031215613c0657613c0561340f565b5b6000613c148582860161365c565b9250506020613c2585828601613b9a565b9150509250929050565b60008060008060808587031215613c4957613c4861340f565b5b6000613c578782880161365c565b9450506020613c688782880161365c565b9350506040613c79878288016135a7565b925050606085013567ffffffffffffffff811115613c9a57613c99613414565b5b613ca687828801613898565b91505092959194509250565b60008060408385031215613cc957613cc861340f565b5b6000613cd78582860161365c565b9250506020613ce88582860161365c565b9150509250929050565b7f4e487b7100000000000000000000000000000000000000000000000000000000600052602260045260246000fd5b60006002820490506001821680613d3957607f821691505b602082108103613d4c57613d4b613cf2565b5b50919050565b7f4552433732313a20617070726f76616c20746f2063757272656e74206f776e6560008201527f7200000000000000000000000000000000000000000000000000000000000000602082015250565b6000613dae6021836134df565b9150613db982613d52565b604082019050919050565b60006020820190508181036000830152613ddd81613da1565b9050919050565b7f4552433732313a20617070726f76652063616c6c6572206973206e6f7420746f60008201527f6b656e206f776e6572206f7220617070726f76656420666f7220616c6c000000602082015250565b6000613e40603d836134df565b9150613e4b82613de4565b604082019050919050565b60006020820190508181036000830152613e6f81613e33565b9050919050565b7f4552433732313a2063616c6c6572206973206e6f7420746f6b656e206f776e6560008201527f72206f7220617070726f76656400000000000000000000000000000000000000602082015250565b6000613ed2602d836134df565b9150613edd82613e76565b604082019050919050565b60006020820190508181036000830152613f0181613ec5565b9050919050565b7f43616e6e6f7420757365207469636b65742061742061646472657373206f746860008201527f6572207468616e20676174650000000000000000000000000000000000000000602082015250565b6000613f64602c836134df565b9150613f6f82613f08565b604082019050919050565b60006020820190508181036000830152613f9381613f57565b9050919050565b7f4e487b7100000000000000000000000000000000000000000000000000000000600052603260045260246000fd5b7f5469636b657420666f722073616c650000000000000000000000000000000000600082015250565b6000613fff600f836134df565b915061400a82613fc9565b602082019050919050565b6000602082019050818103600083015261402e81613ff2565b9050919050565b7f43616e6e6f74206d696e7420746f206163636f756e74206e6f74206f776e656460008201527f2062792047454100000000000000000000000000000000000000000000000000602082015250565b60006140916027836134df565b915061409c82614035565b604082019050919050565b600060208201905081810360008301526140c081614084565b9050919050565b7f416363657373436f6e74726f6c3a2063616e206f6e6c792072656e6f756e636560008201527f20726f6c657320666f722073656c660000000000000000000000000000000000602082015250565b6000614123602f836134df565b915061412e826140c7565b604082019050919050565b6000602082019050818103600083015261415281614116565b9050919050565b7f4552433732313a20696e76616c696420746f6b656e2049440000000000000000600082015250565b600061418f6018836134df565b915061419a82614159565b602082019050919050565b600060208201905081810360008301526141be81614182565b9050919050565b7f4552433732313a2061646472657373207a65726f206973206e6f74206120766160008201527f6c6964206f776e65720000000000000000000000000000000000000000000000602082015250565b60006142216029836134df565b915061422c826141c5565b604082019050919050565b6000602082019050818103600083015261425081614214565b9050919050565b7f5469636b6574206e6f7420666f722073616c6500000000000000000000000000600082015250565b600061428d6013836134df565b915061429882614257565b602082019050919050565b600060208201905081810360008301526142bc81614280565b9050919050565b7f496e636f72726563742070726963650000000000000000000000000000000000600082015250565b60006142f9600f836134df565b9150614304826142c3565b602082019050919050565b60006020820190508181036000830152614328816142ec565b9050919050565b7f4e6f207469636b6574206f776e65720000000000000000000000000000000000600082015250565b6000614365600f836134df565b91506143708261432f565b602082019050919050565b6000602082019050818103600083015261439481614358565b9050919050565b7f43616e6e6f74207472616e736665722c2063616e206f6e6c792073656c6c0000600082015250565b60006143d1601e836134df565b91506143dc8261439b565b602082019050919050565b60006020820190508181036000830152614400816143c4565b9050919050565b7f4f776e61626c653a206e6577206f776e657220697320746865207a65726f206160008201527f6464726573730000000000000000000000000000000000000000000000000000602082015250565b60006144636026836134df565b915061446e82614407565b604082019050919050565b6000602082019050818103600083015261449281614456565b9050919050565b7f4552433732313a207472616e736665722066726f6d20696e636f72726563742060008201527f6f776e6572000000000000000000000000000000000000000000000000000000602082015250565b60006144f56025836134df565b915061450082614499565b604082019050919050565b60006020820190508181036000830152614524816144e8565b9050919050565b7f4552433732313a207472616e7366657220746f20746865207a65726f2061646460008201527f7265737300000000000000000000000000000000000000000000000000000000602082015250565b60006145876024836134df565b91506145928261452b565b604082019050919050565b600060208201905081810360008301526145b68161457a565b9050919050565b7f4552433732313a207472616e7366657220746f206e6f6e20455243373231526560008201527f63656976657220696d706c656d656e7465720000000000000000000000000000602082015250565b60006146196032836134df565b9150614624826145bd565b604082019050919050565b600060208201905081810360008301526146488161460c565b9050919050565b7f45524337323155524953746f726167653a2055524920736574206f66206e6f6e60008201527f6578697374656e7420746f6b656e000000000000000000000000000000000000602082015250565b60006146ab602e836134df565b91506146b68261464f565b604082019050919050565b600060208201905081810360008301526146da8161469e565b9050919050565b60008190508160005260206000209050919050565b60006020601f8301049050919050565b600082821b905092915050565b6000600883026147437fffffffffffffffffffffffffffffffffffffffffffffffffffffffffffffffff82614706565b61474d8683614706565b95508019841693508086168417925050509392505050565b6000819050919050565b600061478a61478561478084613586565b614765565b613586565b9050919050565b6000819050919050565b6147a48361476f565b6147b86147b082614791565b848454614713565b825550505050565b600090565b6147cd6147c0565b6147d881848461479b565b505050565b5b818110156147fc576147f16000826147c5565b6001810190506147de565b5050565b601f82111561484157614812816146e1565b61481b846146f6565b8101602085101561482a578190505b61483e614836856146f6565b8301826147dd565b50505b505050565b600082821c905092915050565b600061486460001984600802614846565b1980831691505092915050565b600061487d8383614853565b9150826002028217905092915050565b614896826134d4565b67ffffffffffffffff8111156148af576148ae61379b565b5b6148b98254613d21565b6148c4828285614800565b600060209050601f8311600181146148f757600084156148e5578287015190505b6148ef8582614871565b865550614957565b601f198416614905866146e1565b60005b8281101561492d57848901518255600182019150602085019450602081019050614908565b8683101561494a5784890151614946601f891682614853565b8355505b6001600288020188555050505b505050505050565b7f4f776e61626c653a2063616c6c6572206973206e6f7420746865206f776e6572600082015250565b60006149956020836134df565b91506149a08261495f565b602082019050919050565b600060208201905081810360008301526149c481614988565b9050919050565b7f4552433732313a20617070726f766520746f2063616c6c657200000000000000600082015250565b6000614a016019836134df565b9150614a0c826149cb565b602082019050919050565b60006020820190508181036000830152614a30816149f4565b9050919050565b600081905092915050565b6000614a4d826134d4565b614a578185614a37565b9350614a678185602086016134f0565b80840191505092915050565b6000614a7f8285614a42565b9150614a8b8284614a42565b91508190509392505050565b7f4e487b7100000000000000000000000000000000000000000000000000000000600052601160045260246000fd5b6000614ad182613586565b9150614adc83613586565b9250828203905081811115614af457614af3614a97565b5b92915050565b6000614b0582613586565b9150614b1083613586565b9250828201905080821115614b2857614b27614a97565b5b92915050565b7f416363657373436f6e74726f6c3a206163636f756e7420000000000000000000600082015250565b6000614b64601783614a37565b9150614b6f82614b2e565b601782019050919050565b7f206973206d697373696e6720726f6c6520000000000000000000000000000000600082015250565b6000614bb0601183614a37565b9150614bbb82614b7a565b601182019050919050565b6000614bd182614b57565b9150614bdd8285614a42565b9150614be882614ba3565b9150614bf48284614a42565b91508190509392505050565b600081519050919050565b600082825260208201905092915050565b6000614c2782614c00565b614c318185614c0b565b9350614c418185602086016134f0565b614c4a8161351a565b840191505092915050565b6000608082019050614c6a600083018761361b565b614c77602083018661361b565b614c846040830185613a99565b8181036060830152614c968184614c1c565b905095945050505050565b600081519050614cb081613445565b92915050565b600060208284031215614ccc57614ccb61340f565b5b6000614cda84828501614ca1565b91505092915050565b6000614cee82613586565b9150614cf983613586565b9250828202614d0781613586565b91508282048414831517614d1e57614d1d614a97565b5b5092915050565b6000614d3082613586565b915060008203614d4357614d42614a97565b5b600182039050919050565b7f537472696e67733a20686578206c656e67746820696e73756666696369656e74600082015250565b6000614d846020836134df565b9150614d8f82614d4e565b602082019050919050565b60006020820190508181036000830152614db381614d77565b9050919050565b7f4552433732313a206d696e7420746f20746865207a65726f2061646472657373600082015250565b6000614df06020836134df565b9150614dfb82614dba565b602082019050919050565b60006020820190508181036000830152614e1f81614de3565b9050919050565b7f4552433732313a20746f6b656e20616c7265616479206d696e74656400000000600082015250565b6000614e5c601c836134df565b9150614e6782614e26565b602082019050919050565b60006020820190508181036000830152614e8b81614e4f565b9050919050565b7f4e487b7100000000000000000000000000000000000000000000000000000000600052601260045260246000fdfea2646970667358221220918c32b261673d231d430d7aa883ef999d193b3af4f217af50f6c240c2076b5364736f6c63430008130033",
  "immutableReferences": {},
  "source": "// SPDX-License-Identifier: MIT\npragma solidity ^0.8.9;\n\nimport \"./node_modules/@openzeppelin/contracts/token/ERC721/ERC721.sol\";\nimport \"./node_modules/@openzeppelin/contracts/token/ERC721/extensions/ERC721Burnable.sol\";\nimport \"./node_modules/@openzeppelin/contracts/access/Ownable.sol\";\nimport \"./node_modules/@openzeppelin/contracts/access/AccessControl.sol\";\nimport \"./node_modules/@openzeppelin/contracts/token/ERC721/extensions/ERC721URIStorage.sol\";\nimport \"./node_modules/@openzeppelin/contracts/utils/Counters.sol\";\nimport \"./node_modules/@openzeppelin/contracts/utils/Strings.sol\";\n\ncontract TicketNFT is ERC721, ERC721Burnable, ERC721URIStorage, Ownable, AccessControl {\n    using Counters for Counters.Counter;\n    mapping (uint256 => address) public ticketIndexToOwner;//Ticket index to owner\n    // Can change minter to array. This will enable multiple accounts to mint\n    bytes32 public constant MINTER_ROLE = keccak256(\"MINTER_ROLE\");//Account who can mint\n    bytes32 public constant VERIFIED_ACCOUNTS = keccak256(\"VERIFIED_ACCOUNTS\");//Accounts that are verified(in our database)\n    bytes32 public constant GEA_ACCOUNTS = keccak256(\"GEA_ACCOUNTS\");//Accounts belonging to GEA\n    bytes32 public constant GATE_ACCOUNTS = keccak256(\"GATE_ACCOUNTS\");//Accounts belonging to Gate\n    Ticket[] public _allTickets;//Array that contains all tickets index is ticket ID\n    //Common for all tickets\n    string public _eventName;\n    string public _eventLocation;\n    string public _eventType;\n    uint256 public _startDate;\n    uint256 public _endDate;\n    Counters.Counter public _tokenIdCounter;\n    struct Ticket{// Specific to individual ticket\n    uint256 _price;// Different categories may have different prices\n    bool _forSale;// If true indicates that any verified account can buy the ticket\n    uint256 _seatNumber;// Each ticket has a different seat number\n    } \n    constructor(string memory name, string memory symbol,string memory eventLocation,string memory eventType,\n     uint256 startDate, uint256 endDate) ERC721(name, symbol){\n        _setupRole(DEFAULT_ADMIN_ROLE, msg.sender);\n        _eventLocation = eventLocation;\n        _eventType = eventType;\n        _startDate = startDate;\n        _endDate = endDate;\n    } \n\n    event ValueLogged(uint256 value);\n\n    function safeMint(address to, string memory uri, uint256 price, uint256 seatNumber) public onlyRole(MINTER_ROLE) {\n        require(hasRole(GEA_ACCOUNTS, to), \"Cannot mint to account not owned by GEA\");\n        uint256 tokenId = _tokenIdCounter.current();\n        _allTickets.push(Ticket(price,true,seatNumber));// Add new ticket to array of tickets(true because it is originally with GEA who want to sell immidiatly)\n        _tokenIdCounter.increment();//Increment counter\n        _safeMint(to, tokenId);// Mint ticket\n        ticketIndexToOwner[tokenId] = to;\n        _setTokenURI(tokenId, uri);// URI will hold metadata such as image\n    }\n    //Function to buy ticket\n    function buy(\n        uint256 tokenId,\n        bytes memory data)public payable onlyRole(VERIFIED_ACCOUNTS){\n            require(_allTickets[tokenId]._forSale == true,\"Ticket not for sale\");\n            require(msg.value == _allTickets[tokenId]._price, \"Incorrect price\");\n\n            // Emit an event that logs the value of msg.value\n            emit ValueLogged(msg.value);\n\n            super._safeTransfer(ownerOf(tokenId),msg.sender,tokenId, data);\n            ticketIndexToOwner[tokenId] = msg.sender;//Ticket is now owned by sender\n            _allTickets[tokenId]._forSale = false;//Ticket no longer for sale once transfered to new owner\n        }\n    //Function to either enable or disable sale of ticket\n    function sale(bool option,uint256 tokenId) public {\n        require(ticketIndexToOwner[tokenId]==msg.sender,\"No ticket owner\");\n        _allTickets[tokenId]._forSale = option;\n    }\n\n    //Function to use ticket at gate\n    function useTicket(address to,\n        uint256 tokenId,\n        bytes memory data)public payable onlyRole(VERIFIED_ACCOUNTS){\n            require(hasRole(GATE_ACCOUNTS, to), \"Cannot use ticket at address other than gate\");\n            require(_allTickets[tokenId]._forSale == false,\"Ticket for sale\");\n            super._safeTransfer(ownerOf(tokenId),to,tokenId, data);\n            ticketIndexToOwner[tokenId] = to;//Ticket is now owned by gate\n        }\n\n    function safeTransferFrom(\n        address from,\n        address to,\n        uint256 tokenId,\n        bytes memory data\n    ) public virtual override {\n        require(false,\"Cannot transfer, can only sell\");\n    }\n    // Overrides reequired by solidity\n     function _burn(uint256 tokenId) internal override(ERC721, ERC721URIStorage) {\n        super._burn(tokenId);\n    }\n\n    function tokenURI(uint256 tokenId)\n        public\n        view\n        override(ERC721, ERC721URIStorage)\n        returns (string memory)\n    {\n        return super.tokenURI(tokenId);\n    }\n    function supportsInterface(bytes4 interfaceId)\n        public\n        view\n        override(ERC721, AccessControl)\n        returns (bool)\n    {\n        return super.supportsInterface(interfaceId);\n    }\n}",
  "sourcePath": "/Users/Faisal/Desktop/Capstone/Immutable-Ticketing/truffle/contracts/TicketNFT.sol",
  "compiler": {
    "name": "solc",
    "version": "0.8.19+commit.7dd6d404.Emscripten.clang"
  },
  "schemaVersion": "3.4.13",
  "updatedAt": "2023-04-16T02:24:48.067Z",
  "networkType": "ethereum",
  "devdoc": {
    "events": {
      "Approval(address,address,uint256)": {
        "details": "Emitted when `owner` enables `approved` to manage the `tokenId` token."
      },
      "ApprovalForAll(address,address,bool)": {
        "details": "Emitted when `owner` enables or disables (`approved`) `operator` to manage all of its assets."
      },
      "RoleAdminChanged(bytes32,bytes32,bytes32)": {
        "details": "Emitted when `newAdminRole` is set as ``role``'s admin role, replacing `previousAdminRole` `DEFAULT_ADMIN_ROLE` is the starting admin for all roles, despite {RoleAdminChanged} not being emitted signaling this. _Available since v3.1._"
      },
      "RoleGranted(bytes32,address,address)": {
        "details": "Emitted when `account` is granted `role`. `sender` is the account that originated the contract call, an admin role bearer except when using {AccessControl-_setupRole}."
      },
      "RoleRevoked(bytes32,address,address)": {
        "details": "Emitted when `account` is revoked `role`. `sender` is the account that originated the contract call:   - if using `revokeRole`, it is the admin role bearer   - if using `renounceRole`, it is the role bearer (i.e. `account`)"
      },
      "Transfer(address,address,uint256)": {
        "details": "Emitted when `tokenId` token is transferred from `from` to `to`."
      }
    },
    "kind": "dev",
    "methods": {
      "approve(address,uint256)": {
        "details": "See {IERC721-approve}."
      },
      "balanceOf(address)": {
        "details": "See {IERC721-balanceOf}."
      },
      "burn(uint256)": {
        "details": "Burns `tokenId`. See {ERC721-_burn}. Requirements: - The caller must own `tokenId` or be an approved operator."
      },
      "getApproved(uint256)": {
        "details": "See {IERC721-getApproved}."
      },
      "getRoleAdmin(bytes32)": {
        "details": "Returns the admin role that controls `role`. See {grantRole} and {revokeRole}. To change a role's admin, use {_setRoleAdmin}."
      },
      "grantRole(bytes32,address)": {
        "details": "Grants `role` to `account`. If `account` had not been already granted `role`, emits a {RoleGranted} event. Requirements: - the caller must have ``role``'s admin role. May emit a {RoleGranted} event."
      },
      "hasRole(bytes32,address)": {
        "details": "Returns `true` if `account` has been granted `role`."
      },
      "isApprovedForAll(address,address)": {
        "details": "See {IERC721-isApprovedForAll}."
      },
      "name()": {
        "details": "See {IERC721Metadata-name}."
      },
      "owner()": {
        "details": "Returns the address of the current owner."
      },
      "ownerOf(uint256)": {
        "details": "See {IERC721-ownerOf}."
      },
      "renounceOwnership()": {
        "details": "Leaves the contract without owner. It will not be possible to call `onlyOwner` functions anymore. Can only be called by the current owner. NOTE: Renouncing ownership will leave the contract without an owner, thereby removing any functionality that is only available to the owner."
      },
      "renounceRole(bytes32,address)": {
        "details": "Revokes `role` from the calling account. Roles are often managed via {grantRole} and {revokeRole}: this function's purpose is to provide a mechanism for accounts to lose their privileges if they are compromised (such as when a trusted device is misplaced). If the calling account had been revoked `role`, emits a {RoleRevoked} event. Requirements: - the caller must be `account`. May emit a {RoleRevoked} event."
      },
      "revokeRole(bytes32,address)": {
        "details": "Revokes `role` from `account`. If `account` had been granted `role`, emits a {RoleRevoked} event. Requirements: - the caller must have ``role``'s admin role. May emit a {RoleRevoked} event."
      },
      "safeTransferFrom(address,address,uint256)": {
        "details": "See {IERC721-safeTransferFrom}."
      },
      "safeTransferFrom(address,address,uint256,bytes)": {
        "details": "See {IERC721-safeTransferFrom}."
      },
      "setApprovalForAll(address,bool)": {
        "details": "See {IERC721-setApprovalForAll}."
      },
      "symbol()": {
        "details": "See {IERC721Metadata-symbol}."
      },
      "transferFrom(address,address,uint256)": {
        "details": "See {IERC721-transferFrom}."
      },
      "transferOwnership(address)": {
        "details": "Transfers ownership of the contract to a new account (`newOwner`). Can only be called by the current owner."
      }
    },
    "version": 1
  },
  "userdoc": {
    "kind": "user",
    "methods": {},
    "version": 1
  }
}