{
  "contractName": "TicketNFT",
  "abi": [
    {
      "inputs": [
        {
          "internalType": "string",
          "name": "name",
          "type": "string"
        },
        {
          "internalType": "string",
          "name": "symbol",
          "type": "string"
        },
        {
          "internalType": "string",
          "name": "eventLocation",
          "type": "string"
        },
        {
          "internalType": "string",
          "name": "eventType",
          "type": "string"
        },
        {
          "internalType": "uint256",
          "name": "startDate",
          "type": "uint256"
        },
        {
          "internalType": "uint256",
          "name": "endDate",
          "type": "uint256"
        }
      ],
      "stateMutability": "nonpayable",
      "type": "constructor"
    },
    {
      "anonymous": false,
      "inputs": [
        {
          "indexed": true,
          "internalType": "address",
          "name": "owner",
          "type": "address"
        },
        {
          "indexed": true,
          "internalType": "address",
          "name": "approved",
          "type": "address"
        },
        {
          "indexed": true,
          "internalType": "uint256",
          "name": "tokenId",
          "type": "uint256"
        }
      ],
      "name": "Approval",
      "type": "event"
    },
    {
      "anonymous": false,
      "inputs": [
        {
          "indexed": true,
          "internalType": "address",
          "name": "owner",
          "type": "address"
        },
        {
          "indexed": true,
          "internalType": "address",
          "name": "operator",
          "type": "address"
        },
        {
          "indexed": false,
          "internalType": "bool",
          "name": "approved",
          "type": "bool"
        }
      ],
      "name": "ApprovalForAll",
      "type": "event"
    },
    {
      "anonymous": false,
      "inputs": [
        {
          "indexed": true,
          "internalType": "address",
          "name": "previousOwner",
          "type": "address"
        },
        {
          "indexed": true,
          "internalType": "address",
          "name": "newOwner",
          "type": "address"
        }
      ],
      "name": "OwnershipTransferred",
      "type": "event"
    },
    {
      "anonymous": false,
      "inputs": [
        {
          "indexed": true,
          "internalType": "bytes32",
          "name": "role",
          "type": "bytes32"
        },
        {
          "indexed": true,
          "internalType": "bytes32",
          "name": "previousAdminRole",
          "type": "bytes32"
        },
        {
          "indexed": true,
          "internalType": "bytes32",
          "name": "newAdminRole",
          "type": "bytes32"
        }
      ],
      "name": "RoleAdminChanged",
      "type": "event"
    },
    {
      "anonymous": false,
      "inputs": [
        {
          "indexed": true,
          "internalType": "bytes32",
          "name": "role",
          "type": "bytes32"
        },
        {
          "indexed": true,
          "internalType": "address",
          "name": "account",
          "type": "address"
        },
        {
          "indexed": true,
          "internalType": "address",
          "name": "sender",
          "type": "address"
        }
      ],
      "name": "RoleGranted",
      "type": "event"
    },
    {
      "anonymous": false,
      "inputs": [
        {
          "indexed": true,
          "internalType": "bytes32",
          "name": "role",
          "type": "bytes32"
        },
        {
          "indexed": true,
          "internalType": "address",
          "name": "account",
          "type": "address"
        },
        {
          "indexed": true,
          "internalType": "address",
          "name": "sender",
          "type": "address"
        }
      ],
      "name": "RoleRevoked",
      "type": "event"
    },
    {
      "anonymous": false,
      "inputs": [
        {
          "indexed": true,
          "internalType": "address",
          "name": "from",
          "type": "address"
        },
        {
          "indexed": true,
          "internalType": "address",
          "name": "to",
          "type": "address"
        },
        {
          "indexed": true,
          "internalType": "uint256",
          "name": "tokenId",
          "type": "uint256"
        }
      ],
      "name": "Transfer",
      "type": "event"
    },
    {
      "inputs": [],
      "name": "DEFAULT_ADMIN_ROLE",
      "outputs": [
        {
          "internalType": "bytes32",
          "name": "",
          "type": "bytes32"
        }
      ],
      "stateMutability": "view",
      "type": "function",
      "constant": true
    },
    {
      "inputs": [],
      "name": "GEA_ACCOUNTS",
      "outputs": [
        {
          "internalType": "bytes32",
          "name": "",
          "type": "bytes32"
        }
      ],
      "stateMutability": "view",
      "type": "function",
      "constant": true
    },
    {
      "inputs": [],
      "name": "MINTER_ROLE",
      "outputs": [
        {
          "internalType": "bytes32",
          "name": "",
          "type": "bytes32"
        }
      ],
      "stateMutability": "view",
      "type": "function",
      "constant": true
    },
    {
      "inputs": [],
      "name": "VERIFIED_ACCOUNTS",
      "outputs": [
        {
          "internalType": "bytes32",
          "name": "",
          "type": "bytes32"
        }
      ],
      "stateMutability": "view",
      "type": "function",
      "constant": true
    },
    {
      "inputs": [
        {
          "internalType": "uint256",
          "name": "",
          "type": "uint256"
        }
      ],
      "name": "_allTickets",
      "outputs": [
        {
          "internalType": "uint256",
          "name": "_price",
          "type": "uint256"
        },
        {
          "internalType": "bool",
          "name": "_forSale",
          "type": "bool"
        },
        {
          "internalType": "uint256",
          "name": "_seatNumber",
          "type": "uint256"
        }
      ],
      "stateMutability": "view",
      "type": "function",
      "constant": true
    },
    {
      "inputs": [],
      "name": "_endDate",
      "outputs": [
        {
          "internalType": "uint256",
          "name": "",
          "type": "uint256"
        }
      ],
      "stateMutability": "view",
      "type": "function",
      "constant": true
    },
    {
      "inputs": [],
      "name": "_eventLocation",
      "outputs": [
        {
          "internalType": "string",
          "name": "",
          "type": "string"
        }
      ],
      "stateMutability": "view",
      "type": "function",
      "constant": true
    },
    {
      "inputs": [],
      "name": "_eventName",
      "outputs": [
        {
          "internalType": "string",
          "name": "",
          "type": "string"
        }
      ],
      "stateMutability": "view",
      "type": "function",
      "constant": true
    },
    {
      "inputs": [],
      "name": "_eventType",
      "outputs": [
        {
          "internalType": "string",
          "name": "",
          "type": "string"
        }
      ],
      "stateMutability": "view",
      "type": "function",
      "constant": true
    },
    {
      "inputs": [],
      "name": "_startDate",
      "outputs": [
        {
          "internalType": "uint256",
          "name": "",
          "type": "uint256"
        }
      ],
      "stateMutability": "view",
      "type": "function",
      "constant": true
    },
    {
      "inputs": [],
      "name": "_tokenIdCounter",
      "outputs": [
        {
          "internalType": "uint256",
          "name": "_value",
          "type": "uint256"
        }
      ],
      "stateMutability": "view",
      "type": "function",
      "constant": true
    },
    {
      "inputs": [
        {
          "internalType": "address",
          "name": "to",
          "type": "address"
        },
        {
          "internalType": "uint256",
          "name": "tokenId",
          "type": "uint256"
        }
      ],
      "name": "approve",
      "outputs": [],
      "stateMutability": "nonpayable",
      "type": "function"
    },
    {
      "inputs": [
        {
          "internalType": "address",
          "name": "owner",
          "type": "address"
        }
      ],
      "name": "balanceOf",
      "outputs": [
        {
          "internalType": "uint256",
          "name": "",
          "type": "uint256"
        }
      ],
      "stateMutability": "view",
      "type": "function",
      "constant": true
    },
    {
      "inputs": [
        {
          "internalType": "uint256",
          "name": "tokenId",
          "type": "uint256"
        }
      ],
      "name": "burn",
      "outputs": [],
      "stateMutability": "nonpayable",
      "type": "function"
    },
    {
      "inputs": [
        {
          "internalType": "uint256",
          "name": "tokenId",
          "type": "uint256"
        }
      ],
      "name": "getApproved",
      "outputs": [
        {
          "internalType": "address",
          "name": "",
          "type": "address"
        }
      ],
      "stateMutability": "view",
      "type": "function",
      "constant": true
    },
    {
      "inputs": [
        {
          "internalType": "bytes32",
          "name": "role",
          "type": "bytes32"
        }
      ],
      "name": "getRoleAdmin",
      "outputs": [
        {
          "internalType": "bytes32",
          "name": "",
          "type": "bytes32"
        }
      ],
      "stateMutability": "view",
      "type": "function",
      "constant": true
    },
    {
      "inputs": [
        {
          "internalType": "bytes32",
          "name": "role",
          "type": "bytes32"
        },
        {
          "internalType": "address",
          "name": "account",
          "type": "address"
        }
      ],
      "name": "grantRole",
      "outputs": [],
      "stateMutability": "nonpayable",
      "type": "function"
    },
    {
      "inputs": [
        {
          "internalType": "bytes32",
          "name": "role",
          "type": "bytes32"
        },
        {
          "internalType": "address",
          "name": "account",
          "type": "address"
        }
      ],
      "name": "hasRole",
      "outputs": [
        {
          "internalType": "bool",
          "name": "",
          "type": "bool"
        }
      ],
      "stateMutability": "view",
      "type": "function",
      "constant": true
    },
    {
      "inputs": [
        {
          "internalType": "address",
          "name": "owner",
          "type": "address"
        },
        {
          "internalType": "address",
          "name": "operator",
          "type": "address"
        }
      ],
      "name": "isApprovedForAll",
      "outputs": [
        {
          "internalType": "bool",
          "name": "",
          "type": "bool"
        }
      ],
      "stateMutability": "view",
      "type": "function",
      "constant": true
    },
    {
      "inputs": [],
      "name": "name",
      "outputs": [
        {
          "internalType": "string",
          "name": "",
          "type": "string"
        }
      ],
      "stateMutability": "view",
      "type": "function",
      "constant": true
    },
    {
      "inputs": [],
      "name": "owner",
      "outputs": [
        {
          "internalType": "address",
          "name": "",
          "type": "address"
        }
      ],
      "stateMutability": "view",
      "type": "function",
      "constant": true
    },
    {
      "inputs": [
        {
          "internalType": "uint256",
          "name": "tokenId",
          "type": "uint256"
        }
      ],
      "name": "ownerOf",
      "outputs": [
        {
          "internalType": "address",
          "name": "",
          "type": "address"
        }
      ],
      "stateMutability": "view",
      "type": "function",
      "constant": true
    },
    {
      "inputs": [],
      "name": "renounceOwnership",
      "outputs": [],
      "stateMutability": "nonpayable",
      "type": "function"
    },
    {
      "inputs": [
        {
          "internalType": "bytes32",
          "name": "role",
          "type": "bytes32"
        },
        {
          "internalType": "address",
          "name": "account",
          "type": "address"
        }
      ],
      "name": "renounceRole",
      "outputs": [],
      "stateMutability": "nonpayable",
      "type": "function"
    },
    {
      "inputs": [
        {
          "internalType": "bytes32",
          "name": "role",
          "type": "bytes32"
        },
        {
          "internalType": "address",
          "name": "account",
          "type": "address"
        }
      ],
      "name": "revokeRole",
      "outputs": [],
      "stateMutability": "nonpayable",
      "type": "function"
    },
    {
      "inputs": [
        {
          "internalType": "address",
          "name": "operator",
          "type": "address"
        },
        {
          "internalType": "bool",
          "name": "approved",
          "type": "bool"
        }
      ],
      "name": "setApprovalForAll",
      "outputs": [],
      "stateMutability": "nonpayable",
      "type": "function"
    },
    {
      "inputs": [],
      "name": "symbol",
      "outputs": [
        {
          "internalType": "string",
          "name": "",
          "type": "string"
        }
      ],
      "stateMutability": "view",
      "type": "function",
      "constant": true
    },
    {
      "inputs": [
        {
          "internalType": "uint256",
          "name": "",
          "type": "uint256"
        }
      ],
      "name": "ticketIndexToOwner",
      "outputs": [
        {
          "internalType": "address",
          "name": "",
          "type": "address"
        }
      ],
      "stateMutability": "view",
      "type": "function",
      "constant": true
    },
    {
      "inputs": [
        {
          "internalType": "address",
          "name": "from",
          "type": "address"
        },
        {
          "internalType": "address",
          "name": "to",
          "type": "address"
        },
        {
          "internalType": "uint256",
          "name": "tokenId",
          "type": "uint256"
        }
      ],
      "name": "transferFrom",
      "outputs": [],
      "stateMutability": "nonpayable",
      "type": "function"
    },
    {
      "inputs": [
        {
          "internalType": "address",
          "name": "newOwner",
          "type": "address"
        }
      ],
      "name": "transferOwnership",
      "outputs": [],
      "stateMutability": "nonpayable",
      "type": "function"
    },
    {
      "inputs": [
        {
          "internalType": "address",
          "name": "to",
          "type": "address"
        },
        {
          "internalType": "string",
          "name": "uri",
          "type": "string"
        },
        {
          "internalType": "uint256",
          "name": "price",
          "type": "uint256"
        },
        {
          "internalType": "uint256",
          "name": "seatNumber",
          "type": "uint256"
        }
      ],
      "name": "safeMint",
      "outputs": [],
      "stateMutability": "nonpayable",
      "type": "function"
    },
    {
      "inputs": [
        {
          "internalType": "uint256",
          "name": "tokenId",
          "type": "uint256"
        },
        {
          "internalType": "bytes",
          "name": "data",
          "type": "bytes"
        }
      ],
      "name": "buy",
      "outputs": [],
      "stateMutability": "payable",
      "type": "function",
      "payable": true
    },
    {
      "inputs": [
        {
          "internalType": "bool",
          "name": "option",
          "type": "bool"
        },
        {
          "internalType": "uint256",
          "name": "tokenId",
          "type": "uint256"
        }
      ],
      "name": "sale",
      "outputs": [],
      "stateMutability": "nonpayable",
      "type": "function"
    },
    {
      "inputs": [
        {
          "internalType": "address",
          "name": "from",
          "type": "address"
        },
        {
          "internalType": "address",
          "name": "to",
          "type": "address"
        },
        {
          "internalType": "uint256",
          "name": "tokenId",
          "type": "uint256"
        }
      ],
      "name": "safeTransferFrom",
      "outputs": [],
      "stateMutability": "nonpayable",
      "type": "function"
    },
    {
      "inputs": [
        {
          "internalType": "address",
          "name": "from",
          "type": "address"
        },
        {
          "internalType": "address",
          "name": "to",
          "type": "address"
        },
        {
          "internalType": "uint256",
          "name": "tokenId",
          "type": "uint256"
        },
        {
          "internalType": "bytes",
          "name": "data",
          "type": "bytes"
        }
      ],
      "name": "safeTransferFrom",
      "outputs": [],
      "stateMutability": "nonpayable",
      "type": "function"
    },
    {
      "inputs": [
        {
          "internalType": "uint256",
          "name": "tokenId",
          "type": "uint256"
        }
      ],
      "name": "tokenURI",
      "outputs": [
        {
          "internalType": "string",
          "name": "",
          "type": "string"
        }
      ],
      "stateMutability": "view",
      "type": "function",
      "constant": true
    },
    {
      "inputs": [
        {
          "internalType": "bytes4",
          "name": "interfaceId",
          "type": "bytes4"
        }
      ],
      "name": "supportsInterface",
      "outputs": [
        {
          "internalType": "bool",
          "name": "",
          "type": "bool"
        }
      ],
      "stateMutability": "view",
      "type": "function",
      "constant": true
    }
  ],
  "bytecode": "0x60806040523480156200001157600080fd5b506040516200548b3803806200548b8339818101604052810190620000379190620004e1565b858581600090816200004a91906200083a565b5080600190816200005c91906200083a565b5050506200007f62000073620000d260201b60201c565b620000da60201b60201c565b620000946000801b33620001a060201b60201c565b83600c9081620000a591906200083a565b5082600d9081620000b791906200083a565b5081600e8190555080600f8190555050505050505062000921565b600033905090565b6000600760009054906101000a900473ffffffffffffffffffffffffffffffffffffffff16905081600760006101000a81548173ffffffffffffffffffffffffffffffffffffffff021916908373ffffffffffffffffffffffffffffffffffffffff1602179055508173ffffffffffffffffffffffffffffffffffffffff168173ffffffffffffffffffffffffffffffffffffffff167f8be0079c531659141344cd1fd0a4f28419497f9722a3daafe3b4186f6b6457e060405160405180910390a35050565b620001b28282620001b660201b60201c565b5050565b620001c88282620002a860201b60201c565b620002a45760016008600084815260200190815260200160002060000160008373ffffffffffffffffffffffffffffffffffffffff1673ffffffffffffffffffffffffffffffffffffffff16815260200190815260200160002060006101000a81548160ff02191690831515021790555062000249620000d260201b60201c565b73ffffffffffffffffffffffffffffffffffffffff168173ffffffffffffffffffffffffffffffffffffffff16837f2f8788117e7eff1d82e926ec794901d17c78024a50270940304540a733656f0d60405160405180910390a45b5050565b60006008600084815260200190815260200160002060000160008373ffffffffffffffffffffffffffffffffffffffff1673ffffffffffffffffffffffffffffffffffffffff16815260200190815260200160002060009054906101000a900460ff16905092915050565b6000604051905090565b600080fd5b600080fd5b600080fd5b600080fd5b6000601f19601f8301169050919050565b7f4e487b7100000000000000000000000000000000000000000000000000000000600052604160045260246000fd5b6200037c8262000331565b810181811067ffffffffffffffff821117156200039e576200039d62000342565b5b80604052505050565b6000620003b362000313565b9050620003c1828262000371565b919050565b600067ffffffffffffffff821115620003e457620003e362000342565b5b620003ef8262000331565b9050602081019050919050565b60005b838110156200041c578082015181840152602081019050620003ff565b60008484015250505050565b60006200043f6200043984620003c6565b620003a7565b9050828152602081018484840111156200045e576200045d6200032c565b5b6200046b848285620003fc565b509392505050565b600082601f8301126200048b576200048a62000327565b5b81516200049d84826020860162000428565b91505092915050565b6000819050919050565b620004bb81620004a6565b8114620004c757600080fd5b50565b600081519050620004db81620004b0565b92915050565b60008060008060008060c087890312156200050157620005006200031d565b5b600087015167ffffffffffffffff81111562000522576200052162000322565b5b6200053089828a0162000473565b965050602087015167ffffffffffffffff81111562000554576200055362000322565b5b6200056289828a0162000473565b955050604087015167ffffffffffffffff81111562000586576200058562000322565b5b6200059489828a0162000473565b945050606087015167ffffffffffffffff811115620005b857620005b762000322565b5b620005c689828a0162000473565b9350506080620005d989828a01620004ca565b92505060a0620005ec89828a01620004ca565b9150509295509295509295565b600081519050919050565b7f4e487b7100000000000000000000000000000000000000000000000000000000600052602260045260246000fd5b600060028204905060018216806200064c57607f821691505b60208210810362000662576200066162000604565b5b50919050565b60008190508160005260206000209050919050565b60006020601f8301049050919050565b600082821b905092915050565b600060088302620006cc7fffffffffffffffffffffffffffffffffffffffffffffffffffffffffffffffff826200068d565b620006d886836200068d565b95508019841693508086168417925050509392505050565b6000819050919050565b60006200071b620007156200070f84620004a6565b620006f0565b620004a6565b9050919050565b6000819050919050565b6200073783620006fa565b6200074f620007468262000722565b8484546200069a565b825550505050565b600090565b6200076662000757565b620007738184846200072c565b505050565b5b818110156200079b576200078f6000826200075c565b60018101905062000779565b5050565b601f821115620007ea57620007b48162000668565b620007bf846200067d565b81016020851015620007cf578190505b620007e7620007de856200067d565b83018262000778565b50505b505050565b600082821c905092915050565b60006200080f60001984600802620007ef565b1980831691505092915050565b60006200082a8383620007fc565b9150826002028217905092915050565b6200084582620005f9565b67ffffffffffffffff81111562000861576200086062000342565b5b6200086d825462000633565b6200087a8282856200079f565b600060209050601f831160018114620008b257600084156200089d578287015190505b620008a985826200081c565b86555062000919565b601f198416620008c28662000668565b60005b82811015620008ec57848901518255600182019150602085019450602081019050620008c5565b868310156200090c578489015162000908601f891682620007fc565b8355505b6001600288020188555050505b505050505050565b614b5a80620009316000396000f3fe60806040526004361061021a5760003560e01c806380310ea511610123578063a22cb465116100ab578063d53913931161006f578063d5391393146107ec578063d547741f14610817578063dbfa586314610840578063e985e9c51461086b578063f2fde38b146108a85761021a565b8063a22cb46514610707578063ac8daba014610730578063b88d4fde1461075b578063b8cba20414610784578063c87b56dd146107af5761021a565b80638da5cb5b116100f25780638da5cb5b1461062057806391d148541461064b578063924eef471461068857806395d89b41146106b1578063a217fddf146106dc5761021a565b806380310ea51461057157806382189551146105ae57806384c4bd4b146105ca5780638c445977146105f55761021a565b806336568abe116101a657806349a5aaf01161017557806349a5aaf01461048a5780634c95ef60146104b55780636352211e146104e057806370a082311461051d578063715018a61461055a5761021a565b806336568abe146103d057806342842e0e146103f957806342966c68146104225780634960209a1461044b5761021a565b80630ad41329116101ed5780630ad41329146102ed57806323b872dd14610318578063248a9ca3146103415780632923ce111461037e5780632f2ff15d146103a75761021a565b806301ffc9a71461021f57806306fdde031461025c578063081812fc14610287578063095ea7b3146102c4575b600080fd5b34801561022b57600080fd5b5061024660048036038101906102419190613241565b6108d1565b6040516102539190613289565b60405180910390f35b34801561026857600080fd5b506102716108e3565b60405161027e9190613334565b60405180910390f35b34801561029357600080fd5b506102ae60048036038101906102a9919061338c565b610975565b6040516102bb91906133fa565b60405180910390f35b3480156102d057600080fd5b506102eb60048036038101906102e69190613441565b6109bb565b005b3480156102f957600080fd5b50610302610ad2565b60405161030f919061349a565b60405180910390f35b34801561032457600080fd5b5061033f600480360381019061033a91906134b5565b610af6565b005b34801561034d57600080fd5b5061036860048036038101906103639190613534565b610b56565b604051610375919061349a565b60405180910390f35b34801561038a57600080fd5b506103a560048036038101906103a09190613696565b610b76565b005b3480156103b357600080fd5b506103ce60048036038101906103c99190613719565b610d0e565b005b3480156103dc57600080fd5b506103f760048036038101906103f29190613719565b610d2f565b005b34801561040557600080fd5b50610420600480360381019061041b91906134b5565b610db2565b005b34801561042e57600080fd5b506104496004803603810190610444919061338c565b610dd2565b005b34801561045757600080fd5b50610472600480360381019061046d919061338c565b610e2e565b60405161048193929190613768565b60405180910390f35b34801561049657600080fd5b5061049f610e75565b6040516104ac919061349a565b60405180910390f35b3480156104c157600080fd5b506104ca610e99565b6040516104d79190613334565b60405180910390f35b3480156104ec57600080fd5b506105076004803603810190610502919061338c565b610f27565b60405161051491906133fa565b60405180910390f35b34801561052957600080fd5b50610544600480360381019061053f919061379f565b610fad565b60405161055191906137cc565b60405180910390f35b34801561056657600080fd5b5061056f611064565b005b34801561057d57600080fd5b506105986004803603810190610593919061338c565b611078565b6040516105a591906133fa565b60405180910390f35b6105c860048036038101906105c39190613888565b6110ab565b005b3480156105d657600080fd5b506105df61125e565b6040516105ec91906137cc565b60405180910390f35b34801561060157600080fd5b5061060a61126a565b6040516106179190613334565b60405180910390f35b34801561062c57600080fd5b506106356112f8565b60405161064291906133fa565b60405180910390f35b34801561065757600080fd5b50610672600480360381019061066d9190613719565b611322565b60405161067f9190613289565b60405180910390f35b34801561069457600080fd5b506106af60048036038101906106aa9190613910565b61138d565b005b3480156106bd57600080fd5b506106c661146f565b6040516106d39190613334565b60405180910390f35b3480156106e857600080fd5b506106f1611501565b6040516106fe919061349a565b60405180910390f35b34801561071357600080fd5b5061072e60048036038101906107299190613950565b611508565b005b34801561073c57600080fd5b5061074561151e565b60405161075291906137cc565b60405180910390f35b34801561076757600080fd5b50610782600480360381019061077d9190613990565b611524565b005b34801561079057600080fd5b5061079961156b565b6040516107a69190613334565b60405180910390f35b3480156107bb57600080fd5b506107d660048036038101906107d1919061338c565b6115f9565b6040516107e39190613334565b60405180910390f35b3480156107f857600080fd5b5061080161160b565b60405161080e919061349a565b60405180910390f35b34801561082357600080fd5b5061083e60048036038101906108399190613719565b61162f565b005b34801561084c57600080fd5b50610855611650565b60405161086291906137cc565b60405180910390f35b34801561087757600080fd5b50610892600480360381019061088d9190613a13565b611656565b60405161089f9190613289565b60405180910390f35b3480156108b457600080fd5b506108cf60048036038101906108ca919061379f565b6116ea565b005b60006108dc8261176d565b9050919050565b6060600080546108f290613a82565b80601f016020809104026020016040519081016040528092919081815260200182805461091e90613a82565b801561096b5780601f106109405761010080835404028352916020019161096b565b820191906000526020600020905b81548152906001019060200180831161094e57829003601f168201915b5050505050905090565b6000610980826117e7565b6004600083815260200190815260200160002060009054906101000a900473ffffffffffffffffffffffffffffffffffffffff169050919050565b60006109c682610f27565b90508073ffffffffffffffffffffffffffffffffffffffff168373ffffffffffffffffffffffffffffffffffffffff1603610a36576040517f08c379a0000000000000000000000000000000000000000000000000000000008152600401610a2d90613b25565b60405180910390fd5b8073ffffffffffffffffffffffffffffffffffffffff16610a55611832565b73ffffffffffffffffffffffffffffffffffffffff161480610a845750610a8381610a7e611832565b611656565b5b610ac3576040517f08c379a0000000000000000000000000000000000000000000000000000000008152600401610aba90613bb7565b60405180910390fd5b610acd838361183a565b505050565b7f8c04bd11d77ff50ce74eb27dbf3be5835bb80388d39725f7e4808cb26a02e7cd81565b610b07610b01611832565b826118f3565b610b46576040517f08c379a0000000000000000000000000000000000000000000000000000000008152600401610b3d90613c49565b60405180910390fd5b610b51838383611988565b505050565b600060086000838152602001908152602001600020600101549050919050565b7f9f2df0fed2c77648de5860a4cc508cd0818c85b8b8a1ab4ceeef8d981c8956a6610ba081611c81565b610bca7fbc7dbb233c603795f906644f7c42dc46861c7eaeae18d4f0099de42c6a7c92de86611322565b610c09576040517f08c379a0000000000000000000000000000000000000000000000000000000008152600401610c0090613cdb565b60405180910390fd5b6000610c156010611c95565b9050600a60405180606001604052808681526020016001151581526020018581525090806001815401808255809150506001900390600052602060002090600302016000909190919091506000820151816000015560208201518160010160006101000a81548160ff021916908315150217905550604082015181600201555050610ca06010611ca3565b610caa8682611cb9565b856009600083815260200190815260200160002060006101000a81548173ffffffffffffffffffffffffffffffffffffffff021916908373ffffffffffffffffffffffffffffffffffffffff160217905550610d068186611cd7565b505050505050565b610d1782610b56565b610d2081611c81565b610d2a8383611d44565b505050565b610d37611832565b73ffffffffffffffffffffffffffffffffffffffff168173ffffffffffffffffffffffffffffffffffffffff1614610da4576040517f08c379a0000000000000000000000000000000000000000000000000000000008152600401610d9b90613d6d565b60405180910390fd5b610dae8282611e25565b5050565b610dcd83838360405180602001604052806000815250611524565b505050565b610de3610ddd611832565b826118f3565b610e22576040517f08c379a0000000000000000000000000000000000000000000000000000000008152600401610e1990613c49565b60405180910390fd5b610e2b81611f07565b50565b600a8181548110610e3e57600080fd5b90600052602060002090600302016000915090508060000154908060010160009054906101000a900460ff16908060020154905083565b7fbc7dbb233c603795f906644f7c42dc46861c7eaeae18d4f0099de42c6a7c92de81565b600c8054610ea690613a82565b80601f0160208091040260200160405190810160405280929190818152602001828054610ed290613a82565b8015610f1f5780601f10610ef457610100808354040283529160200191610f1f565b820191906000526020600020905b815481529060010190602001808311610f0257829003601f168201915b505050505081565b600080610f3383611f13565b9050600073ffffffffffffffffffffffffffffffffffffffff168173ffffffffffffffffffffffffffffffffffffffff1603610fa4576040517f08c379a0000000000000000000000000000000000000000000000000000000008152600401610f9b90613dd9565b60405180910390fd5b80915050919050565b60008073ffffffffffffffffffffffffffffffffffffffff168273ffffffffffffffffffffffffffffffffffffffff160361101d576040517f08c379a000000000000000000000000000000000000000000000000000000000815260040161101490613e6b565b60405180910390fd5b600360008373ffffffffffffffffffffffffffffffffffffffff1673ffffffffffffffffffffffffffffffffffffffff168152602001908152602001600020549050919050565b61106c611f50565b6110766000611fce565b565b60096020528060005260406000206000915054906101000a900473ffffffffffffffffffffffffffffffffffffffff1681565b7f8c04bd11d77ff50ce74eb27dbf3be5835bb80388d39725f7e4808cb26a02e7cd6110d581611c81565b60011515600a84815481106110ed576110ec613e8b565b5b906000526020600020906003020160010160009054906101000a900460ff1615151461114e576040517f08c379a000000000000000000000000000000000000000000000000000000000815260040161114590613f06565b60405180910390fd5b600a838154811061116257611161613e8b565b5b90600052602060002090600302016000015434146111b5576040517f08c379a00000000000000000000000000000000000000000000000000000000081526004016111ac90613f72565b60405180910390fd5b6111c96111c184610f27565b338585612094565b336009600085815260200190815260200160002060006101000a81548173ffffffffffffffffffffffffffffffffffffffff021916908373ffffffffffffffffffffffffffffffffffffffff1602179055506000600a848154811061123157611230613e8b565b5b906000526020600020906003020160010160006101000a81548160ff021916908315150217905550505050565b60108060000154905081565b600b805461127790613a82565b80601f01602080910402602001604051908101604052809291908181526020018280546112a390613a82565b80156112f05780601f106112c5576101008083540402835291602001916112f0565b820191906000526020600020905b8154815290600101906020018083116112d357829003601f168201915b505050505081565b6000600760009054906101000a900473ffffffffffffffffffffffffffffffffffffffff16905090565b60006008600084815260200190815260200160002060000160008373ffffffffffffffffffffffffffffffffffffffff1673ffffffffffffffffffffffffffffffffffffffff16815260200190815260200160002060009054906101000a900460ff16905092915050565b3373ffffffffffffffffffffffffffffffffffffffff166009600083815260200190815260200160002060009054906101000a900473ffffffffffffffffffffffffffffffffffffffff1673ffffffffffffffffffffffffffffffffffffffff161461142e576040517f08c379a000000000000000000000000000000000000000000000000000000000815260040161142590613fde565b60405180910390fd5b81600a828154811061144357611442613e8b565b5b906000526020600020906003020160010160006101000a81548160ff0219169083151502179055505050565b60606001805461147e90613a82565b80601f01602080910402602001604051908101604052809291908181526020018280546114aa90613a82565b80156114f75780601f106114cc576101008083540402835291602001916114f7565b820191906000526020600020905b8154815290600101906020018083116114da57829003601f168201915b5050505050905090565b6000801b81565b61151a611513611832565b83836120f0565b5050565b600e5481565b6000611565576040517f08c379a000000000000000000000000000000000000000000000000000000000815260040161155c9061404a565b60405180910390fd5b50505050565b600d805461157890613a82565b80601f01602080910402602001604051908101604052809291908181526020018280546115a490613a82565b80156115f15780601f106115c6576101008083540402835291602001916115f1565b820191906000526020600020905b8154815290600101906020018083116115d457829003601f168201915b505050505081565b60606116048261225c565b9050919050565b7f9f2df0fed2c77648de5860a4cc508cd0818c85b8b8a1ab4ceeef8d981c8956a681565b61163882610b56565b61164181611c81565b61164b8383611e25565b505050565b600f5481565b6000600560008473ffffffffffffffffffffffffffffffffffffffff1673ffffffffffffffffffffffffffffffffffffffff16815260200190815260200160002060008373ffffffffffffffffffffffffffffffffffffffff1673ffffffffffffffffffffffffffffffffffffffff16815260200190815260200160002060009054906101000a900460ff16905092915050565b6116f2611f50565b600073ffffffffffffffffffffffffffffffffffffffff168173ffffffffffffffffffffffffffffffffffffffff1603611761576040517f08c379a0000000000000000000000000000000000000000000000000000000008152600401611758906140dc565b60405180910390fd5b61176a81611fce565b50565b60007f7965db0b000000000000000000000000000000000000000000000000000000007bffffffffffffffffffffffffffffffffffffffffffffffffffffffff1916827bffffffffffffffffffffffffffffffffffffffffffffffffffffffff191614806117e057506117df8261236e565b5b9050919050565b6117f081612450565b61182f576040517f08c379a000000000000000000000000000000000000000000000000000000000815260040161182690613dd9565b60405180910390fd5b50565b600033905090565b816004600083815260200190815260200160002060006101000a81548173ffffffffffffffffffffffffffffffffffffffff021916908373ffffffffffffffffffffffffffffffffffffffff160217905550808273ffffffffffffffffffffffffffffffffffffffff166118ad83610f27565b73ffffffffffffffffffffffffffffffffffffffff167f8c5be1e5ebec7d5bd14f71427d1e84f3dd0314c0f7b2291e5b200ac8c7c3b92560405160405180910390a45050565b6000806118ff83610f27565b90508073ffffffffffffffffffffffffffffffffffffffff168473ffffffffffffffffffffffffffffffffffffffff16148061194157506119408185611656565b5b8061197f57508373ffffffffffffffffffffffffffffffffffffffff1661196784610975565b73ffffffffffffffffffffffffffffffffffffffff16145b91505092915050565b8273ffffffffffffffffffffffffffffffffffffffff166119a882610f27565b73ffffffffffffffffffffffffffffffffffffffff16146119fe576040517f08c379a00000000000000000000000000000000000000000000000000000000081526004016119f59061416e565b60405180910390fd5b600073ffffffffffffffffffffffffffffffffffffffff168273ffffffffffffffffffffffffffffffffffffffff1603611a6d576040517f08c379a0000000000000000000000000000000000000000000000000000000008152600401611a6490614200565b60405180910390fd5b611a7a8383836001612491565b8273ffffffffffffffffffffffffffffffffffffffff16611a9a82610f27565b73ffffffffffffffffffffffffffffffffffffffff1614611af0576040517f08c379a0000000000000000000000000000000000000000000000000000000008152600401611ae79061416e565b60405180910390fd5b6004600082815260200190815260200160002060006101000a81549073ffffffffffffffffffffffffffffffffffffffff02191690556001600360008573ffffffffffffffffffffffffffffffffffffffff1673ffffffffffffffffffffffffffffffffffffffff168152602001908152602001600020600082825403925050819055506001600360008473ffffffffffffffffffffffffffffffffffffffff1673ffffffffffffffffffffffffffffffffffffffff16815260200190815260200160002060008282540192505081905550816002600083815260200190815260200160002060006101000a81548173ffffffffffffffffffffffffffffffffffffffff021916908373ffffffffffffffffffffffffffffffffffffffff160217905550808273ffffffffffffffffffffffffffffffffffffffff168473ffffffffffffffffffffffffffffffffffffffff167fddf252ad1be2c89b69c2b068fc378daa952ba7f163c4a11628f55a4df523b3ef60405160405180910390a4611c7c83838360016125b7565b505050565b611c9281611c8d611832565b6125bd565b50565b600081600001549050919050565b6001816000016000828254019250508190555050565b611cd3828260405180602001604052806000815250612642565b5050565b611ce082612450565b611d1f576040517f08c379a0000000000000000000000000000000000000000000000000000000008152600401611d1690614292565b60405180910390fd5b80600660008481526020019081526020016000209081611d3f919061445e565b505050565b611d4e8282611322565b611e215760016008600084815260200190815260200160002060000160008373ffffffffffffffffffffffffffffffffffffffff1673ffffffffffffffffffffffffffffffffffffffff16815260200190815260200160002060006101000a81548160ff021916908315150217905550611dc6611832565b73ffffffffffffffffffffffffffffffffffffffff168173ffffffffffffffffffffffffffffffffffffffff16837f2f8788117e7eff1d82e926ec794901d17c78024a50270940304540a733656f0d60405160405180910390a45b5050565b611e2f8282611322565b15611f035760006008600084815260200190815260200160002060000160008373ffffffffffffffffffffffffffffffffffffffff1673ffffffffffffffffffffffffffffffffffffffff16815260200190815260200160002060006101000a81548160ff021916908315150217905550611ea8611832565b73ffffffffffffffffffffffffffffffffffffffff168173ffffffffffffffffffffffffffffffffffffffff16837ff6391f5c32d9c69d2a47ea670b442974b53935d1edc7fd64eb21e047a839171b60405160405180910390a45b5050565b611f108161269d565b50565b60006002600083815260200190815260200160002060009054906101000a900473ffffffffffffffffffffffffffffffffffffffff169050919050565b611f58611832565b73ffffffffffffffffffffffffffffffffffffffff16611f766112f8565b73ffffffffffffffffffffffffffffffffffffffff1614611fcc576040517f08c379a0000000000000000000000000000000000000000000000000000000008152600401611fc39061457c565b60405180910390fd5b565b6000600760009054906101000a900473ffffffffffffffffffffffffffffffffffffffff16905081600760006101000a81548173ffffffffffffffffffffffffffffffffffffffff021916908373ffffffffffffffffffffffffffffffffffffffff1602179055508173ffffffffffffffffffffffffffffffffffffffff168173ffffffffffffffffffffffffffffffffffffffff167f8be0079c531659141344cd1fd0a4f28419497f9722a3daafe3b4186f6b6457e060405160405180910390a35050565b61209f848484611988565b6120ab848484846126f0565b6120ea576040517f08c379a00000000000000000000000000000000000000000000000000000000081526004016120e19061460e565b60405180910390fd5b50505050565b8173ffffffffffffffffffffffffffffffffffffffff168373ffffffffffffffffffffffffffffffffffffffff160361215e576040517f08c379a00000000000000000000000000000000000000000000000000000000081526004016121559061467a565b60405180910390fd5b80600560008573ffffffffffffffffffffffffffffffffffffffff1673ffffffffffffffffffffffffffffffffffffffff16815260200190815260200160002060008473ffffffffffffffffffffffffffffffffffffffff1673ffffffffffffffffffffffffffffffffffffffff16815260200190815260200160002060006101000a81548160ff0219169083151502179055508173ffffffffffffffffffffffffffffffffffffffff168373ffffffffffffffffffffffffffffffffffffffff167f17307eab39ab6107e8899845ad3d59bd9653f200f220920489ca2b5937696c318360405161224f9190613289565b60405180910390a3505050565b6060612267826117e7565b600060066000848152602001908152602001600020805461228790613a82565b80601f01602080910402602001604051908101604052809291908181526020018280546122b390613a82565b80156123005780601f106122d557610100808354040283529160200191612300565b820191906000526020600020905b8154815290600101906020018083116122e357829003601f168201915b505050505090506000612311612877565b90506000815103612326578192505050612369565b60008251111561235b5780826040516020016123439291906146d6565b60405160208183030381529060405292505050612369565b6123648461288e565b925050505b919050565b60007f80ac58cd000000000000000000000000000000000000000000000000000000007bffffffffffffffffffffffffffffffffffffffffffffffffffffffff1916827bffffffffffffffffffffffffffffffffffffffffffffffffffffffff1916148061243957507f5b5e139f000000000000000000000000000000000000000000000000000000007bffffffffffffffffffffffffffffffffffffffffffffffffffffffff1916827bffffffffffffffffffffffffffffffffffffffffffffffffffffffff1916145b806124495750612448826128f6565b5b9050919050565b60008073ffffffffffffffffffffffffffffffffffffffff1661247283611f13565b73ffffffffffffffffffffffffffffffffffffffff1614159050919050565b60018111156125b157600073ffffffffffffffffffffffffffffffffffffffff168473ffffffffffffffffffffffffffffffffffffffff16146125255780600360008673ffffffffffffffffffffffffffffffffffffffff1673ffffffffffffffffffffffffffffffffffffffff168152602001908152602001600020600082825461251d9190614729565b925050819055505b600073ffffffffffffffffffffffffffffffffffffffff168373ffffffffffffffffffffffffffffffffffffffff16146125b05780600360008573ffffffffffffffffffffffffffffffffffffffff1673ffffffffffffffffffffffffffffffffffffffff16815260200190815260200160002060008282546125a8919061475d565b925050819055505b5b50505050565b50505050565b6125c78282611322565b61263e576125d481612960565b6125e28360001c602061298d565b6040516020016125f3929190614829565b6040516020818303038152906040526040517f08c379a00000000000000000000000000000000000000000000000000000000081526004016126359190613334565b60405180910390fd5b5050565b61264c8383612bc9565b61265960008484846126f0565b612698576040517f08c379a000000000000000000000000000000000000000000000000000000000815260040161268f9061460e565b60405180910390fd5b505050565b6126a681612de6565b60006006600083815260200190815260200160002080546126c690613a82565b9050146126ed576006600082815260200190815260200160002060006126ec9190613178565b5b50565b60006127118473ffffffffffffffffffffffffffffffffffffffff16612f34565b1561286a578373ffffffffffffffffffffffffffffffffffffffff1663150b7a0261273a611832565b8786866040518563ffffffff1660e01b815260040161275c94939291906148b8565b6020604051808303816000875af192505050801561279857506040513d601f19601f820116820180604052508101906127959190614919565b60015b61281a573d80600081146127c8576040519150601f19603f3d011682016040523d82523d6000602084013e6127cd565b606091505b506000815103612812576040517f08c379a00000000000000000000000000000000000000000000000000000000081526004016128099061460e565b60405180910390fd5b805181602001fd5b63150b7a0260e01b7bffffffffffffffffffffffffffffffffffffffffffffffffffffffff1916817bffffffffffffffffffffffffffffffffffffffffffffffffffffffff19161491505061286f565b600190505b949350505050565b606060405180602001604052806000815250905090565b6060612899826117e7565b60006128a3612877565b905060008151116128c357604051806020016040528060008152506128ee565b806128cd84612f57565b6040516020016128de9291906146d6565b6040516020818303038152906040525b915050919050565b60007f01ffc9a7000000000000000000000000000000000000000000000000000000007bffffffffffffffffffffffffffffffffffffffffffffffffffffffff1916827bffffffffffffffffffffffffffffffffffffffffffffffffffffffff1916149050919050565b60606129868273ffffffffffffffffffffffffffffffffffffffff16601460ff1661298d565b9050919050565b6060600060028360026129a09190614946565b6129aa919061475d565b67ffffffffffffffff8111156129c3576129c261356b565b5b6040519080825280601f01601f1916602001820160405280156129f55781602001600182028036833780820191505090505b5090507f300000000000000000000000000000000000000000000000000000000000000081600081518110612a2d57612a2c613e8b565b5b60200101907effffffffffffffffffffffffffffffffffffffffffffffffffffffffffffff1916908160001a9053507f780000000000000000000000000000000000000000000000000000000000000081600181518110612a9157612a90613e8b565b5b60200101907effffffffffffffffffffffffffffffffffffffffffffffffffffffffffffff1916908160001a90535060006001846002612ad19190614946565b612adb919061475d565b90505b6001811115612b7b577f3031323334353637383961626364656600000000000000000000000000000000600f861660108110612b1d57612b1c613e8b565b5b1a60f81b828281518110612b3457612b33613e8b565b5b60200101907effffffffffffffffffffffffffffffffffffffffffffffffffffffffffffff1916908160001a905350600485901c945080612b7490614988565b9050612ade565b5060008414612bbf576040517f08c379a0000000000000000000000000000000000000000000000000000000008152600401612bb6906149fd565b60405180910390fd5b8091505092915050565b600073ffffffffffffffffffffffffffffffffffffffff168273ffffffffffffffffffffffffffffffffffffffff1603612c38576040517f08c379a0000000000000000000000000000000000000000000000000000000008152600401612c2f90614a69565b60405180910390fd5b612c4181612450565b15612c81576040517f08c379a0000000000000000000000000000000000000000000000000000000008152600401612c7890614ad5565b60405180910390fd5b612c8f600083836001612491565b612c9881612450565b15612cd8576040517f08c379a0000000000000000000000000000000000000000000000000000000008152600401612ccf90614ad5565b60405180910390fd5b6001600360008473ffffffffffffffffffffffffffffffffffffffff1673ffffffffffffffffffffffffffffffffffffffff16815260200190815260200160002060008282540192505081905550816002600083815260200190815260200160002060006101000a81548173ffffffffffffffffffffffffffffffffffffffff021916908373ffffffffffffffffffffffffffffffffffffffff160217905550808273ffffffffffffffffffffffffffffffffffffffff16600073ffffffffffffffffffffffffffffffffffffffff167fddf252ad1be2c89b69c2b068fc378daa952ba7f163c4a11628f55a4df523b3ef60405160405180910390a4612de26000838360016125b7565b5050565b6000612df182610f27565b9050612e01816000846001612491565b612e0a82610f27565b90506004600083815260200190815260200160002060006101000a81549073ffffffffffffffffffffffffffffffffffffffff02191690556001600360008373ffffffffffffffffffffffffffffffffffffffff1673ffffffffffffffffffffffffffffffffffffffff168152602001908152602001600020600082825403925050819055506002600083815260200190815260200160002060006101000a81549073ffffffffffffffffffffffffffffffffffffffff021916905581600073ffffffffffffffffffffffffffffffffffffffff168273ffffffffffffffffffffffffffffffffffffffff167fddf252ad1be2c89b69c2b068fc378daa952ba7f163c4a11628f55a4df523b3ef60405160405180910390a4612f308160008460016125b7565b5050565b6000808273ffffffffffffffffffffffffffffffffffffffff163b119050919050565b606060006001612f6684613025565b01905060008167ffffffffffffffff811115612f8557612f8461356b565b5b6040519080825280601f01601f191660200182016040528015612fb75781602001600182028036833780820191505090505b509050600082602001820190505b60011561301a578080600190039150507f3031323334353637383961626364656600000000000000000000000000000000600a86061a8153600a858161300e5761300d614af5565b5b04945060008503612fc5575b819350505050919050565b600080600090507a184f03e93ff9f4daa797ed6e38ed64bf6a1f0100000000000000008310613083577a184f03e93ff9f4daa797ed6e38ed64bf6a1f010000000000000000838161307957613078614af5565b5b0492506040810190505b6d04ee2d6d415b85acef810000000083106130c0576d04ee2d6d415b85acef810000000083816130b6576130b5614af5565b5b0492506020810190505b662386f26fc1000083106130ef57662386f26fc1000083816130e5576130e4614af5565b5b0492506010810190505b6305f5e1008310613118576305f5e100838161310e5761310d614af5565b5b0492506008810190505b612710831061313d57612710838161313357613132614af5565b5b0492506004810190505b60648310613160576064838161315657613155614af5565b5b0492506002810190505b600a831061316f576001810190505b80915050919050565b50805461318490613a82565b6000825580601f1061319657506131b5565b601f0160209004906000526020600020908101906131b491906131b8565b5b50565b5b808211156131d15760008160009055506001016131b9565b5090565b6000604051905090565b600080fd5b600080fd5b60007fffffffff0000000000000000000000000000000000000000000000000000000082169050919050565b61321e816131e9565b811461322957600080fd5b50565b60008135905061323b81613215565b92915050565b600060208284031215613257576132566131df565b5b60006132658482850161322c565b91505092915050565b60008115159050919050565b6132838161326e565b82525050565b600060208201905061329e600083018461327a565b92915050565b600081519050919050565b600082825260208201905092915050565b60005b838110156132de5780820151818401526020810190506132c3565b60008484015250505050565b6000601f19601f8301169050919050565b6000613306826132a4565b61331081856132af565b93506133208185602086016132c0565b613329816132ea565b840191505092915050565b6000602082019050818103600083015261334e81846132fb565b905092915050565b6000819050919050565b61336981613356565b811461337457600080fd5b50565b60008135905061338681613360565b92915050565b6000602082840312156133a2576133a16131df565b5b60006133b084828501613377565b91505092915050565b600073ffffffffffffffffffffffffffffffffffffffff82169050919050565b60006133e4826133b9565b9050919050565b6133f4816133d9565b82525050565b600060208201905061340f60008301846133eb565b92915050565b61341e816133d9565b811461342957600080fd5b50565b60008135905061343b81613415565b92915050565b60008060408385031215613458576134576131df565b5b60006134668582860161342c565b925050602061347785828601613377565b9150509250929050565b6000819050919050565b61349481613481565b82525050565b60006020820190506134af600083018461348b565b92915050565b6000806000606084860312156134ce576134cd6131df565b5b60006134dc8682870161342c565b93505060206134ed8682870161342c565b92505060406134fe86828701613377565b9150509250925092565b61351181613481565b811461351c57600080fd5b50565b60008135905061352e81613508565b92915050565b60006020828403121561354a576135496131df565b5b60006135588482850161351f565b91505092915050565b600080fd5b600080fd5b7f4e487b7100000000000000000000000000000000000000000000000000000000600052604160045260246000fd5b6135a3826132ea565b810181811067ffffffffffffffff821117156135c2576135c161356b565b5b80604052505050565b60006135d56131d5565b90506135e1828261359a565b919050565b600067ffffffffffffffff8211156136015761360061356b565b5b61360a826132ea565b9050602081019050919050565b82818337600083830152505050565b6000613639613634846135e6565b6135cb565b90508281526020810184848401111561365557613654613566565b5b613660848285613617565b509392505050565b600082601f83011261367d5761367c613561565b5b813561368d848260208601613626565b91505092915050565b600080600080608085870312156136b0576136af6131df565b5b60006136be8782880161342c565b945050602085013567ffffffffffffffff8111156136df576136de6131e4565b5b6136eb87828801613668565b93505060406136fc87828801613377565b925050606061370d87828801613377565b91505092959194509250565b600080604083850312156137305761372f6131df565b5b600061373e8582860161351f565b925050602061374f8582860161342c565b9150509250929050565b61376281613356565b82525050565b600060608201905061377d6000830186613759565b61378a602083018561327a565b6137976040830184613759565b949350505050565b6000602082840312156137b5576137b46131df565b5b60006137c38482850161342c565b91505092915050565b60006020820190506137e16000830184613759565b92915050565b600067ffffffffffffffff8211156138025761380161356b565b5b61380b826132ea565b9050602081019050919050565b600061382b613826846137e7565b6135cb565b90508281526020810184848401111561384757613846613566565b5b613852848285613617565b509392505050565b600082601f83011261386f5761386e613561565b5b813561387f848260208601613818565b91505092915050565b6000806040838503121561389f5761389e6131df565b5b60006138ad85828601613377565b925050602083013567ffffffffffffffff8111156138ce576138cd6131e4565b5b6138da8582860161385a565b9150509250929050565b6138ed8161326e565b81146138f857600080fd5b50565b60008135905061390a816138e4565b92915050565b60008060408385031215613927576139266131df565b5b6000613935858286016138fb565b925050602061394685828601613377565b9150509250929050565b60008060408385031215613967576139666131df565b5b60006139758582860161342c565b9250506020613986858286016138fb565b9150509250929050565b600080600080608085870312156139aa576139a96131df565b5b60006139b88782880161342c565b94505060206139c98782880161342c565b93505060406139da87828801613377565b925050606085013567ffffffffffffffff8111156139fb576139fa6131e4565b5b613a078782880161385a565b91505092959194509250565b60008060408385031215613a2a57613a296131df565b5b6000613a388582860161342c565b9250506020613a498582860161342c565b9150509250929050565b7f4e487b7100000000000000000000000000000000000000000000000000000000600052602260045260246000fd5b60006002820490506001821680613a9a57607f821691505b602082108103613aad57613aac613a53565b5b50919050565b7f4552433732313a20617070726f76616c20746f2063757272656e74206f776e6560008201527f7200000000000000000000000000000000000000000000000000000000000000602082015250565b6000613b0f6021836132af565b9150613b1a82613ab3565b604082019050919050565b60006020820190508181036000830152613b3e81613b02565b9050919050565b7f4552433732313a20617070726f76652063616c6c6572206973206e6f7420746f60008201527f6b656e206f776e6572206f7220617070726f76656420666f7220616c6c000000602082015250565b6000613ba1603d836132af565b9150613bac82613b45565b604082019050919050565b60006020820190508181036000830152613bd081613b94565b9050919050565b7f4552433732313a2063616c6c6572206973206e6f7420746f6b656e206f776e6560008201527f72206f7220617070726f76656400000000000000000000000000000000000000602082015250565b6000613c33602d836132af565b9150613c3e82613bd7565b604082019050919050565b60006020820190508181036000830152613c6281613c26565b9050919050565b7f43616e6e6f74206d696e7420746f206163636f756e74206e6f74206f776e656460008201527f2062792047454100000000000000000000000000000000000000000000000000602082015250565b6000613cc56027836132af565b9150613cd082613c69565b604082019050919050565b60006020820190508181036000830152613cf481613cb8565b9050919050565b7f416363657373436f6e74726f6c3a2063616e206f6e6c792072656e6f756e636560008201527f20726f6c657320666f722073656c660000000000000000000000000000000000602082015250565b6000613d57602f836132af565b9150613d6282613cfb565b604082019050919050565b60006020820190508181036000830152613d8681613d4a565b9050919050565b7f4552433732313a20696e76616c696420746f6b656e2049440000000000000000600082015250565b6000613dc36018836132af565b9150613dce82613d8d565b602082019050919050565b60006020820190508181036000830152613df281613db6565b9050919050565b7f4552433732313a2061646472657373207a65726f206973206e6f74206120766160008201527f6c6964206f776e65720000000000000000000000000000000000000000000000602082015250565b6000613e556029836132af565b9150613e6082613df9565b604082019050919050565b60006020820190508181036000830152613e8481613e48565b9050919050565b7f4e487b7100000000000000000000000000000000000000000000000000000000600052603260045260246000fd5b7f5469636b6574206e6f7420666f722073616c6500000000000000000000000000600082015250565b6000613ef06013836132af565b9150613efb82613eba565b602082019050919050565b60006020820190508181036000830152613f1f81613ee3565b9050919050565b7f496e636f72726563742070726963650000000000000000000000000000000000600082015250565b6000613f5c600f836132af565b9150613f6782613f26565b602082019050919050565b60006020820190508181036000830152613f8b81613f4f565b9050919050565b7f4e6f207469636b6574206f776e65720000000000000000000000000000000000600082015250565b6000613fc8600f836132af565b9150613fd382613f92565b602082019050919050565b60006020820190508181036000830152613ff781613fbb565b9050919050565b7f43616e6e6f74207472616e736665722c2063616e206f6e6c792073656c6c0000600082015250565b6000614034601e836132af565b915061403f82613ffe565b602082019050919050565b6000602082019050818103600083015261406381614027565b9050919050565b7f4f776e61626c653a206e6577206f776e657220697320746865207a65726f206160008201527f6464726573730000000000000000000000000000000000000000000000000000602082015250565b60006140c66026836132af565b91506140d18261406a565b604082019050919050565b600060208201905081810360008301526140f5816140b9565b9050919050565b7f4552433732313a207472616e736665722066726f6d20696e636f72726563742060008201527f6f776e6572000000000000000000000000000000000000000000000000000000602082015250565b60006141586025836132af565b9150614163826140fc565b604082019050919050565b600060208201905081810360008301526141878161414b565b9050919050565b7f4552433732313a207472616e7366657220746f20746865207a65726f2061646460008201527f7265737300000000000000000000000000000000000000000000000000000000602082015250565b60006141ea6024836132af565b91506141f58261418e565b604082019050919050565b60006020820190508181036000830152614219816141dd565b9050919050565b7f45524337323155524953746f726167653a2055524920736574206f66206e6f6e60008201527f6578697374656e7420746f6b656e000000000000000000000000000000000000602082015250565b600061427c602e836132af565b915061428782614220565b604082019050919050565b600060208201905081810360008301526142ab8161426f565b9050919050565b60008190508160005260206000209050919050565b60006020601f8301049050919050565b600082821b905092915050565b6000600883026143147fffffffffffffffffffffffffffffffffffffffffffffffffffffffffffffffff826142d7565b61431e86836142d7565b95508019841693508086168417925050509392505050565b6000819050919050565b600061435b61435661435184613356565b614336565b613356565b9050919050565b6000819050919050565b61437583614340565b61438961438182614362565b8484546142e4565b825550505050565b600090565b61439e614391565b6143a981848461436c565b505050565b5b818110156143cd576143c2600082614396565b6001810190506143af565b5050565b601f821115614412576143e3816142b2565b6143ec846142c7565b810160208510156143fb578190505b61440f614407856142c7565b8301826143ae565b50505b505050565b600082821c905092915050565b600061443560001984600802614417565b1980831691505092915050565b600061444e8383614424565b9150826002028217905092915050565b614467826132a4565b67ffffffffffffffff8111156144805761447f61356b565b5b61448a8254613a82565b6144958282856143d1565b600060209050601f8311600181146144c857600084156144b6578287015190505b6144c08582614442565b865550614528565b601f1984166144d6866142b2565b60005b828110156144fe578489015182556001820191506020850194506020810190506144d9565b8683101561451b5784890151614517601f891682614424565b8355505b6001600288020188555050505b505050505050565b7f4f776e61626c653a2063616c6c6572206973206e6f7420746865206f776e6572600082015250565b60006145666020836132af565b915061457182614530565b602082019050919050565b6000602082019050818103600083015261459581614559565b9050919050565b7f4552433732313a207472616e7366657220746f206e6f6e20455243373231526560008201527f63656976657220696d706c656d656e7465720000000000000000000000000000602082015250565b60006145f86032836132af565b91506146038261459c565b604082019050919050565b60006020820190508181036000830152614627816145eb565b9050919050565b7f4552433732313a20617070726f766520746f2063616c6c657200000000000000600082015250565b60006146646019836132af565b915061466f8261462e565b602082019050919050565b6000602082019050818103600083015261469381614657565b9050919050565b600081905092915050565b60006146b0826132a4565b6146ba818561469a565b93506146ca8185602086016132c0565b80840191505092915050565b60006146e282856146a5565b91506146ee82846146a5565b91508190509392505050565b7f4e487b7100000000000000000000000000000000000000000000000000000000600052601160045260246000fd5b600061473482613356565b915061473f83613356565b9250828203905081811115614757576147566146fa565b5b92915050565b600061476882613356565b915061477383613356565b925082820190508082111561478b5761478a6146fa565b5b92915050565b7f416363657373436f6e74726f6c3a206163636f756e7420000000000000000000600082015250565b60006147c760178361469a565b91506147d282614791565b601782019050919050565b7f206973206d697373696e6720726f6c6520000000000000000000000000000000600082015250565b600061481360118361469a565b915061481e826147dd565b601182019050919050565b6000614834826147ba565b915061484082856146a5565b915061484b82614806565b915061485782846146a5565b91508190509392505050565b600081519050919050565b600082825260208201905092915050565b600061488a82614863565b614894818561486e565b93506148a48185602086016132c0565b6148ad816132ea565b840191505092915050565b60006080820190506148cd60008301876133eb565b6148da60208301866133eb565b6148e76040830185613759565b81810360608301526148f9818461487f565b905095945050505050565b60008151905061491381613215565b92915050565b60006020828403121561492f5761492e6131df565b5b600061493d84828501614904565b91505092915050565b600061495182613356565b915061495c83613356565b925082820261496a81613356565b91508282048414831517614981576149806146fa565b5b5092915050565b600061499382613356565b9150600082036149a6576149a56146fa565b5b600182039050919050565b7f537472696e67733a20686578206c656e67746820696e73756666696369656e74600082015250565b60006149e76020836132af565b91506149f2826149b1565b602082019050919050565b60006020820190508181036000830152614a16816149da565b9050919050565b7f4552433732313a206d696e7420746f20746865207a65726f2061646472657373600082015250565b6000614a536020836132af565b9150614a5e82614a1d565b602082019050919050565b60006020820190508181036000830152614a8281614a46565b9050919050565b7f4552433732313a20746f6b656e20616c7265616479206d696e74656400000000600082015250565b6000614abf601c836132af565b9150614aca82614a89565b602082019050919050565b60006020820190508181036000830152614aee81614ab2565b9050919050565b7f4e487b7100000000000000000000000000000000000000000000000000000000600052601260045260246000fdfea264697066735822122043e0bf96918f258777ce700f99c4128f186fdcd7561a110b53eecce986afd00064736f6c63430008130033",
  "immutableReferences": {},
  "source": "// SPDX-License-Identifier: MIT\npragma solidity ^0.8.9;\n\nimport \"./node_modules/@openzeppelin/contracts/token/ERC721/ERC721.sol\";\nimport \"./node_modules/@openzeppelin/contracts/token/ERC721/extensions/ERC721Burnable.sol\";\nimport \"./node_modules/@openzeppelin/contracts/access/Ownable.sol\";\nimport \"./node_modules/@openzeppelin/contracts/access/AccessControl.sol\";\nimport \"./node_modules/@openzeppelin/contracts/token/ERC721/extensions/ERC721URIStorage.sol\";\nimport \"./node_modules/@openzeppelin/contracts/utils/Counters.sol\";\nimport \"./node_modules/@openzeppelin/contracts/utils/Strings.sol\";\n\ncontract TicketNFT is ERC721, ERC721Burnable, ERC721URIStorage, Ownable, AccessControl {\n    using Counters for Counters.Counter;\n    mapping (uint256 => address) public ticketIndexToOwner;//Ticket index to owner\n    // Can change minter to array. This will enable multiple accounts to mint\n    bytes32 public constant MINTER_ROLE = keccak256(\"MINTER_ROLE\");//Account who can mint\n    bytes32 public constant VERIFIED_ACCOUNTS = keccak256(\"VERIFIED_ACCOUNTS\");//Accounts that are verified(in our database)\n    bytes32 public constant GEA_ACCOUNTS = keccak256(\"GEA_ACCOUNTS\");//Accounts belonging to GEA\n    Ticket[] public _allTickets;//Array that contains all tickets index is ticket ID\n    //Common for all tickets\n    string public _eventName;\n    string public _eventLocation;\n    string public _eventType;\n    uint256 public _startDate;\n    uint256 public _endDate;\n    Counters.Counter public _tokenIdCounter;\n    struct Ticket{// Specific to individual ticket\n    uint256 _price;// Different categories may have different prices\n    bool _forSale;// If true indicates that any verified account can buy the ticket\n    uint256 _seatNumber;// Each ticket has a different seat number\n    } \n    constructor(string memory name, string memory symbol,string memory eventLocation,string memory eventType,\n     uint256 startDate, uint256 endDate) ERC721(name, symbol){\n        _setupRole(DEFAULT_ADMIN_ROLE, msg.sender);\n        _eventLocation = eventLocation;\n        _eventType = eventType;\n        _startDate = startDate;\n        _endDate = endDate;\n    } \n\n\n    function safeMint(address to, string memory uri, uint256 price, uint256 seatNumber) public onlyRole(MINTER_ROLE) {\n        require(hasRole(GEA_ACCOUNTS, to), \"Cannot mint to account not owned by GEA\");\n        uint256 tokenId = _tokenIdCounter.current();\n        _allTickets.push(Ticket(price,true,seatNumber));// Add new ticket to array of tickets(true because it is originally with GEA who want to sell immidiatly)\n        _tokenIdCounter.increment();//Increment counter\n        _safeMint(to, tokenId);// Mint ticket\n        ticketIndexToOwner[tokenId] = to;\n        _setTokenURI(tokenId, uri);// URI will hold metadata such as image\n    }\n    //Function to buy ticket\n    function buy(\n        uint256 tokenId,\n        bytes memory data)public payable onlyRole(VERIFIED_ACCOUNTS){\n            require(_allTickets[tokenId]._forSale == true,\"Ticket not for sale\");\n            require(msg.value == _allTickets[tokenId]._price, \"Incorrect price\");\n            super._safeTransfer(ownerOf(tokenId),msg.sender,tokenId, data);\n            ticketIndexToOwner[tokenId] = msg.sender;//Ticket is now owned by sender\n            _allTickets[tokenId]._forSale = false;//Ticket no longer for sale once transfered to new owner\n        }\n    //Function to either enable or disable sale of ticket\n    function sale(bool option,uint256 tokenId) public {\n        require(ticketIndexToOwner[tokenId]==msg.sender,\"No ticket owner\");\n        _allTickets[tokenId]._forSale = option;\n    }\n\n    function safeTransferFrom(\n        address from,\n        address to,\n        uint256 tokenId,\n        bytes memory data\n    ) public virtual override {\n        require(false,\"Cannot transfer, can only sell\");\n    }\n    // Overrides reequired by solidity\n     function _burn(uint256 tokenId) internal override(ERC721, ERC721URIStorage) {\n        super._burn(tokenId);\n    }\n\n    function tokenURI(uint256 tokenId)\n        public\n        view\n        override(ERC721, ERC721URIStorage)\n        returns (string memory)\n    {\n        return super.tokenURI(tokenId);\n    }\n    function supportsInterface(bytes4 interfaceId)\n        public\n        view\n        override(ERC721, AccessControl)\n        returns (bool)\n    {\n        return super.supportsInterface(interfaceId);\n    }\n}",
  "sourcePath": "/Users/Faisal/Desktop/Capstone/Immutable-Ticketing/truffle/contracts/TicketNFT.sol",
  "compiler": {
    "name": "solc",
    "version": "0.8.19+commit.7dd6d404.Emscripten.clang"
  },
  "schemaVersion": "3.4.13",
  "updatedAt": "2023-03-26T23:15:13.624Z",
  "networkType": "ethereum",
  "devdoc": {
    "events": {
      "Approval(address,address,uint256)": {
        "details": "Emitted when `owner` enables `approved` to manage the `tokenId` token."
      },
      "ApprovalForAll(address,address,bool)": {
        "details": "Emitted when `owner` enables or disables (`approved`) `operator` to manage all of its assets."
      },
      "RoleAdminChanged(bytes32,bytes32,bytes32)": {
        "details": "Emitted when `newAdminRole` is set as ``role``'s admin role, replacing `previousAdminRole` `DEFAULT_ADMIN_ROLE` is the starting admin for all roles, despite {RoleAdminChanged} not being emitted signaling this. _Available since v3.1._"
      },
      "RoleGranted(bytes32,address,address)": {
        "details": "Emitted when `account` is granted `role`. `sender` is the account that originated the contract call, an admin role bearer except when using {AccessControl-_setupRole}."
      },
      "RoleRevoked(bytes32,address,address)": {
        "details": "Emitted when `account` is revoked `role`. `sender` is the account that originated the contract call:   - if using `revokeRole`, it is the admin role bearer   - if using `renounceRole`, it is the role bearer (i.e. `account`)"
      },
      "Transfer(address,address,uint256)": {
        "details": "Emitted when `tokenId` token is transferred from `from` to `to`."
      }
    },
    "kind": "dev",
    "methods": {
      "approve(address,uint256)": {
        "details": "See {IERC721-approve}."
      },
      "balanceOf(address)": {
        "details": "See {IERC721-balanceOf}."
      },
      "burn(uint256)": {
        "details": "Burns `tokenId`. See {ERC721-_burn}. Requirements: - The caller must own `tokenId` or be an approved operator."
      },
      "getApproved(uint256)": {
        "details": "See {IERC721-getApproved}."
      },
      "getRoleAdmin(bytes32)": {
        "details": "Returns the admin role that controls `role`. See {grantRole} and {revokeRole}. To change a role's admin, use {_setRoleAdmin}."
      },
      "grantRole(bytes32,address)": {
        "details": "Grants `role` to `account`. If `account` had not been already granted `role`, emits a {RoleGranted} event. Requirements: - the caller must have ``role``'s admin role. May emit a {RoleGranted} event."
      },
      "hasRole(bytes32,address)": {
        "details": "Returns `true` if `account` has been granted `role`."
      },
      "isApprovedForAll(address,address)": {
        "details": "See {IERC721-isApprovedForAll}."
      },
      "name()": {
        "details": "See {IERC721Metadata-name}."
      },
      "owner()": {
        "details": "Returns the address of the current owner."
      },
      "ownerOf(uint256)": {
        "details": "See {IERC721-ownerOf}."
      },
      "renounceOwnership()": {
        "details": "Leaves the contract without owner. It will not be possible to call `onlyOwner` functions anymore. Can only be called by the current owner. NOTE: Renouncing ownership will leave the contract without an owner, thereby removing any functionality that is only available to the owner."
      },
      "renounceRole(bytes32,address)": {
        "details": "Revokes `role` from the calling account. Roles are often managed via {grantRole} and {revokeRole}: this function's purpose is to provide a mechanism for accounts to lose their privileges if they are compromised (such as when a trusted device is misplaced). If the calling account had been revoked `role`, emits a {RoleRevoked} event. Requirements: - the caller must be `account`. May emit a {RoleRevoked} event."
      },
      "revokeRole(bytes32,address)": {
        "details": "Revokes `role` from `account`. If `account` had been granted `role`, emits a {RoleRevoked} event. Requirements: - the caller must have ``role``'s admin role. May emit a {RoleRevoked} event."
      },
      "safeTransferFrom(address,address,uint256)": {
        "details": "See {IERC721-safeTransferFrom}."
      },
      "safeTransferFrom(address,address,uint256,bytes)": {
        "details": "See {IERC721-safeTransferFrom}."
      },
      "setApprovalForAll(address,bool)": {
        "details": "See {IERC721-setApprovalForAll}."
      },
      "symbol()": {
        "details": "See {IERC721Metadata-symbol}."
      },
      "transferFrom(address,address,uint256)": {
        "details": "See {IERC721-transferFrom}."
      },
      "transferOwnership(address)": {
        "details": "Transfers ownership of the contract to a new account (`newOwner`). Can only be called by the current owner."
      }
    },
    "version": 1
  },
  "userdoc": {
    "kind": "user",
    "methods": {},
    "version": 1
  }
}