{
  "contractName": "TicketNFT",
  "abi": [
    {
      "inputs": [
        {
          "internalType": "string",
          "name": "name",
          "type": "string"
        },
        {
          "internalType": "string",
          "name": "symbol",
          "type": "string"
        },
        {
          "internalType": "string",
          "name": "eventLocation",
          "type": "string"
        },
        {
          "internalType": "string",
          "name": "eventType",
          "type": "string"
        },
        {
          "internalType": "uint256",
          "name": "startDate",
          "type": "uint256"
        },
        {
          "internalType": "uint256",
          "name": "endDate",
          "type": "uint256"
        }
      ],
      "stateMutability": "nonpayable",
      "type": "constructor"
    },
    {
      "anonymous": false,
      "inputs": [
        {
          "indexed": true,
          "internalType": "address",
          "name": "owner",
          "type": "address"
        },
        {
          "indexed": true,
          "internalType": "address",
          "name": "approved",
          "type": "address"
        },
        {
          "indexed": true,
          "internalType": "uint256",
          "name": "tokenId",
          "type": "uint256"
        }
      ],
      "name": "Approval",
      "type": "event"
    },
    {
      "anonymous": false,
      "inputs": [
        {
          "indexed": true,
          "internalType": "address",
          "name": "owner",
          "type": "address"
        },
        {
          "indexed": true,
          "internalType": "address",
          "name": "operator",
          "type": "address"
        },
        {
          "indexed": false,
          "internalType": "bool",
          "name": "approved",
          "type": "bool"
        }
      ],
      "name": "ApprovalForAll",
      "type": "event"
    },
    {
      "anonymous": false,
      "inputs": [
        {
          "indexed": false,
          "internalType": "uint256",
          "name": "tokenId",
          "type": "uint256"
        },
        {
          "indexed": false,
          "internalType": "uint256",
          "name": "price",
          "type": "uint256"
        },
        {
          "indexed": true,
          "internalType": "address",
          "name": "_from",
          "type": "address"
        },
        {
          "indexed": true,
          "internalType": "address",
          "name": "_to",
          "type": "address"
        },
        {
          "indexed": false,
          "internalType": "uint256",
          "name": "date",
          "type": "uint256"
        }
      ],
      "name": "BuyEvent",
      "type": "event"
    },
    {
      "anonymous": false,
      "inputs": [
        {
          "indexed": false,
          "internalType": "uint256",
          "name": "tokenId",
          "type": "uint256"
        },
        {
          "indexed": true,
          "internalType": "address",
          "name": "_to",
          "type": "address"
        },
        {
          "indexed": false,
          "internalType": "uint256",
          "name": "date",
          "type": "uint256"
        }
      ],
      "name": "MintEvent",
      "type": "event"
    },
    {
      "anonymous": false,
      "inputs": [
        {
          "indexed": true,
          "internalType": "address",
          "name": "previousOwner",
          "type": "address"
        },
        {
          "indexed": true,
          "internalType": "address",
          "name": "newOwner",
          "type": "address"
        }
      ],
      "name": "OwnershipTransferred",
      "type": "event"
    },
    {
      "anonymous": false,
      "inputs": [
        {
          "indexed": true,
          "internalType": "bytes32",
          "name": "role",
          "type": "bytes32"
        },
        {
          "indexed": true,
          "internalType": "bytes32",
          "name": "previousAdminRole",
          "type": "bytes32"
        },
        {
          "indexed": true,
          "internalType": "bytes32",
          "name": "newAdminRole",
          "type": "bytes32"
        }
      ],
      "name": "RoleAdminChanged",
      "type": "event"
    },
    {
      "anonymous": false,
      "inputs": [
        {
          "indexed": true,
          "internalType": "bytes32",
          "name": "role",
          "type": "bytes32"
        },
        {
          "indexed": true,
          "internalType": "address",
          "name": "account",
          "type": "address"
        },
        {
          "indexed": true,
          "internalType": "address",
          "name": "sender",
          "type": "address"
        }
      ],
      "name": "RoleGranted",
      "type": "event"
    },
    {
      "anonymous": false,
      "inputs": [
        {
          "indexed": true,
          "internalType": "bytes32",
          "name": "role",
          "type": "bytes32"
        },
        {
          "indexed": true,
          "internalType": "address",
          "name": "account",
          "type": "address"
        },
        {
          "indexed": true,
          "internalType": "address",
          "name": "sender",
          "type": "address"
        }
      ],
      "name": "RoleRevoked",
      "type": "event"
    },
    {
      "anonymous": false,
      "inputs": [
        {
          "indexed": true,
          "internalType": "address",
          "name": "from",
          "type": "address"
        },
        {
          "indexed": true,
          "internalType": "address",
          "name": "to",
          "type": "address"
        },
        {
          "indexed": true,
          "internalType": "uint256",
          "name": "tokenId",
          "type": "uint256"
        }
      ],
      "name": "Transfer",
      "type": "event"
    },
    {
      "anonymous": false,
      "inputs": [
        {
          "indexed": false,
          "internalType": "uint256",
          "name": "tokenId",
          "type": "uint256"
        },
        {
          "indexed": true,
          "internalType": "address",
          "name": "_from",
          "type": "address"
        },
        {
          "indexed": true,
          "internalType": "address",
          "name": "_to",
          "type": "address"
        },
        {
          "indexed": false,
          "internalType": "uint256",
          "name": "date",
          "type": "uint256"
        }
      ],
      "name": "UseEvent",
      "type": "event"
    },
    {
      "anonymous": false,
      "inputs": [
        {
          "indexed": false,
          "internalType": "uint256",
          "name": "value",
          "type": "uint256"
        }
      ],
      "name": "ValueLogged",
      "type": "event"
    },
    {
      "inputs": [],
      "name": "DEFAULT_ADMIN_ROLE",
      "outputs": [
        {
          "internalType": "bytes32",
          "name": "",
          "type": "bytes32"
        }
      ],
      "stateMutability": "view",
      "type": "function",
      "constant": true
    },
    {
      "inputs": [],
      "name": "GATE_ACCOUNTS",
      "outputs": [
        {
          "internalType": "bytes32",
          "name": "",
          "type": "bytes32"
        }
      ],
      "stateMutability": "view",
      "type": "function",
      "constant": true
    },
    {
      "inputs": [],
      "name": "GEA_ACCOUNTS",
      "outputs": [
        {
          "internalType": "bytes32",
          "name": "",
          "type": "bytes32"
        }
      ],
      "stateMutability": "view",
      "type": "function",
      "constant": true
    },
    {
      "inputs": [],
      "name": "MINTER_ROLE",
      "outputs": [
        {
          "internalType": "bytes32",
          "name": "",
          "type": "bytes32"
        }
      ],
      "stateMutability": "view",
      "type": "function",
      "constant": true
    },
    {
      "inputs": [],
      "name": "VERIFIED_ACCOUNTS",
      "outputs": [
        {
          "internalType": "bytes32",
          "name": "",
          "type": "bytes32"
        }
      ],
      "stateMutability": "view",
      "type": "function",
      "constant": true
    },
    {
      "inputs": [
        {
          "internalType": "uint256",
          "name": "",
          "type": "uint256"
        }
      ],
      "name": "_allTickets",
      "outputs": [
        {
          "internalType": "uint256",
          "name": "_price",
          "type": "uint256"
        },
        {
          "internalType": "bool",
          "name": "_forSale",
          "type": "bool"
        },
        {
          "internalType": "uint256",
          "name": "_seatNumber",
          "type": "uint256"
        },
        {
          "internalType": "string",
          "name": "_class",
          "type": "string"
        }
      ],
      "stateMutability": "view",
      "type": "function",
      "constant": true
    },
    {
      "inputs": [],
      "name": "_endDate",
      "outputs": [
        {
          "internalType": "uint256",
          "name": "",
          "type": "uint256"
        }
      ],
      "stateMutability": "view",
      "type": "function",
      "constant": true
    },
    {
      "inputs": [],
      "name": "_eventLocation",
      "outputs": [
        {
          "internalType": "string",
          "name": "",
          "type": "string"
        }
      ],
      "stateMutability": "view",
      "type": "function",
      "constant": true
    },
    {
      "inputs": [],
      "name": "_eventName",
      "outputs": [
        {
          "internalType": "string",
          "name": "",
          "type": "string"
        }
      ],
      "stateMutability": "view",
      "type": "function",
      "constant": true
    },
    {
      "inputs": [],
      "name": "_eventType",
      "outputs": [
        {
          "internalType": "string",
          "name": "",
          "type": "string"
        }
      ],
      "stateMutability": "view",
      "type": "function",
      "constant": true
    },
    {
      "inputs": [],
      "name": "_startDate",
      "outputs": [
        {
          "internalType": "uint256",
          "name": "",
          "type": "uint256"
        }
      ],
      "stateMutability": "view",
      "type": "function",
      "constant": true
    },
    {
      "inputs": [],
      "name": "_tokenIdCounter",
      "outputs": [
        {
          "internalType": "uint256",
          "name": "_value",
          "type": "uint256"
        }
      ],
      "stateMutability": "view",
      "type": "function",
      "constant": true
    },
    {
      "inputs": [
        {
          "internalType": "address",
          "name": "to",
          "type": "address"
        },
        {
          "internalType": "uint256",
          "name": "tokenId",
          "type": "uint256"
        }
      ],
      "name": "approve",
      "outputs": [],
      "stateMutability": "nonpayable",
      "type": "function"
    },
    {
      "inputs": [
        {
          "internalType": "address",
          "name": "owner",
          "type": "address"
        }
      ],
      "name": "balanceOf",
      "outputs": [
        {
          "internalType": "uint256",
          "name": "",
          "type": "uint256"
        }
      ],
      "stateMutability": "view",
      "type": "function",
      "constant": true
    },
    {
      "inputs": [
        {
          "internalType": "uint256",
          "name": "tokenId",
          "type": "uint256"
        }
      ],
      "name": "burn",
      "outputs": [],
      "stateMutability": "nonpayable",
      "type": "function"
    },
    {
      "inputs": [
        {
          "internalType": "uint256",
          "name": "tokenId",
          "type": "uint256"
        }
      ],
      "name": "getApproved",
      "outputs": [
        {
          "internalType": "address",
          "name": "",
          "type": "address"
        }
      ],
      "stateMutability": "view",
      "type": "function",
      "constant": true
    },
    {
      "inputs": [
        {
          "internalType": "bytes32",
          "name": "role",
          "type": "bytes32"
        }
      ],
      "name": "getRoleAdmin",
      "outputs": [
        {
          "internalType": "bytes32",
          "name": "",
          "type": "bytes32"
        }
      ],
      "stateMutability": "view",
      "type": "function",
      "constant": true
    },
    {
      "inputs": [
        {
          "internalType": "bytes32",
          "name": "role",
          "type": "bytes32"
        },
        {
          "internalType": "address",
          "name": "account",
          "type": "address"
        }
      ],
      "name": "grantRole",
      "outputs": [],
      "stateMutability": "nonpayable",
      "type": "function"
    },
    {
      "inputs": [
        {
          "internalType": "bytes32",
          "name": "role",
          "type": "bytes32"
        },
        {
          "internalType": "address",
          "name": "account",
          "type": "address"
        }
      ],
      "name": "hasRole",
      "outputs": [
        {
          "internalType": "bool",
          "name": "",
          "type": "bool"
        }
      ],
      "stateMutability": "view",
      "type": "function",
      "constant": true
    },
    {
      "inputs": [
        {
          "internalType": "address",
          "name": "owner",
          "type": "address"
        },
        {
          "internalType": "address",
          "name": "operator",
          "type": "address"
        }
      ],
      "name": "isApprovedForAll",
      "outputs": [
        {
          "internalType": "bool",
          "name": "",
          "type": "bool"
        }
      ],
      "stateMutability": "view",
      "type": "function",
      "constant": true
    },
    {
      "inputs": [],
      "name": "name",
      "outputs": [
        {
          "internalType": "string",
          "name": "",
          "type": "string"
        }
      ],
      "stateMutability": "view",
      "type": "function",
      "constant": true
    },
    {
      "inputs": [],
      "name": "owner",
      "outputs": [
        {
          "internalType": "address",
          "name": "",
          "type": "address"
        }
      ],
      "stateMutability": "view",
      "type": "function",
      "constant": true
    },
    {
      "inputs": [
        {
          "internalType": "uint256",
          "name": "tokenId",
          "type": "uint256"
        }
      ],
      "name": "ownerOf",
      "outputs": [
        {
          "internalType": "address",
          "name": "",
          "type": "address"
        }
      ],
      "stateMutability": "view",
      "type": "function",
      "constant": true
    },
    {
      "inputs": [],
      "name": "renounceOwnership",
      "outputs": [],
      "stateMutability": "nonpayable",
      "type": "function"
    },
    {
      "inputs": [
        {
          "internalType": "bytes32",
          "name": "role",
          "type": "bytes32"
        },
        {
          "internalType": "address",
          "name": "account",
          "type": "address"
        }
      ],
      "name": "renounceRole",
      "outputs": [],
      "stateMutability": "nonpayable",
      "type": "function"
    },
    {
      "inputs": [
        {
          "internalType": "bytes32",
          "name": "role",
          "type": "bytes32"
        },
        {
          "internalType": "address",
          "name": "account",
          "type": "address"
        }
      ],
      "name": "revokeRole",
      "outputs": [],
      "stateMutability": "nonpayable",
      "type": "function"
    },
    {
      "inputs": [
        {
          "internalType": "address",
          "name": "operator",
          "type": "address"
        },
        {
          "internalType": "bool",
          "name": "approved",
          "type": "bool"
        }
      ],
      "name": "setApprovalForAll",
      "outputs": [],
      "stateMutability": "nonpayable",
      "type": "function"
    },
    {
      "inputs": [],
      "name": "symbol",
      "outputs": [
        {
          "internalType": "string",
          "name": "",
          "type": "string"
        }
      ],
      "stateMutability": "view",
      "type": "function",
      "constant": true
    },
    {
      "inputs": [
        {
          "internalType": "uint256",
          "name": "",
          "type": "uint256"
        }
      ],
      "name": "ticketIndexToOwner",
      "outputs": [
        {
          "internalType": "address",
          "name": "",
          "type": "address"
        }
      ],
      "stateMutability": "view",
      "type": "function",
      "constant": true
    },
    {
      "inputs": [
        {
          "internalType": "address",
          "name": "from",
          "type": "address"
        },
        {
          "internalType": "address",
          "name": "to",
          "type": "address"
        },
        {
          "internalType": "uint256",
          "name": "tokenId",
          "type": "uint256"
        }
      ],
      "name": "transferFrom",
      "outputs": [],
      "stateMutability": "nonpayable",
      "type": "function"
    },
    {
      "inputs": [
        {
          "internalType": "address",
          "name": "newOwner",
          "type": "address"
        }
      ],
      "name": "transferOwnership",
      "outputs": [],
      "stateMutability": "nonpayable",
      "type": "function"
    },
    {
      "inputs": [
        {
          "internalType": "address",
          "name": "to",
          "type": "address"
        },
        {
          "internalType": "string",
          "name": "uri",
          "type": "string"
        },
        {
          "internalType": "uint256",
          "name": "price",
          "type": "uint256"
        },
        {
          "internalType": "uint256",
          "name": "seatNumber",
          "type": "uint256"
        },
        {
          "internalType": "string",
          "name": "class",
          "type": "string"
        }
      ],
      "name": "safeMint",
      "outputs": [],
      "stateMutability": "nonpayable",
      "type": "function"
    },
    {
      "inputs": [
        {
          "internalType": "uint256",
          "name": "tokenId",
          "type": "uint256"
        },
        {
          "internalType": "bytes",
          "name": "data",
          "type": "bytes"
        }
      ],
      "name": "buy",
      "outputs": [],
      "stateMutability": "payable",
      "type": "function",
      "payable": true
    },
    {
      "inputs": [
        {
          "internalType": "bool",
          "name": "option",
          "type": "bool"
        },
        {
          "internalType": "uint256",
          "name": "tokenId",
          "type": "uint256"
        }
      ],
      "name": "sale",
      "outputs": [],
      "stateMutability": "nonpayable",
      "type": "function"
    },
    {
      "inputs": [
        {
          "internalType": "address",
          "name": "to",
          "type": "address"
        },
        {
          "internalType": "uint256",
          "name": "tokenId",
          "type": "uint256"
        },
        {
          "internalType": "bytes",
          "name": "data",
          "type": "bytes"
        }
      ],
      "name": "useTicket",
      "outputs": [],
      "stateMutability": "nonpayable",
      "type": "function"
    },
    {
      "inputs": [
        {
          "internalType": "address",
          "name": "from",
          "type": "address"
        },
        {
          "internalType": "address",
          "name": "to",
          "type": "address"
        },
        {
          "internalType": "uint256",
          "name": "tokenId",
          "type": "uint256"
        }
      ],
      "name": "safeTransferFrom",
      "outputs": [],
      "stateMutability": "nonpayable",
      "type": "function"
    },
    {
      "inputs": [
        {
          "internalType": "address",
          "name": "from",
          "type": "address"
        },
        {
          "internalType": "address",
          "name": "to",
          "type": "address"
        },
        {
          "internalType": "uint256",
          "name": "tokenId",
          "type": "uint256"
        },
        {
          "internalType": "bytes",
          "name": "data",
          "type": "bytes"
        }
      ],
      "name": "safeTransferFrom",
      "outputs": [],
      "stateMutability": "nonpayable",
      "type": "function"
    },
    {
      "inputs": [
        {
          "internalType": "uint256",
          "name": "tokenId",
          "type": "uint256"
        }
      ],
      "name": "tokenURI",
      "outputs": [
        {
          "internalType": "string",
          "name": "",
          "type": "string"
        }
      ],
      "stateMutability": "view",
      "type": "function",
      "constant": true
    },
    {
      "inputs": [
        {
          "internalType": "bytes4",
          "name": "interfaceId",
          "type": "bytes4"
        }
      ],
      "name": "supportsInterface",
      "outputs": [
        {
          "internalType": "bool",
          "name": "",
          "type": "bool"
        }
      ],
      "stateMutability": "view",
      "type": "function",
      "constant": true
    }
  ],
  "bytecode": "0x60806040523480156200001157600080fd5b5060405162005ac838038062005ac88339818101604052810190620000379190620004e1565b858581600090816200004a91906200083a565b5080600190816200005c91906200083a565b5050506200007f62000073620000d260201b60201c565b620000da60201b60201c565b620000946000801b33620001a060201b60201c565b83600c9081620000a591906200083a565b5082600d9081620000b791906200083a565b5081600e8190555080600f8190555050505050505062000921565b600033905090565b6000600760009054906101000a900473ffffffffffffffffffffffffffffffffffffffff16905081600760006101000a81548173ffffffffffffffffffffffffffffffffffffffff021916908373ffffffffffffffffffffffffffffffffffffffff1602179055508173ffffffffffffffffffffffffffffffffffffffff168173ffffffffffffffffffffffffffffffffffffffff167f8be0079c531659141344cd1fd0a4f28419497f9722a3daafe3b4186f6b6457e060405160405180910390a35050565b620001b28282620001b660201b60201c565b5050565b620001c88282620002a860201b60201c565b620002a45760016008600084815260200190815260200160002060000160008373ffffffffffffffffffffffffffffffffffffffff1673ffffffffffffffffffffffffffffffffffffffff16815260200190815260200160002060006101000a81548160ff02191690831515021790555062000249620000d260201b60201c565b73ffffffffffffffffffffffffffffffffffffffff168173ffffffffffffffffffffffffffffffffffffffff16837f2f8788117e7eff1d82e926ec794901d17c78024a50270940304540a733656f0d60405160405180910390a45b5050565b60006008600084815260200190815260200160002060000160008373ffffffffffffffffffffffffffffffffffffffff1673ffffffffffffffffffffffffffffffffffffffff16815260200190815260200160002060009054906101000a900460ff16905092915050565b6000604051905090565b600080fd5b600080fd5b600080fd5b600080fd5b6000601f19601f8301169050919050565b7f4e487b7100000000000000000000000000000000000000000000000000000000600052604160045260246000fd5b6200037c8262000331565b810181811067ffffffffffffffff821117156200039e576200039d62000342565b5b80604052505050565b6000620003b362000313565b9050620003c1828262000371565b919050565b600067ffffffffffffffff821115620003e457620003e362000342565b5b620003ef8262000331565b9050602081019050919050565b60005b838110156200041c578082015181840152602081019050620003ff565b60008484015250505050565b60006200043f6200043984620003c6565b620003a7565b9050828152602081018484840111156200045e576200045d6200032c565b5b6200046b848285620003fc565b509392505050565b600082601f8301126200048b576200048a62000327565b5b81516200049d84826020860162000428565b91505092915050565b6000819050919050565b620004bb81620004a6565b8114620004c757600080fd5b50565b600081519050620004db81620004b0565b92915050565b60008060008060008060c087890312156200050157620005006200031d565b5b600087015167ffffffffffffffff81111562000522576200052162000322565b5b6200053089828a0162000473565b965050602087015167ffffffffffffffff81111562000554576200055362000322565b5b6200056289828a0162000473565b955050604087015167ffffffffffffffff81111562000586576200058562000322565b5b6200059489828a0162000473565b945050606087015167ffffffffffffffff811115620005b857620005b762000322565b5b620005c689828a0162000473565b9350506080620005d989828a01620004ca565b92505060a0620005ec89828a01620004ca565b9150509295509295509295565b600081519050919050565b7f4e487b7100000000000000000000000000000000000000000000000000000000600052602260045260246000fd5b600060028204905060018216806200064c57607f821691505b60208210810362000662576200066162000604565b5b50919050565b60008190508160005260206000209050919050565b60006020601f8301049050919050565b600082821b905092915050565b600060088302620006cc7fffffffffffffffffffffffffffffffffffffffffffffffffffffffffffffffff826200068d565b620006d886836200068d565b95508019841693508086168417925050509392505050565b6000819050919050565b60006200071b620007156200070f84620004a6565b620006f0565b620004a6565b9050919050565b6000819050919050565b6200073783620006fa565b6200074f620007468262000722565b8484546200069a565b825550505050565b600090565b6200076662000757565b620007738184846200072c565b505050565b5b818110156200079b576200078f6000826200075c565b60018101905062000779565b5050565b601f821115620007ea57620007b48162000668565b620007bf846200067d565b81016020851015620007cf578190505b620007e7620007de856200067d565b83018262000778565b50505b505050565b600082821c905092915050565b60006200080f60001984600802620007ef565b1980831691505092915050565b60006200082a8383620007fc565b9150826002028217905092915050565b6200084582620005f9565b67ffffffffffffffff81111562000861576200086062000342565b5b6200086d825462000633565b6200087a8282856200079f565b600060209050601f831160018114620008b257600084156200089d578287015190505b620008a985826200081c565b86555062000919565b601f198416620008c28662000668565b60005b82811015620008ec57848901518255600182019150602085019450602081019050620008c5565b868310156200090c578489015162000908601f891682620007fc565b8355505b6001600288020188555050505b505050505050565b61519780620009316000396000f3fe6080604052600436106102305760003560e01c8063821895511161012e578063ac8daba0116100ab578063d547741f1161006f578063d547741f14610859578063dbfa586314610882578063e985e9c5146108ad578063f2fde38b146108ea578063fbaa392b1461091357610230565b8063ac8daba014610772578063b88d4fde1461079d578063b8cba204146107c6578063c87b56dd146107f1578063d53913931461082e57610230565b8063924eef47116100f2578063924eef471461069f57806395d89b41146106c8578063a217fddf146106f3578063a22cb4651461071e578063a9ec9a221461074757610230565b806382189551146105c557806384c4bd4b146105e15780638c4459771461060c5780638da5cb5b1461063757806391d148541461066257610230565b806336568abe116101bc5780634c95ef60116101805780634c95ef60146104cc5780636352211e146104f757806370a0823114610534578063715018a61461057157806380310ea51461058857610230565b806336568abe146103e657806342842e0e1461040f57806342966c68146104385780634960209a1461046157806349a5aaf0146104a157610230565b80630ad41329116102035780630ad413291461030357806323b872dd1461032e578063248a9ca3146103575780632674c2a7146103945780632f2ff15d146103bd57610230565b806301ffc9a71461023557806306fdde0314610272578063081812fc1461029d578063095ea7b3146102da575b600080fd5b34801561024157600080fd5b5061025c6004803603810190610257919061366c565b61093c565b60405161026991906136b4565b60405180910390f35b34801561027e57600080fd5b5061028761094e565b604051610294919061375f565b60405180910390f35b3480156102a957600080fd5b506102c460048036038101906102bf91906137b7565b6109e0565b6040516102d19190613825565b60405180910390f35b3480156102e657600080fd5b5061030160048036038101906102fc919061386c565b610a26565b005b34801561030f57600080fd5b50610318610b3d565b60405161032591906138c5565b60405180910390f35b34801561033a57600080fd5b50610355600480360381019061035091906138e0565b610b61565b005b34801561036357600080fd5b5061037e6004803603810190610379919061395f565b610bc1565b60405161038b91906138c5565b60405180910390f35b3480156103a057600080fd5b506103bb60048036038101906103b69190613ac1565b610be1565b005b3480156103c957600080fd5b506103e460048036038101906103df9190613b30565b610dce565b005b3480156103f257600080fd5b5061040d60048036038101906104089190613b30565b610def565b005b34801561041b57600080fd5b50610436600480360381019061043191906138e0565b610e72565b005b34801561044457600080fd5b5061045f600480360381019061045a91906137b7565b610e92565b005b34801561046d57600080fd5b50610488600480360381019061048391906137b7565b610eee565b6040516104989493929190613b7f565b60405180910390f35b3480156104ad57600080fd5b506104b6610fc3565b6040516104c391906138c5565b60405180910390f35b3480156104d857600080fd5b506104e1610fe7565b6040516104ee919061375f565b60405180910390f35b34801561050357600080fd5b5061051e600480360381019061051991906137b7565b611075565b60405161052b9190613825565b60405180910390f35b34801561054057600080fd5b5061055b60048036038101906105569190613bcb565b6110fb565b6040516105689190613bf8565b60405180910390f35b34801561057d57600080fd5b506105866111b2565b005b34801561059457600080fd5b506105af60048036038101906105aa91906137b7565b6111c6565b6040516105bc9190613825565b60405180910390f35b6105df60048036038101906105da9190613c13565b6111f9565b005b3480156105ed57600080fd5b506105f661145a565b6040516106039190613bf8565b60405180910390f35b34801561061857600080fd5b50610621611466565b60405161062e919061375f565b60405180910390f35b34801561064357600080fd5b5061064c6114f4565b6040516106599190613825565b60405180910390f35b34801561066e57600080fd5b5061068960048036038101906106849190613b30565b61151e565b60405161069691906136b4565b60405180910390f35b3480156106ab57600080fd5b506106c660048036038101906106c19190613c9b565b611589565b005b3480156106d457600080fd5b506106dd61166b565b6040516106ea919061375f565b60405180910390f35b3480156106ff57600080fd5b506107086116fd565b60405161071591906138c5565b60405180910390f35b34801561072a57600080fd5b5061074560048036038101906107409190613cdb565b611704565b005b34801561075357600080fd5b5061075c61171a565b60405161076991906138c5565b60405180910390f35b34801561077e57600080fd5b5061078761173e565b6040516107949190613bf8565b60405180910390f35b3480156107a957600080fd5b506107c460048036038101906107bf9190613d1b565b611744565b005b3480156107d257600080fd5b506107db61178b565b6040516107e8919061375f565b60405180910390f35b3480156107fd57600080fd5b50610818600480360381019061081391906137b7565b611819565b604051610825919061375f565b60405180910390f35b34801561083a57600080fd5b5061084361182b565b60405161085091906138c5565b60405180910390f35b34801561086557600080fd5b50610880600480360381019061087b9190613b30565b61184f565b005b34801561088e57600080fd5b50610897611870565b6040516108a49190613bf8565b60405180910390f35b3480156108b957600080fd5b506108d460048036038101906108cf9190613d9e565b611876565b6040516108e191906136b4565b60405180910390f35b3480156108f657600080fd5b50610911600480360381019061090c9190613bcb565b61190a565b005b34801561091f57600080fd5b5061093a60048036038101906109359190613e7f565b61198d565b005b600061094782611b98565b9050919050565b60606000805461095d90613f61565b80601f016020809104026020016040519081016040528092919081815260200182805461098990613f61565b80156109d65780601f106109ab576101008083540402835291602001916109d6565b820191906000526020600020905b8154815290600101906020018083116109b957829003601f168201915b5050505050905090565b60006109eb82611c12565b6004600083815260200190815260200160002060009054906101000a900473ffffffffffffffffffffffffffffffffffffffff169050919050565b6000610a3182611075565b90508073ffffffffffffffffffffffffffffffffffffffff168373ffffffffffffffffffffffffffffffffffffffff1603610aa1576040517f08c379a0000000000000000000000000000000000000000000000000000000008152600401610a9890614004565b60405180910390fd5b8073ffffffffffffffffffffffffffffffffffffffff16610ac0611c5d565b73ffffffffffffffffffffffffffffffffffffffff161480610aef5750610aee81610ae9611c5d565b611876565b5b610b2e576040517f08c379a0000000000000000000000000000000000000000000000000000000008152600401610b2590614096565b60405180910390fd5b610b388383611c65565b505050565b7f8c04bd11d77ff50ce74eb27dbf3be5835bb80388d39725f7e4808cb26a02e7cd81565b610b72610b6c611c5d565b82611d1e565b610bb1576040517f08c379a0000000000000000000000000000000000000000000000000000000008152600401610ba890614128565b60405180910390fd5b610bbc838383611db3565b505050565b600060086000838152602001908152602001600020600101549050919050565b7f8c04bd11d77ff50ce74eb27dbf3be5835bb80388d39725f7e4808cb26a02e7cd610c0b816120ac565b610c357ff1e558ad2d1ae84c04c78952391580ee1aabc290ce5ab9337aaa08da394d328f8561151e565b610c74576040517f08c379a0000000000000000000000000000000000000000000000000000000008152600401610c6b906141ba565b60405180910390fd5b60001515600a8481548110610c8c57610c8b6141da565b5b906000526020600020906004020160010160009054906101000a900460ff16151514610ced576040517f08c379a0000000000000000000000000000000000000000000000000000000008152600401610ce490614255565b60405180910390fd5b610d01610cf984611075565b8585856120c0565b836009600085815260200190815260200160002060006101000a81548173ffffffffffffffffffffffffffffffffffffffff021916908373ffffffffffffffffffffffffffffffffffffffff16021790555060004290508473ffffffffffffffffffffffffffffffffffffffff16610d7885611075565b73ffffffffffffffffffffffffffffffffffffffff167fbc79e7b4bbe7f7220c1a336e4de753ddd76563da36de5ec1639a063cf9c37e038684604051610dbf929190614275565b60405180910390a35050505050565b610dd782610bc1565b610de0816120ac565b610dea838361211c565b505050565b610df7611c5d565b73ffffffffffffffffffffffffffffffffffffffff168173ffffffffffffffffffffffffffffffffffffffff1614610e64576040517f08c379a0000000000000000000000000000000000000000000000000000000008152600401610e5b90614310565b60405180910390fd5b610e6e82826121fd565b5050565b610e8d83838360405180602001604052806000815250611744565b505050565b610ea3610e9d611c5d565b82611d1e565b610ee2576040517f08c379a0000000000000000000000000000000000000000000000000000000008152600401610ed990614128565b60405180910390fd5b610eeb816122df565b50565b600a8181548110610efe57600080fd5b90600052602060002090600402016000915090508060000154908060010160009054906101000a900460ff1690806002015490806003018054610f4090613f61565b80601f0160208091040260200160405190810160405280929190818152602001828054610f6c90613f61565b8015610fb95780601f10610f8e57610100808354040283529160200191610fb9565b820191906000526020600020905b815481529060010190602001808311610f9c57829003601f168201915b5050505050905084565b7fbc7dbb233c603795f906644f7c42dc46861c7eaeae18d4f0099de42c6a7c92de81565b600c8054610ff490613f61565b80601f016020809104026020016040519081016040528092919081815260200182805461102090613f61565b801561106d5780601f106110425761010080835404028352916020019161106d565b820191906000526020600020905b81548152906001019060200180831161105057829003601f168201915b505050505081565b600080611081836122eb565b9050600073ffffffffffffffffffffffffffffffffffffffff168173ffffffffffffffffffffffffffffffffffffffff16036110f2576040517f08c379a00000000000000000000000000000000000000000000000000000000081526004016110e99061437c565b60405180910390fd5b80915050919050565b60008073ffffffffffffffffffffffffffffffffffffffff168273ffffffffffffffffffffffffffffffffffffffff160361116b576040517f08c379a00000000000000000000000000000000000000000000000000000000081526004016111629061440e565b60405180910390fd5b600360008373ffffffffffffffffffffffffffffffffffffffff1673ffffffffffffffffffffffffffffffffffffffff168152602001908152602001600020549050919050565b6111ba612328565b6111c460006123a6565b565b60096020528060005260406000206000915054906101000a900473ffffffffffffffffffffffffffffffffffffffff1681565b7f8c04bd11d77ff50ce74eb27dbf3be5835bb80388d39725f7e4808cb26a02e7cd611223816120ac565b60011515600a848154811061123b5761123a6141da565b5b906000526020600020906004020160010160009054906101000a900460ff1615151461129c576040517f08c379a00000000000000000000000000000000000000000000000000000000081526004016112939061447a565b60405180910390fd5b600a83815481106112b0576112af6141da565b5b9060005260206000209060040201600001543414611303576040517f08c379a00000000000000000000000000000000000000000000000000000000081526004016112fa906144e6565b60405180910390fd5b7f90cdca1b020636d47627223f96eaf00cf8f1359630dd01afbbbe837a4e3b6284346040516113329190613bf8565b60405180910390a161134e61134684611075565b3385856120c0565b336009600085815260200190815260200160002060006101000a81548173ffffffffffffffffffffffffffffffffffffffff021916908373ffffffffffffffffffffffffffffffffffffffff1602179055506000600a84815481106113b6576113b56141da565b5b906000526020600020906004020160010160006101000a81548160ff02191690831515021790555060004290503373ffffffffffffffffffffffffffffffffffffffff1661140385611075565b73ffffffffffffffffffffffffffffffffffffffff167fde5ab4a0793a4bfd8ebb869563bb9a05f7d4a899db92c57fd58865136c89a3e786348560405161144c93929190614506565b60405180910390a350505050565b60108060000154905081565b600b805461147390613f61565b80601f016020809104026020016040519081016040528092919081815260200182805461149f90613f61565b80156114ec5780601f106114c1576101008083540402835291602001916114ec565b820191906000526020600020905b8154815290600101906020018083116114cf57829003601f168201915b505050505081565b6000600760009054906101000a900473ffffffffffffffffffffffffffffffffffffffff16905090565b60006008600084815260200190815260200160002060000160008373ffffffffffffffffffffffffffffffffffffffff1673ffffffffffffffffffffffffffffffffffffffff16815260200190815260200160002060009054906101000a900460ff16905092915050565b3373ffffffffffffffffffffffffffffffffffffffff166009600083815260200190815260200160002060009054906101000a900473ffffffffffffffffffffffffffffffffffffffff1673ffffffffffffffffffffffffffffffffffffffff161461162a576040517f08c379a000000000000000000000000000000000000000000000000000000000815260040161162190614589565b60405180910390fd5b81600a828154811061163f5761163e6141da565b5b906000526020600020906004020160010160006101000a81548160ff0219169083151502179055505050565b60606001805461167a90613f61565b80601f01602080910402602001604051908101604052809291908181526020018280546116a690613f61565b80156116f35780601f106116c8576101008083540402835291602001916116f3565b820191906000526020600020905b8154815290600101906020018083116116d657829003601f168201915b5050505050905090565b6000801b81565b61171661170f611c5d565b838361246c565b5050565b7ff1e558ad2d1ae84c04c78952391580ee1aabc290ce5ab9337aaa08da394d328f81565b600e5481565b6000611785576040517f08c379a000000000000000000000000000000000000000000000000000000000815260040161177c906145f5565b60405180910390fd5b50505050565b600d805461179890613f61565b80601f01602080910402602001604051908101604052809291908181526020018280546117c490613f61565b80156118115780601f106117e657610100808354040283529160200191611811565b820191906000526020600020905b8154815290600101906020018083116117f457829003601f168201915b505050505081565b6060611824826125d8565b9050919050565b7f9f2df0fed2c77648de5860a4cc508cd0818c85b8b8a1ab4ceeef8d981c8956a681565b61185882610bc1565b611861816120ac565b61186b83836121fd565b505050565b600f5481565b6000600560008473ffffffffffffffffffffffffffffffffffffffff1673ffffffffffffffffffffffffffffffffffffffff16815260200190815260200160002060008373ffffffffffffffffffffffffffffffffffffffff1673ffffffffffffffffffffffffffffffffffffffff16815260200190815260200160002060009054906101000a900460ff16905092915050565b611912612328565b600073ffffffffffffffffffffffffffffffffffffffff168173ffffffffffffffffffffffffffffffffffffffff1603611981576040517f08c379a000000000000000000000000000000000000000000000000000000000815260040161197890614687565b60405180910390fd5b61198a816123a6565b50565b7f9f2df0fed2c77648de5860a4cc508cd0818c85b8b8a1ab4ceeef8d981c8956a66119b7816120ac565b6119e17fbc7dbb233c603795f906644f7c42dc46861c7eaeae18d4f0099de42c6a7c92de8761151e565b611a20576040517f08c379a0000000000000000000000000000000000000000000000000000000008152600401611a1790614719565b60405180910390fd5b6000611a2c60106126ea565b9050600a60405180608001604052808781526020016001151581526020018681526020018581525090806001815401808255809150506001900390600052602060002090600402016000909190919091506000820151816000015560208201518160010160006101000a81548160ff021916908315150217905550604082015181600201556060820151816003019081611ac691906148e5565b505050611ad360106126f8565b611add878261270e565b866009600083815260200190815260200160002060006101000a81548173ffffffffffffffffffffffffffffffffffffffff021916908373ffffffffffffffffffffffffffffffffffffffff160217905550611b39818761272c565b60004290508773ffffffffffffffffffffffffffffffffffffffff167faf811982b25936a88564f8a6982bb9e0799e033f2e968b3ef6bc43b96eeeebaa8383604051611b86929190614275565b60405180910390a25050505050505050565b60007f7965db0b000000000000000000000000000000000000000000000000000000007bffffffffffffffffffffffffffffffffffffffffffffffffffffffff1916827bffffffffffffffffffffffffffffffffffffffffffffffffffffffff19161480611c0b5750611c0a82612799565b5b9050919050565b611c1b8161287b565b611c5a576040517f08c379a0000000000000000000000000000000000000000000000000000000008152600401611c519061437c565b60405180910390fd5b50565b600033905090565b816004600083815260200190815260200160002060006101000a81548173ffffffffffffffffffffffffffffffffffffffff021916908373ffffffffffffffffffffffffffffffffffffffff160217905550808273ffffffffffffffffffffffffffffffffffffffff16611cd883611075565b73ffffffffffffffffffffffffffffffffffffffff167f8c5be1e5ebec7d5bd14f71427d1e84f3dd0314c0f7b2291e5b200ac8c7c3b92560405160405180910390a45050565b600080611d2a83611075565b90508073ffffffffffffffffffffffffffffffffffffffff168473ffffffffffffffffffffffffffffffffffffffff161480611d6c5750611d6b8185611876565b5b80611daa57508373ffffffffffffffffffffffffffffffffffffffff16611d92846109e0565b73ffffffffffffffffffffffffffffffffffffffff16145b91505092915050565b8273ffffffffffffffffffffffffffffffffffffffff16611dd382611075565b73ffffffffffffffffffffffffffffffffffffffff1614611e29576040517f08c379a0000000000000000000000000000000000000000000000000000000008152600401611e2090614a29565b60405180910390fd5b600073ffffffffffffffffffffffffffffffffffffffff168273ffffffffffffffffffffffffffffffffffffffff1603611e98576040517f08c379a0000000000000000000000000000000000000000000000000000000008152600401611e8f90614abb565b60405180910390fd5b611ea583838360016128bc565b8273ffffffffffffffffffffffffffffffffffffffff16611ec582611075565b73ffffffffffffffffffffffffffffffffffffffff1614611f1b576040517f08c379a0000000000000000000000000000000000000000000000000000000008152600401611f1290614a29565b60405180910390fd5b6004600082815260200190815260200160002060006101000a81549073ffffffffffffffffffffffffffffffffffffffff02191690556001600360008573ffffffffffffffffffffffffffffffffffffffff1673ffffffffffffffffffffffffffffffffffffffff168152602001908152602001600020600082825403925050819055506001600360008473ffffffffffffffffffffffffffffffffffffffff1673ffffffffffffffffffffffffffffffffffffffff16815260200190815260200160002060008282540192505081905550816002600083815260200190815260200160002060006101000a81548173ffffffffffffffffffffffffffffffffffffffff021916908373ffffffffffffffffffffffffffffffffffffffff160217905550808273ffffffffffffffffffffffffffffffffffffffff168473ffffffffffffffffffffffffffffffffffffffff167fddf252ad1be2c89b69c2b068fc378daa952ba7f163c4a11628f55a4df523b3ef60405160405180910390a46120a783838360016129e2565b505050565b6120bd816120b8611c5d565b6129e8565b50565b6120cb848484611db3565b6120d784848484612a6d565b612116576040517f08c379a000000000000000000000000000000000000000000000000000000000815260040161210d90614b4d565b60405180910390fd5b50505050565b612126828261151e565b6121f95760016008600084815260200190815260200160002060000160008373ffffffffffffffffffffffffffffffffffffffff1673ffffffffffffffffffffffffffffffffffffffff16815260200190815260200160002060006101000a81548160ff02191690831515021790555061219e611c5d565b73ffffffffffffffffffffffffffffffffffffffff168173ffffffffffffffffffffffffffffffffffffffff16837f2f8788117e7eff1d82e926ec794901d17c78024a50270940304540a733656f0d60405160405180910390a45b5050565b612207828261151e565b156122db5760006008600084815260200190815260200160002060000160008373ffffffffffffffffffffffffffffffffffffffff1673ffffffffffffffffffffffffffffffffffffffff16815260200190815260200160002060006101000a81548160ff021916908315150217905550612280611c5d565b73ffffffffffffffffffffffffffffffffffffffff168173ffffffffffffffffffffffffffffffffffffffff16837ff6391f5c32d9c69d2a47ea670b442974b53935d1edc7fd64eb21e047a839171b60405160405180910390a45b5050565b6122e881612bf4565b50565b60006002600083815260200190815260200160002060009054906101000a900473ffffffffffffffffffffffffffffffffffffffff169050919050565b612330611c5d565b73ffffffffffffffffffffffffffffffffffffffff1661234e6114f4565b73ffffffffffffffffffffffffffffffffffffffff16146123a4576040517f08c379a000000000000000000000000000000000000000000000000000000000815260040161239b90614bb9565b60405180910390fd5b565b6000600760009054906101000a900473ffffffffffffffffffffffffffffffffffffffff16905081600760006101000a81548173ffffffffffffffffffffffffffffffffffffffff021916908373ffffffffffffffffffffffffffffffffffffffff1602179055508173ffffffffffffffffffffffffffffffffffffffff168173ffffffffffffffffffffffffffffffffffffffff167f8be0079c531659141344cd1fd0a4f28419497f9722a3daafe3b4186f6b6457e060405160405180910390a35050565b8173ffffffffffffffffffffffffffffffffffffffff168373ffffffffffffffffffffffffffffffffffffffff16036124da576040517f08c379a00000000000000000000000000000000000000000000000000000000081526004016124d190614c25565b60405180910390fd5b80600560008573ffffffffffffffffffffffffffffffffffffffff1673ffffffffffffffffffffffffffffffffffffffff16815260200190815260200160002060008473ffffffffffffffffffffffffffffffffffffffff1673ffffffffffffffffffffffffffffffffffffffff16815260200190815260200160002060006101000a81548160ff0219169083151502179055508173ffffffffffffffffffffffffffffffffffffffff168373ffffffffffffffffffffffffffffffffffffffff167f17307eab39ab6107e8899845ad3d59bd9653f200f220920489ca2b5937696c31836040516125cb91906136b4565b60405180910390a3505050565b60606125e382611c12565b600060066000848152602001908152602001600020805461260390613f61565b80601f016020809104026020016040519081016040528092919081815260200182805461262f90613f61565b801561267c5780601f106126515761010080835404028352916020019161267c565b820191906000526020600020905b81548152906001019060200180831161265f57829003601f168201915b50505050509050600061268d612c47565b905060008151036126a25781925050506126e5565b6000825111156126d75780826040516020016126bf929190614c81565b604051602081830303815290604052925050506126e5565b6126e084612c5e565b925050505b919050565b600081600001549050919050565b6001816000016000828254019250508190555050565b612728828260405180602001604052806000815250612cc6565b5050565b6127358261287b565b612774576040517f08c379a000000000000000000000000000000000000000000000000000000000815260040161276b90614d17565b60405180910390fd5b8060066000848152602001908152602001600020908161279491906148e5565b505050565b60007f80ac58cd000000000000000000000000000000000000000000000000000000007bffffffffffffffffffffffffffffffffffffffffffffffffffffffff1916827bffffffffffffffffffffffffffffffffffffffffffffffffffffffff1916148061286457507f5b5e139f000000000000000000000000000000000000000000000000000000007bffffffffffffffffffffffffffffffffffffffffffffffffffffffff1916827bffffffffffffffffffffffffffffffffffffffffffffffffffffffff1916145b80612874575061287382612d21565b5b9050919050565b60008073ffffffffffffffffffffffffffffffffffffffff1661289d836122eb565b73ffffffffffffffffffffffffffffffffffffffff1614159050919050565b60018111156129dc57600073ffffffffffffffffffffffffffffffffffffffff168473ffffffffffffffffffffffffffffffffffffffff16146129505780600360008673ffffffffffffffffffffffffffffffffffffffff1673ffffffffffffffffffffffffffffffffffffffff16815260200190815260200160002060008282546129489190614d66565b925050819055505b600073ffffffffffffffffffffffffffffffffffffffff168373ffffffffffffffffffffffffffffffffffffffff16146129db5780600360008573ffffffffffffffffffffffffffffffffffffffff1673ffffffffffffffffffffffffffffffffffffffff16815260200190815260200160002060008282546129d39190614d9a565b925050819055505b5b50505050565b50505050565b6129f2828261151e565b612a69576129ff81612d8b565b612a0d8360001c6020612db8565b604051602001612a1e929190614e66565b6040516020818303038152906040526040517f08c379a0000000000000000000000000000000000000000000000000000000008152600401612a60919061375f565b60405180910390fd5b5050565b6000612a8e8473ffffffffffffffffffffffffffffffffffffffff16612ff4565b15612be7578373ffffffffffffffffffffffffffffffffffffffff1663150b7a02612ab7611c5d565b8786866040518563ffffffff1660e01b8152600401612ad99493929190614ef5565b6020604051808303816000875af1925050508015612b1557506040513d601f19601f82011682018060405250810190612b129190614f56565b60015b612b97573d8060008114612b45576040519150601f19603f3d011682016040523d82523d6000602084013e612b4a565b606091505b506000815103612b8f576040517f08c379a0000000000000000000000000000000000000000000000000000000008152600401612b8690614b4d565b60405180910390fd5b805181602001fd5b63150b7a0260e01b7bffffffffffffffffffffffffffffffffffffffffffffffffffffffff1916817bffffffffffffffffffffffffffffffffffffffffffffffffffffffff191614915050612bec565b600190505b949350505050565b612bfd81613017565b6000600660008381526020019081526020016000208054612c1d90613f61565b905014612c4457600660008281526020019081526020016000206000612c4391906135a3565b5b50565b606060405180602001604052806000815250905090565b6060612c6982611c12565b6000612c73612c47565b90506000815111612c935760405180602001604052806000815250612cbe565b80612c9d84613165565b604051602001612cae929190614c81565b6040516020818303038152906040525b915050919050565b612cd08383613233565b612cdd6000848484612a6d565b612d1c576040517f08c379a0000000000000000000000000000000000000000000000000000000008152600401612d1390614b4d565b60405180910390fd5b505050565b60007f01ffc9a7000000000000000000000000000000000000000000000000000000007bffffffffffffffffffffffffffffffffffffffffffffffffffffffff1916827bffffffffffffffffffffffffffffffffffffffffffffffffffffffff1916149050919050565b6060612db18273ffffffffffffffffffffffffffffffffffffffff16601460ff16612db8565b9050919050565b606060006002836002612dcb9190614f83565b612dd59190614d9a565b67ffffffffffffffff811115612dee57612ded613996565b5b6040519080825280601f01601f191660200182016040528015612e205781602001600182028036833780820191505090505b5090507f300000000000000000000000000000000000000000000000000000000000000081600081518110612e5857612e576141da565b5b60200101907effffffffffffffffffffffffffffffffffffffffffffffffffffffffffffff1916908160001a9053507f780000000000000000000000000000000000000000000000000000000000000081600181518110612ebc57612ebb6141da565b5b60200101907effffffffffffffffffffffffffffffffffffffffffffffffffffffffffffff1916908160001a90535060006001846002612efc9190614f83565b612f069190614d9a565b90505b6001811115612fa6577f3031323334353637383961626364656600000000000000000000000000000000600f861660108110612f4857612f476141da565b5b1a60f81b828281518110612f5f57612f5e6141da565b5b60200101907effffffffffffffffffffffffffffffffffffffffffffffffffffffffffffff1916908160001a905350600485901c945080612f9f90614fc5565b9050612f09565b5060008414612fea576040517f08c379a0000000000000000000000000000000000000000000000000000000008152600401612fe19061503a565b60405180910390fd5b8091505092915050565b6000808273ffffffffffffffffffffffffffffffffffffffff163b119050919050565b600061302282611075565b90506130328160008460016128bc565b61303b82611075565b90506004600083815260200190815260200160002060006101000a81549073ffffffffffffffffffffffffffffffffffffffff02191690556001600360008373ffffffffffffffffffffffffffffffffffffffff1673ffffffffffffffffffffffffffffffffffffffff168152602001908152602001600020600082825403925050819055506002600083815260200190815260200160002060006101000a81549073ffffffffffffffffffffffffffffffffffffffff021916905581600073ffffffffffffffffffffffffffffffffffffffff168273ffffffffffffffffffffffffffffffffffffffff167fddf252ad1be2c89b69c2b068fc378daa952ba7f163c4a11628f55a4df523b3ef60405160405180910390a46131618160008460016129e2565b5050565b60606000600161317484613450565b01905060008167ffffffffffffffff81111561319357613192613996565b5b6040519080825280601f01601f1916602001820160405280156131c55781602001600182028036833780820191505090505b509050600082602001820190505b600115613228578080600190039150507f3031323334353637383961626364656600000000000000000000000000000000600a86061a8153600a858161321c5761321b61505a565b5b049450600085036131d3575b819350505050919050565b600073ffffffffffffffffffffffffffffffffffffffff168273ffffffffffffffffffffffffffffffffffffffff16036132a2576040517f08c379a0000000000000000000000000000000000000000000000000000000008152600401613299906150d5565b60405180910390fd5b6132ab8161287b565b156132eb576040517f08c379a00000000000000000000000000000000000000000000000000000000081526004016132e290615141565b60405180910390fd5b6132f96000838360016128bc565b6133028161287b565b15613342576040517f08c379a000000000000000000000000000000000000000000000000000000000815260040161333990615141565b60405180910390fd5b6001600360008473ffffffffffffffffffffffffffffffffffffffff1673ffffffffffffffffffffffffffffffffffffffff16815260200190815260200160002060008282540192505081905550816002600083815260200190815260200160002060006101000a81548173ffffffffffffffffffffffffffffffffffffffff021916908373ffffffffffffffffffffffffffffffffffffffff160217905550808273ffffffffffffffffffffffffffffffffffffffff16600073ffffffffffffffffffffffffffffffffffffffff167fddf252ad1be2c89b69c2b068fc378daa952ba7f163c4a11628f55a4df523b3ef60405160405180910390a461344c6000838360016129e2565b5050565b600080600090507a184f03e93ff9f4daa797ed6e38ed64bf6a1f01000000000000000083106134ae577a184f03e93ff9f4daa797ed6e38ed64bf6a1f01000000000000000083816134a4576134a361505a565b5b0492506040810190505b6d04ee2d6d415b85acef810000000083106134eb576d04ee2d6d415b85acef810000000083816134e1576134e061505a565b5b0492506020810190505b662386f26fc10000831061351a57662386f26fc1000083816135105761350f61505a565b5b0492506010810190505b6305f5e1008310613543576305f5e10083816135395761353861505a565b5b0492506008810190505b612710831061356857612710838161355e5761355d61505a565b5b0492506004810190505b6064831061358b57606483816135815761358061505a565b5b0492506002810190505b600a831061359a576001810190505b80915050919050565b5080546135af90613f61565b6000825580601f106135c157506135e0565b601f0160209004906000526020600020908101906135df91906135e3565b5b50565b5b808211156135fc5760008160009055506001016135e4565b5090565b6000604051905090565b600080fd5b600080fd5b60007fffffffff0000000000000000000000000000000000000000000000000000000082169050919050565b61364981613614565b811461365457600080fd5b50565b60008135905061366681613640565b92915050565b6000602082840312156136825761368161360a565b5b600061369084828501613657565b91505092915050565b60008115159050919050565b6136ae81613699565b82525050565b60006020820190506136c960008301846136a5565b92915050565b600081519050919050565b600082825260208201905092915050565b60005b838110156137095780820151818401526020810190506136ee565b60008484015250505050565b6000601f19601f8301169050919050565b6000613731826136cf565b61373b81856136da565b935061374b8185602086016136eb565b61375481613715565b840191505092915050565b600060208201905081810360008301526137798184613726565b905092915050565b6000819050919050565b61379481613781565b811461379f57600080fd5b50565b6000813590506137b18161378b565b92915050565b6000602082840312156137cd576137cc61360a565b5b60006137db848285016137a2565b91505092915050565b600073ffffffffffffffffffffffffffffffffffffffff82169050919050565b600061380f826137e4565b9050919050565b61381f81613804565b82525050565b600060208201905061383a6000830184613816565b92915050565b61384981613804565b811461385457600080fd5b50565b60008135905061386681613840565b92915050565b600080604083850312156138835761388261360a565b5b600061389185828601613857565b92505060206138a2858286016137a2565b9150509250929050565b6000819050919050565b6138bf816138ac565b82525050565b60006020820190506138da60008301846138b6565b92915050565b6000806000606084860312156138f9576138f861360a565b5b600061390786828701613857565b935050602061391886828701613857565b9250506040613929868287016137a2565b9150509250925092565b61393c816138ac565b811461394757600080fd5b50565b60008135905061395981613933565b92915050565b6000602082840312156139755761397461360a565b5b60006139838482850161394a565b91505092915050565b600080fd5b600080fd5b7f4e487b7100000000000000000000000000000000000000000000000000000000600052604160045260246000fd5b6139ce82613715565b810181811067ffffffffffffffff821117156139ed576139ec613996565b5b80604052505050565b6000613a00613600565b9050613a0c82826139c5565b919050565b600067ffffffffffffffff821115613a2c57613a2b613996565b5b613a3582613715565b9050602081019050919050565b82818337600083830152505050565b6000613a64613a5f84613a11565b6139f6565b905082815260208101848484011115613a8057613a7f613991565b5b613a8b848285613a42565b509392505050565b600082601f830112613aa857613aa761398c565b5b8135613ab8848260208601613a51565b91505092915050565b600080600060608486031215613ada57613ad961360a565b5b6000613ae886828701613857565b9350506020613af9868287016137a2565b925050604084013567ffffffffffffffff811115613b1a57613b1961360f565b5b613b2686828701613a93565b9150509250925092565b60008060408385031215613b4757613b4661360a565b5b6000613b558582860161394a565b9250506020613b6685828601613857565b9150509250929050565b613b7981613781565b82525050565b6000608082019050613b946000830187613b70565b613ba160208301866136a5565b613bae6040830185613b70565b8181036060830152613bc08184613726565b905095945050505050565b600060208284031215613be157613be061360a565b5b6000613bef84828501613857565b91505092915050565b6000602082019050613c0d6000830184613b70565b92915050565b60008060408385031215613c2a57613c2961360a565b5b6000613c38858286016137a2565b925050602083013567ffffffffffffffff811115613c5957613c5861360f565b5b613c6585828601613a93565b9150509250929050565b613c7881613699565b8114613c8357600080fd5b50565b600081359050613c9581613c6f565b92915050565b60008060408385031215613cb257613cb161360a565b5b6000613cc085828601613c86565b9250506020613cd1858286016137a2565b9150509250929050565b60008060408385031215613cf257613cf161360a565b5b6000613d0085828601613857565b9250506020613d1185828601613c86565b9150509250929050565b60008060008060808587031215613d3557613d3461360a565b5b6000613d4387828801613857565b9450506020613d5487828801613857565b9350506040613d65878288016137a2565b925050606085013567ffffffffffffffff811115613d8657613d8561360f565b5b613d9287828801613a93565b91505092959194509250565b60008060408385031215613db557613db461360a565b5b6000613dc385828601613857565b9250506020613dd485828601613857565b9150509250929050565b600067ffffffffffffffff821115613df957613df8613996565b5b613e0282613715565b9050602081019050919050565b6000613e22613e1d84613dde565b6139f6565b905082815260208101848484011115613e3e57613e3d613991565b5b613e49848285613a42565b509392505050565b600082601f830112613e6657613e6561398c565b5b8135613e76848260208601613e0f565b91505092915050565b600080600080600060a08688031215613e9b57613e9a61360a565b5b6000613ea988828901613857565b955050602086013567ffffffffffffffff811115613eca57613ec961360f565b5b613ed688828901613e51565b9450506040613ee7888289016137a2565b9350506060613ef8888289016137a2565b925050608086013567ffffffffffffffff811115613f1957613f1861360f565b5b613f2588828901613e51565b9150509295509295909350565b7f4e487b7100000000000000000000000000000000000000000000000000000000600052602260045260246000fd5b60006002820490506001821680613f7957607f821691505b602082108103613f8c57613f8b613f32565b5b50919050565b7f4552433732313a20617070726f76616c20746f2063757272656e74206f776e6560008201527f7200000000000000000000000000000000000000000000000000000000000000602082015250565b6000613fee6021836136da565b9150613ff982613f92565b604082019050919050565b6000602082019050818103600083015261401d81613fe1565b9050919050565b7f4552433732313a20617070726f76652063616c6c6572206973206e6f7420746f60008201527f6b656e206f776e6572206f7220617070726f76656420666f7220616c6c000000602082015250565b6000614080603d836136da565b915061408b82614024565b604082019050919050565b600060208201905081810360008301526140af81614073565b9050919050565b7f4552433732313a2063616c6c6572206973206e6f7420746f6b656e206f776e6560008201527f72206f7220617070726f76656400000000000000000000000000000000000000602082015250565b6000614112602d836136da565b915061411d826140b6565b604082019050919050565b6000602082019050818103600083015261414181614105565b9050919050565b7f43616e6e6f7420757365207469636b65742061742061646472657373206f746860008201527f6572207468616e20676174650000000000000000000000000000000000000000602082015250565b60006141a4602c836136da565b91506141af82614148565b604082019050919050565b600060208201905081810360008301526141d381614197565b9050919050565b7f4e487b7100000000000000000000000000000000000000000000000000000000600052603260045260246000fd5b7f5469636b657420666f722073616c650000000000000000000000000000000000600082015250565b600061423f600f836136da565b915061424a82614209565b602082019050919050565b6000602082019050818103600083015261426e81614232565b9050919050565b600060408201905061428a6000830185613b70565b6142976020830184613b70565b9392505050565b7f416363657373436f6e74726f6c3a2063616e206f6e6c792072656e6f756e636560008201527f20726f6c657320666f722073656c660000000000000000000000000000000000602082015250565b60006142fa602f836136da565b91506143058261429e565b604082019050919050565b60006020820190508181036000830152614329816142ed565b9050919050565b7f4552433732313a20696e76616c696420746f6b656e2049440000000000000000600082015250565b60006143666018836136da565b915061437182614330565b602082019050919050565b6000602082019050818103600083015261439581614359565b9050919050565b7f4552433732313a2061646472657373207a65726f206973206e6f74206120766160008201527f6c6964206f776e65720000000000000000000000000000000000000000000000602082015250565b60006143f86029836136da565b91506144038261439c565b604082019050919050565b60006020820190508181036000830152614427816143eb565b9050919050565b7f5469636b6574206e6f7420666f722073616c6500000000000000000000000000600082015250565b60006144646013836136da565b915061446f8261442e565b602082019050919050565b6000602082019050818103600083015261449381614457565b9050919050565b7f496e636f72726563742070726963650000000000000000000000000000000000600082015250565b60006144d0600f836136da565b91506144db8261449a565b602082019050919050565b600060208201905081810360008301526144ff816144c3565b9050919050565b600060608201905061451b6000830186613b70565b6145286020830185613b70565b6145356040830184613b70565b949350505050565b7f4e6f207469636b6574206f776e65720000000000000000000000000000000000600082015250565b6000614573600f836136da565b915061457e8261453d565b602082019050919050565b600060208201905081810360008301526145a281614566565b9050919050565b7f43616e6e6f74207472616e736665722c2063616e206f6e6c792073656c6c0000600082015250565b60006145df601e836136da565b91506145ea826145a9565b602082019050919050565b6000602082019050818103600083015261460e816145d2565b9050919050565b7f4f776e61626c653a206e6577206f776e657220697320746865207a65726f206160008201527f6464726573730000000000000000000000000000000000000000000000000000602082015250565b60006146716026836136da565b915061467c82614615565b604082019050919050565b600060208201905081810360008301526146a081614664565b9050919050565b7f43616e6e6f74206d696e7420746f206163636f756e74206e6f74206f776e656460008201527f2062792047454100000000000000000000000000000000000000000000000000602082015250565b60006147036027836136da565b915061470e826146a7565b604082019050919050565b60006020820190508181036000830152614732816146f6565b9050919050565b60008190508160005260206000209050919050565b60006020601f8301049050919050565b600082821b905092915050565b60006008830261479b7fffffffffffffffffffffffffffffffffffffffffffffffffffffffffffffffff8261475e565b6147a5868361475e565b95508019841693508086168417925050509392505050565b6000819050919050565b60006147e26147dd6147d884613781565b6147bd565b613781565b9050919050565b6000819050919050565b6147fc836147c7565b614810614808826147e9565b84845461476b565b825550505050565b600090565b614825614818565b6148308184846147f3565b505050565b5b818110156148545761484960008261481d565b600181019050614836565b5050565b601f8211156148995761486a81614739565b6148738461474e565b81016020851015614882578190505b61489661488e8561474e565b830182614835565b50505b505050565b600082821c905092915050565b60006148bc6000198460080261489e565b1980831691505092915050565b60006148d583836148ab565b9150826002028217905092915050565b6148ee826136cf565b67ffffffffffffffff81111561490757614906613996565b5b6149118254613f61565b61491c828285614858565b600060209050601f83116001811461494f576000841561493d578287015190505b61494785826148c9565b8655506149af565b601f19841661495d86614739565b60005b8281101561498557848901518255600182019150602085019450602081019050614960565b868310156149a2578489015161499e601f8916826148ab565b8355505b6001600288020188555050505b505050505050565b7f4552433732313a207472616e736665722066726f6d20696e636f72726563742060008201527f6f776e6572000000000000000000000000000000000000000000000000000000602082015250565b6000614a136025836136da565b9150614a1e826149b7565b604082019050919050565b60006020820190508181036000830152614a4281614a06565b9050919050565b7f4552433732313a207472616e7366657220746f20746865207a65726f2061646460008201527f7265737300000000000000000000000000000000000000000000000000000000602082015250565b6000614aa56024836136da565b9150614ab082614a49565b604082019050919050565b60006020820190508181036000830152614ad481614a98565b9050919050565b7f4552433732313a207472616e7366657220746f206e6f6e20455243373231526560008201527f63656976657220696d706c656d656e7465720000000000000000000000000000602082015250565b6000614b376032836136da565b9150614b4282614adb565b604082019050919050565b60006020820190508181036000830152614b6681614b2a565b9050919050565b7f4f776e61626c653a2063616c6c6572206973206e6f7420746865206f776e6572600082015250565b6000614ba36020836136da565b9150614bae82614b6d565b602082019050919050565b60006020820190508181036000830152614bd281614b96565b9050919050565b7f4552433732313a20617070726f766520746f2063616c6c657200000000000000600082015250565b6000614c0f6019836136da565b9150614c1a82614bd9565b602082019050919050565b60006020820190508181036000830152614c3e81614c02565b9050919050565b600081905092915050565b6000614c5b826136cf565b614c658185614c45565b9350614c758185602086016136eb565b80840191505092915050565b6000614c8d8285614c50565b9150614c998284614c50565b91508190509392505050565b7f45524337323155524953746f726167653a2055524920736574206f66206e6f6e60008201527f6578697374656e7420746f6b656e000000000000000000000000000000000000602082015250565b6000614d01602e836136da565b9150614d0c82614ca5565b604082019050919050565b60006020820190508181036000830152614d3081614cf4565b9050919050565b7f4e487b7100000000000000000000000000000000000000000000000000000000600052601160045260246000fd5b6000614d7182613781565b9150614d7c83613781565b9250828203905081811115614d9457614d93614d37565b5b92915050565b6000614da582613781565b9150614db083613781565b9250828201905080821115614dc857614dc7614d37565b5b92915050565b7f416363657373436f6e74726f6c3a206163636f756e7420000000000000000000600082015250565b6000614e04601783614c45565b9150614e0f82614dce565b601782019050919050565b7f206973206d697373696e6720726f6c6520000000000000000000000000000000600082015250565b6000614e50601183614c45565b9150614e5b82614e1a565b601182019050919050565b6000614e7182614df7565b9150614e7d8285614c50565b9150614e8882614e43565b9150614e948284614c50565b91508190509392505050565b600081519050919050565b600082825260208201905092915050565b6000614ec782614ea0565b614ed18185614eab565b9350614ee18185602086016136eb565b614eea81613715565b840191505092915050565b6000608082019050614f0a6000830187613816565b614f176020830186613816565b614f246040830185613b70565b8181036060830152614f368184614ebc565b905095945050505050565b600081519050614f5081613640565b92915050565b600060208284031215614f6c57614f6b61360a565b5b6000614f7a84828501614f41565b91505092915050565b6000614f8e82613781565b9150614f9983613781565b9250828202614fa781613781565b91508282048414831517614fbe57614fbd614d37565b5b5092915050565b6000614fd082613781565b915060008203614fe357614fe2614d37565b5b600182039050919050565b7f537472696e67733a20686578206c656e67746820696e73756666696369656e74600082015250565b60006150246020836136da565b915061502f82614fee565b602082019050919050565b6000602082019050818103600083015261505381615017565b9050919050565b7f4e487b7100000000000000000000000000000000000000000000000000000000600052601260045260246000fd5b7f4552433732313a206d696e7420746f20746865207a65726f2061646472657373600082015250565b60006150bf6020836136da565b91506150ca82615089565b602082019050919050565b600060208201905081810360008301526150ee816150b2565b9050919050565b7f4552433732313a20746f6b656e20616c7265616479206d696e74656400000000600082015250565b600061512b601c836136da565b9150615136826150f5565b602082019050919050565b6000602082019050818103600083015261515a8161511e565b905091905056fea2646970667358221220e6bec930ec3621a28d252dfc392c484f9e7d0bfad9aed5b8058d090e58b1b4d264736f6c63430008130033",
  "immutableReferences": {},
  "source": "// SPDX-License-Identifier: MIT\npragma solidity ^0.8.9;\n\nimport \"./node_modules/@openzeppelin/contracts/token/ERC721/ERC721.sol\";\nimport \"./node_modules/@openzeppelin/contracts/token/ERC721/extensions/ERC721Burnable.sol\";\nimport \"./node_modules/@openzeppelin/contracts/access/Ownable.sol\";\nimport \"./node_modules/@openzeppelin/contracts/access/AccessControl.sol\";\nimport \"./node_modules/@openzeppelin/contracts/token/ERC721/extensions/ERC721URIStorage.sol\";\nimport \"./node_modules/@openzeppelin/contracts/utils/Counters.sol\";\nimport \"./node_modules/@openzeppelin/contracts/utils/Strings.sol\";\n\ncontract TicketNFT is ERC721, ERC721Burnable, ERC721URIStorage, Ownable, AccessControl {\n    using Counters for Counters.Counter;\n    mapping (uint256 => address) public ticketIndexToOwner;//Ticket index to owner\n    // Can change minter to array. This will enable multiple accounts to mint\n    bytes32 public constant MINTER_ROLE = keccak256(\"MINTER_ROLE\");//Account who can mint\n    bytes32 public constant VERIFIED_ACCOUNTS = keccak256(\"VERIFIED_ACCOUNTS\");//Accounts that are verified(in our database)\n    bytes32 public constant GEA_ACCOUNTS = keccak256(\"GEA_ACCOUNTS\");//Accounts belonging to GEA\n    bytes32 public constant GATE_ACCOUNTS = keccak256(\"GATE_ACCOUNTS\");//Accounts belonging to Gate\n    Ticket[] public _allTickets;//Array that contains all tickets index is ticket ID\n    //Common for all tickets\n    string public _eventName;\n    string public _eventLocation;\n    string public _eventType;\n    uint256 public _startDate;\n    uint256 public _endDate;\n    Counters.Counter public _tokenIdCounter;\n    struct Ticket{// Specific to individual ticket\n    uint256 _price;// Different categories may have different prices\n    bool _forSale;// If true indicates that any verified account can buy the ticket\n    uint256 _seatNumber;// Each ticket has a different seat number\n    string _class; // Class name\n    } \n    constructor(string memory name, string memory symbol,string memory eventLocation,string memory eventType,\n     uint256 startDate, uint256 endDate) ERC721(name, symbol){\n        _setupRole(DEFAULT_ADMIN_ROLE, msg.sender);\n        _eventLocation = eventLocation;\n        _eventType = eventType;\n        _startDate = startDate;\n        _endDate = endDate;\n    } \n\n    event ValueLogged(uint256 value);\n    //Mint: ticket index, to, date\n    //Use: ticket index, from, to , date\n    //buy: ticket index, price, from, to , date\n    //uint currentTimestamp = block.timestamp;\n    event MintEvent(uint256 tokenId, address indexed _to, uint date);\n    event UseEvent(uint256 tokenId, address indexed _from, address indexed _to, uint date);\n    event BuyEvent(uint256 tokenId, uint price, address indexed _from, address indexed _to, uint date);\n\n    function safeMint(address to, string memory uri, uint256 price, uint256 seatNumber, string memory class) public onlyRole(MINTER_ROLE) {\n        require(hasRole(GEA_ACCOUNTS, to), \"Cannot mint to account not owned by GEA\");\n        uint256 tokenId = _tokenIdCounter.current();\n        _allTickets.push(Ticket(price,true,seatNumber,class));// Add new ticket to array of tickets(true because it is originally with GEA who want to sell immidiatly)\n        _tokenIdCounter.increment();//Increment counter\n        _safeMint(to, tokenId);// Mint ticket\n        ticketIndexToOwner[tokenId] = to;\n        _setTokenURI(tokenId, uri);// URI will hold metadata such as image\n        uint currentTimestamp = block.timestamp;\n        emit MintEvent(tokenId, to, currentTimestamp);\n    }\n    //Function to buy ticket\n    function buy(\n        uint256 tokenId,\n        bytes memory data)public payable onlyRole(VERIFIED_ACCOUNTS){\n            require(_allTickets[tokenId]._forSale == true,\"Ticket not for sale\");\n            require(msg.value == _allTickets[tokenId]._price, \"Incorrect price\");\n\n            // Emit an event that logs the value of msg.value\n            \n            emit ValueLogged(msg.value);\n\n            super._safeTransfer(ownerOf(tokenId),msg.sender,tokenId, data);\n            ticketIndexToOwner[tokenId] = msg.sender;//Ticket is now owned by sender\n            _allTickets[tokenId]._forSale = false;//Ticket no longer for sale once transfered to new owner\n            uint currentTimestamp = block.timestamp;\n            emit BuyEvent(tokenId,msg.value, ownerOf(tokenId), msg.sender, currentTimestamp);\n        }\n    //Function to either enable or disable sale of ticket\n    function sale(bool option,uint256 tokenId) public {\n        require(ticketIndexToOwner[tokenId]==msg.sender,\"No ticket owner\");\n        _allTickets[tokenId]._forSale = option;\n    }\n\n    //Function to use ticket at gate\n    function useTicket(address to,\n        uint256 tokenId,\n        bytes memory data)public onlyRole(VERIFIED_ACCOUNTS){\n            require(hasRole(GATE_ACCOUNTS, to), \"Cannot use ticket at address other than gate\");\n            require(_allTickets[tokenId]._forSale == false,\"Ticket for sale\");\n            super._safeTransfer(ownerOf(tokenId),to,tokenId, data);\n            ticketIndexToOwner[tokenId] = to;//Ticket is now owned by gate\n            uint currentTimestamp = block.timestamp;\n            emit UseEvent(tokenId, ownerOf(tokenId), to, currentTimestamp);\n            //emit event(tokenId, ownerOf(tokenId), to, date)\n        }\n\n    function safeTransferFrom(\n        address from,\n        address to,\n        uint256 tokenId,\n        bytes memory data\n    ) public virtual override {\n        require(false,\"Cannot transfer, can only sell\");\n    }\n    // Overrides reequired by solidity\n     function _burn(uint256 tokenId) internal override(ERC721, ERC721URIStorage) {\n        super._burn(tokenId);\n    }\n\n    function tokenURI(uint256 tokenId)\n        public\n        view\n        override(ERC721, ERC721URIStorage)\n        returns (string memory)\n    {\n        return super.tokenURI(tokenId);\n    }\n    function supportsInterface(bytes4 interfaceId)\n        public\n        view\n        override(ERC721, AccessControl)\n        returns (bool)\n    {\n        return super.supportsInterface(interfaceId);\n    }\n}",
  "sourcePath": "/Users/Faisal/Desktop/Capstone/Immutable-Ticketing/truffle/contracts/TicketNFT.sol",
  "compiler": {
    "name": "solc",
    "version": "0.8.19+commit.7dd6d404.Emscripten.clang"
  },
  "schemaVersion": "3.4.13",
  "updatedAt": "2023-04-23T19:48:57.716Z",
  "networkType": "ethereum",
  "devdoc": {
    "events": {
      "Approval(address,address,uint256)": {
        "details": "Emitted when `owner` enables `approved` to manage the `tokenId` token."
      },
      "ApprovalForAll(address,address,bool)": {
        "details": "Emitted when `owner` enables or disables (`approved`) `operator` to manage all of its assets."
      },
      "RoleAdminChanged(bytes32,bytes32,bytes32)": {
        "details": "Emitted when `newAdminRole` is set as ``role``'s admin role, replacing `previousAdminRole` `DEFAULT_ADMIN_ROLE` is the starting admin for all roles, despite {RoleAdminChanged} not being emitted signaling this. _Available since v3.1._"
      },
      "RoleGranted(bytes32,address,address)": {
        "details": "Emitted when `account` is granted `role`. `sender` is the account that originated the contract call, an admin role bearer except when using {AccessControl-_setupRole}."
      },
      "RoleRevoked(bytes32,address,address)": {
        "details": "Emitted when `account` is revoked `role`. `sender` is the account that originated the contract call:   - if using `revokeRole`, it is the admin role bearer   - if using `renounceRole`, it is the role bearer (i.e. `account`)"
      },
      "Transfer(address,address,uint256)": {
        "details": "Emitted when `tokenId` token is transferred from `from` to `to`."
      }
    },
    "kind": "dev",
    "methods": {
      "approve(address,uint256)": {
        "details": "See {IERC721-approve}."
      },
      "balanceOf(address)": {
        "details": "See {IERC721-balanceOf}."
      },
      "burn(uint256)": {
        "details": "Burns `tokenId`. See {ERC721-_burn}. Requirements: - The caller must own `tokenId` or be an approved operator."
      },
      "getApproved(uint256)": {
        "details": "See {IERC721-getApproved}."
      },
      "getRoleAdmin(bytes32)": {
        "details": "Returns the admin role that controls `role`. See {grantRole} and {revokeRole}. To change a role's admin, use {_setRoleAdmin}."
      },
      "grantRole(bytes32,address)": {
        "details": "Grants `role` to `account`. If `account` had not been already granted `role`, emits a {RoleGranted} event. Requirements: - the caller must have ``role``'s admin role. May emit a {RoleGranted} event."
      },
      "hasRole(bytes32,address)": {
        "details": "Returns `true` if `account` has been granted `role`."
      },
      "isApprovedForAll(address,address)": {
        "details": "See {IERC721-isApprovedForAll}."
      },
      "name()": {
        "details": "See {IERC721Metadata-name}."
      },
      "owner()": {
        "details": "Returns the address of the current owner."
      },
      "ownerOf(uint256)": {
        "details": "See {IERC721-ownerOf}."
      },
      "renounceOwnership()": {
        "details": "Leaves the contract without owner. It will not be possible to call `onlyOwner` functions anymore. Can only be called by the current owner. NOTE: Renouncing ownership will leave the contract without an owner, thereby removing any functionality that is only available to the owner."
      },
      "renounceRole(bytes32,address)": {
        "details": "Revokes `role` from the calling account. Roles are often managed via {grantRole} and {revokeRole}: this function's purpose is to provide a mechanism for accounts to lose their privileges if they are compromised (such as when a trusted device is misplaced). If the calling account had been revoked `role`, emits a {RoleRevoked} event. Requirements: - the caller must be `account`. May emit a {RoleRevoked} event."
      },
      "revokeRole(bytes32,address)": {
        "details": "Revokes `role` from `account`. If `account` had been granted `role`, emits a {RoleRevoked} event. Requirements: - the caller must have ``role``'s admin role. May emit a {RoleRevoked} event."
      },
      "safeTransferFrom(address,address,uint256)": {
        "details": "See {IERC721-safeTransferFrom}."
      },
      "safeTransferFrom(address,address,uint256,bytes)": {
        "details": "See {IERC721-safeTransferFrom}."
      },
      "setApprovalForAll(address,bool)": {
        "details": "See {IERC721-setApprovalForAll}."
      },
      "symbol()": {
        "details": "See {IERC721Metadata-symbol}."
      },
      "transferFrom(address,address,uint256)": {
        "details": "See {IERC721-transferFrom}."
      },
      "transferOwnership(address)": {
        "details": "Transfers ownership of the contract to a new account (`newOwner`). Can only be called by the current owner."
      }
    },
    "version": 1
  },
  "userdoc": {
    "kind": "user",
    "methods": {},
    "version": 1
  }
}