{
  "contractName": "TicketNFT",
  "abi": [
    {
      "inputs": [
        {
          "internalType": "string",
          "name": "name",
          "type": "string"
        },
        {
          "internalType": "string",
          "name": "symbol",
          "type": "string"
        },
        {
          "internalType": "string",
          "name": "eventLocation",
          "type": "string"
        },
        {
          "internalType": "string",
          "name": "eventType",
          "type": "string"
        },
        {
          "internalType": "uint256",
          "name": "startDate",
          "type": "uint256"
        },
        {
          "internalType": "uint256",
          "name": "endDate",
          "type": "uint256"
        }
      ],
      "stateMutability": "nonpayable",
      "type": "constructor"
    },
    {
      "anonymous": false,
      "inputs": [
        {
          "indexed": true,
          "internalType": "address",
          "name": "owner",
          "type": "address"
        },
        {
          "indexed": true,
          "internalType": "address",
          "name": "approved",
          "type": "address"
        },
        {
          "indexed": true,
          "internalType": "uint256",
          "name": "tokenId",
          "type": "uint256"
        }
      ],
      "name": "Approval",
      "type": "event"
    },
    {
      "anonymous": false,
      "inputs": [
        {
          "indexed": true,
          "internalType": "address",
          "name": "owner",
          "type": "address"
        },
        {
          "indexed": true,
          "internalType": "address",
          "name": "operator",
          "type": "address"
        },
        {
          "indexed": false,
          "internalType": "bool",
          "name": "approved",
          "type": "bool"
        }
      ],
      "name": "ApprovalForAll",
      "type": "event"
    },
    {
      "anonymous": false,
      "inputs": [
        {
          "indexed": true,
          "internalType": "address",
          "name": "previousOwner",
          "type": "address"
        },
        {
          "indexed": true,
          "internalType": "address",
          "name": "newOwner",
          "type": "address"
        }
      ],
      "name": "OwnershipTransferred",
      "type": "event"
    },
    {
      "anonymous": false,
      "inputs": [
        {
          "indexed": true,
          "internalType": "bytes32",
          "name": "role",
          "type": "bytes32"
        },
        {
          "indexed": true,
          "internalType": "bytes32",
          "name": "previousAdminRole",
          "type": "bytes32"
        },
        {
          "indexed": true,
          "internalType": "bytes32",
          "name": "newAdminRole",
          "type": "bytes32"
        }
      ],
      "name": "RoleAdminChanged",
      "type": "event"
    },
    {
      "anonymous": false,
      "inputs": [
        {
          "indexed": true,
          "internalType": "bytes32",
          "name": "role",
          "type": "bytes32"
        },
        {
          "indexed": true,
          "internalType": "address",
          "name": "account",
          "type": "address"
        },
        {
          "indexed": true,
          "internalType": "address",
          "name": "sender",
          "type": "address"
        }
      ],
      "name": "RoleGranted",
      "type": "event"
    },
    {
      "anonymous": false,
      "inputs": [
        {
          "indexed": true,
          "internalType": "bytes32",
          "name": "role",
          "type": "bytes32"
        },
        {
          "indexed": true,
          "internalType": "address",
          "name": "account",
          "type": "address"
        },
        {
          "indexed": true,
          "internalType": "address",
          "name": "sender",
          "type": "address"
        }
      ],
      "name": "RoleRevoked",
      "type": "event"
    },
    {
      "anonymous": false,
      "inputs": [
        {
          "indexed": true,
          "internalType": "address",
          "name": "from",
          "type": "address"
        },
        {
          "indexed": true,
          "internalType": "address",
          "name": "to",
          "type": "address"
        },
        {
          "indexed": true,
          "internalType": "uint256",
          "name": "tokenId",
          "type": "uint256"
        }
      ],
      "name": "Transfer",
      "type": "event"
    },
    {
      "inputs": [],
      "name": "DEFAULT_ADMIN_ROLE",
      "outputs": [
        {
          "internalType": "bytes32",
          "name": "",
          "type": "bytes32"
        }
      ],
      "stateMutability": "view",
      "type": "function",
      "constant": true
    },
    {
      "inputs": [],
      "name": "GATE_ACCOUNTS",
      "outputs": [
        {
          "internalType": "bytes32",
          "name": "",
          "type": "bytes32"
        }
      ],
      "stateMutability": "view",
      "type": "function",
      "constant": true
    },
    {
      "inputs": [],
      "name": "GEA_ACCOUNTS",
      "outputs": [
        {
          "internalType": "bytes32",
          "name": "",
          "type": "bytes32"
        }
      ],
      "stateMutability": "view",
      "type": "function",
      "constant": true
    },
    {
      "inputs": [],
      "name": "MINTER_ROLE",
      "outputs": [
        {
          "internalType": "bytes32",
          "name": "",
          "type": "bytes32"
        }
      ],
      "stateMutability": "view",
      "type": "function",
      "constant": true
    },
    {
      "inputs": [],
      "name": "VERIFIED_ACCOUNTS",
      "outputs": [
        {
          "internalType": "bytes32",
          "name": "",
          "type": "bytes32"
        }
      ],
      "stateMutability": "view",
      "type": "function",
      "constant": true
    },
    {
      "inputs": [
        {
          "internalType": "uint256",
          "name": "",
          "type": "uint256"
        }
      ],
      "name": "_allTickets",
      "outputs": [
        {
          "internalType": "uint256",
          "name": "_price",
          "type": "uint256"
        },
        {
          "internalType": "bool",
          "name": "_forSale",
          "type": "bool"
        },
        {
          "internalType": "uint256",
          "name": "_seatNumber",
          "type": "uint256"
        }
      ],
      "stateMutability": "view",
      "type": "function",
      "constant": true
    },
    {
      "inputs": [],
      "name": "_endDate",
      "outputs": [
        {
          "internalType": "uint256",
          "name": "",
          "type": "uint256"
        }
      ],
      "stateMutability": "view",
      "type": "function",
      "constant": true
    },
    {
      "inputs": [],
      "name": "_eventLocation",
      "outputs": [
        {
          "internalType": "string",
          "name": "",
          "type": "string"
        }
      ],
      "stateMutability": "view",
      "type": "function",
      "constant": true
    },
    {
      "inputs": [],
      "name": "_eventName",
      "outputs": [
        {
          "internalType": "string",
          "name": "",
          "type": "string"
        }
      ],
      "stateMutability": "view",
      "type": "function",
      "constant": true
    },
    {
      "inputs": [],
      "name": "_eventType",
      "outputs": [
        {
          "internalType": "string",
          "name": "",
          "type": "string"
        }
      ],
      "stateMutability": "view",
      "type": "function",
      "constant": true
    },
    {
      "inputs": [],
      "name": "_startDate",
      "outputs": [
        {
          "internalType": "uint256",
          "name": "",
          "type": "uint256"
        }
      ],
      "stateMutability": "view",
      "type": "function",
      "constant": true
    },
    {
      "inputs": [],
      "name": "_tokenIdCounter",
      "outputs": [
        {
          "internalType": "uint256",
          "name": "_value",
          "type": "uint256"
        }
      ],
      "stateMutability": "view",
      "type": "function",
      "constant": true
    },
    {
      "inputs": [
        {
          "internalType": "address",
          "name": "to",
          "type": "address"
        },
        {
          "internalType": "uint256",
          "name": "tokenId",
          "type": "uint256"
        }
      ],
      "name": "approve",
      "outputs": [],
      "stateMutability": "nonpayable",
      "type": "function"
    },
    {
      "inputs": [
        {
          "internalType": "address",
          "name": "owner",
          "type": "address"
        }
      ],
      "name": "balanceOf",
      "outputs": [
        {
          "internalType": "uint256",
          "name": "",
          "type": "uint256"
        }
      ],
      "stateMutability": "view",
      "type": "function",
      "constant": true
    },
    {
      "inputs": [
        {
          "internalType": "uint256",
          "name": "tokenId",
          "type": "uint256"
        }
      ],
      "name": "burn",
      "outputs": [],
      "stateMutability": "nonpayable",
      "type": "function"
    },
    {
      "inputs": [
        {
          "internalType": "uint256",
          "name": "tokenId",
          "type": "uint256"
        }
      ],
      "name": "getApproved",
      "outputs": [
        {
          "internalType": "address",
          "name": "",
          "type": "address"
        }
      ],
      "stateMutability": "view",
      "type": "function",
      "constant": true
    },
    {
      "inputs": [
        {
          "internalType": "bytes32",
          "name": "role",
          "type": "bytes32"
        }
      ],
      "name": "getRoleAdmin",
      "outputs": [
        {
          "internalType": "bytes32",
          "name": "",
          "type": "bytes32"
        }
      ],
      "stateMutability": "view",
      "type": "function",
      "constant": true
    },
    {
      "inputs": [
        {
          "internalType": "bytes32",
          "name": "role",
          "type": "bytes32"
        },
        {
          "internalType": "address",
          "name": "account",
          "type": "address"
        }
      ],
      "name": "grantRole",
      "outputs": [],
      "stateMutability": "nonpayable",
      "type": "function"
    },
    {
      "inputs": [
        {
          "internalType": "bytes32",
          "name": "role",
          "type": "bytes32"
        },
        {
          "internalType": "address",
          "name": "account",
          "type": "address"
        }
      ],
      "name": "hasRole",
      "outputs": [
        {
          "internalType": "bool",
          "name": "",
          "type": "bool"
        }
      ],
      "stateMutability": "view",
      "type": "function",
      "constant": true
    },
    {
      "inputs": [
        {
          "internalType": "address",
          "name": "owner",
          "type": "address"
        },
        {
          "internalType": "address",
          "name": "operator",
          "type": "address"
        }
      ],
      "name": "isApprovedForAll",
      "outputs": [
        {
          "internalType": "bool",
          "name": "",
          "type": "bool"
        }
      ],
      "stateMutability": "view",
      "type": "function",
      "constant": true
    },
    {
      "inputs": [],
      "name": "name",
      "outputs": [
        {
          "internalType": "string",
          "name": "",
          "type": "string"
        }
      ],
      "stateMutability": "view",
      "type": "function",
      "constant": true
    },
    {
      "inputs": [],
      "name": "owner",
      "outputs": [
        {
          "internalType": "address",
          "name": "",
          "type": "address"
        }
      ],
      "stateMutability": "view",
      "type": "function",
      "constant": true
    },
    {
      "inputs": [
        {
          "internalType": "uint256",
          "name": "tokenId",
          "type": "uint256"
        }
      ],
      "name": "ownerOf",
      "outputs": [
        {
          "internalType": "address",
          "name": "",
          "type": "address"
        }
      ],
      "stateMutability": "view",
      "type": "function",
      "constant": true
    },
    {
      "inputs": [],
      "name": "renounceOwnership",
      "outputs": [],
      "stateMutability": "nonpayable",
      "type": "function"
    },
    {
      "inputs": [
        {
          "internalType": "bytes32",
          "name": "role",
          "type": "bytes32"
        },
        {
          "internalType": "address",
          "name": "account",
          "type": "address"
        }
      ],
      "name": "renounceRole",
      "outputs": [],
      "stateMutability": "nonpayable",
      "type": "function"
    },
    {
      "inputs": [
        {
          "internalType": "bytes32",
          "name": "role",
          "type": "bytes32"
        },
        {
          "internalType": "address",
          "name": "account",
          "type": "address"
        }
      ],
      "name": "revokeRole",
      "outputs": [],
      "stateMutability": "nonpayable",
      "type": "function"
    },
    {
      "inputs": [
        {
          "internalType": "address",
          "name": "operator",
          "type": "address"
        },
        {
          "internalType": "bool",
          "name": "approved",
          "type": "bool"
        }
      ],
      "name": "setApprovalForAll",
      "outputs": [],
      "stateMutability": "nonpayable",
      "type": "function"
    },
    {
      "inputs": [],
      "name": "symbol",
      "outputs": [
        {
          "internalType": "string",
          "name": "",
          "type": "string"
        }
      ],
      "stateMutability": "view",
      "type": "function",
      "constant": true
    },
    {
      "inputs": [
        {
          "internalType": "uint256",
          "name": "",
          "type": "uint256"
        }
      ],
      "name": "ticketIndexToOwner",
      "outputs": [
        {
          "internalType": "address",
          "name": "",
          "type": "address"
        }
      ],
      "stateMutability": "view",
      "type": "function",
      "constant": true
    },
    {
      "inputs": [
        {
          "internalType": "address",
          "name": "from",
          "type": "address"
        },
        {
          "internalType": "address",
          "name": "to",
          "type": "address"
        },
        {
          "internalType": "uint256",
          "name": "tokenId",
          "type": "uint256"
        }
      ],
      "name": "transferFrom",
      "outputs": [],
      "stateMutability": "nonpayable",
      "type": "function"
    },
    {
      "inputs": [
        {
          "internalType": "address",
          "name": "newOwner",
          "type": "address"
        }
      ],
      "name": "transferOwnership",
      "outputs": [],
      "stateMutability": "nonpayable",
      "type": "function"
    },
    {
      "inputs": [
        {
          "internalType": "address",
          "name": "to",
          "type": "address"
        },
        {
          "internalType": "string",
          "name": "uri",
          "type": "string"
        },
        {
          "internalType": "uint256",
          "name": "price",
          "type": "uint256"
        },
        {
          "internalType": "uint256",
          "name": "seatNumber",
          "type": "uint256"
        }
      ],
      "name": "safeMint",
      "outputs": [],
      "stateMutability": "nonpayable",
      "type": "function"
    },
    {
      "inputs": [
        {
          "internalType": "uint256",
          "name": "tokenId",
          "type": "uint256"
        },
        {
          "internalType": "bytes",
          "name": "data",
          "type": "bytes"
        }
      ],
      "name": "buy",
      "outputs": [],
      "stateMutability": "payable",
      "type": "function",
      "payable": true
    },
    {
      "inputs": [
        {
          "internalType": "bool",
          "name": "option",
          "type": "bool"
        },
        {
          "internalType": "uint256",
          "name": "tokenId",
          "type": "uint256"
        }
      ],
      "name": "sale",
      "outputs": [],
      "stateMutability": "nonpayable",
      "type": "function"
    },
    {
      "inputs": [
        {
          "internalType": "address",
          "name": "to",
          "type": "address"
        },
        {
          "internalType": "uint256",
          "name": "tokenId",
          "type": "uint256"
        },
        {
          "internalType": "bytes",
          "name": "data",
          "type": "bytes"
        }
      ],
      "name": "useTicket",
      "outputs": [],
      "stateMutability": "payable",
      "type": "function",
      "payable": true
    },
    {
      "inputs": [
        {
          "internalType": "address",
          "name": "from",
          "type": "address"
        },
        {
          "internalType": "address",
          "name": "to",
          "type": "address"
        },
        {
          "internalType": "uint256",
          "name": "tokenId",
          "type": "uint256"
        }
      ],
      "name": "safeTransferFrom",
      "outputs": [],
      "stateMutability": "nonpayable",
      "type": "function"
    },
    {
      "inputs": [
        {
          "internalType": "address",
          "name": "from",
          "type": "address"
        },
        {
          "internalType": "address",
          "name": "to",
          "type": "address"
        },
        {
          "internalType": "uint256",
          "name": "tokenId",
          "type": "uint256"
        },
        {
          "internalType": "bytes",
          "name": "data",
          "type": "bytes"
        }
      ],
      "name": "safeTransferFrom",
      "outputs": [],
      "stateMutability": "nonpayable",
      "type": "function"
    },
    {
      "inputs": [
        {
          "internalType": "uint256",
          "name": "tokenId",
          "type": "uint256"
        }
      ],
      "name": "tokenURI",
      "outputs": [
        {
          "internalType": "string",
          "name": "",
          "type": "string"
        }
      ],
      "stateMutability": "view",
      "type": "function",
      "constant": true
    },
    {
      "inputs": [
        {
          "internalType": "bytes4",
          "name": "interfaceId",
          "type": "bytes4"
        }
      ],
      "name": "supportsInterface",
      "outputs": [
        {
          "internalType": "bool",
          "name": "",
          "type": "bool"
        }
      ],
      "stateMutability": "view",
      "type": "function",
      "constant": true
    }
  ],
  "bytecode": "0x60806040523480156200001157600080fd5b506040516200569d3803806200569d8339818101604052810190620000379190620004e1565b858581600090816200004a91906200083a565b5080600190816200005c91906200083a565b5050506200007f62000073620000d260201b60201c565b620000da60201b60201c565b620000946000801b33620001a060201b60201c565b83600c9081620000a591906200083a565b5082600d9081620000b791906200083a565b5081600e8190555080600f8190555050505050505062000921565b600033905090565b6000600760009054906101000a900473ffffffffffffffffffffffffffffffffffffffff16905081600760006101000a81548173ffffffffffffffffffffffffffffffffffffffff021916908373ffffffffffffffffffffffffffffffffffffffff1602179055508173ffffffffffffffffffffffffffffffffffffffff168173ffffffffffffffffffffffffffffffffffffffff167f8be0079c531659141344cd1fd0a4f28419497f9722a3daafe3b4186f6b6457e060405160405180910390a35050565b620001b28282620001b660201b60201c565b5050565b620001c88282620002a860201b60201c565b620002a45760016008600084815260200190815260200160002060000160008373ffffffffffffffffffffffffffffffffffffffff1673ffffffffffffffffffffffffffffffffffffffff16815260200190815260200160002060006101000a81548160ff02191690831515021790555062000249620000d260201b60201c565b73ffffffffffffffffffffffffffffffffffffffff168173ffffffffffffffffffffffffffffffffffffffff16837f2f8788117e7eff1d82e926ec794901d17c78024a50270940304540a733656f0d60405160405180910390a45b5050565b60006008600084815260200190815260200160002060000160008373ffffffffffffffffffffffffffffffffffffffff1673ffffffffffffffffffffffffffffffffffffffff16815260200190815260200160002060009054906101000a900460ff16905092915050565b6000604051905090565b600080fd5b600080fd5b600080fd5b600080fd5b6000601f19601f8301169050919050565b7f4e487b7100000000000000000000000000000000000000000000000000000000600052604160045260246000fd5b6200037c8262000331565b810181811067ffffffffffffffff821117156200039e576200039d62000342565b5b80604052505050565b6000620003b362000313565b9050620003c1828262000371565b919050565b600067ffffffffffffffff821115620003e457620003e362000342565b5b620003ef8262000331565b9050602081019050919050565b60005b838110156200041c578082015181840152602081019050620003ff565b60008484015250505050565b60006200043f6200043984620003c6565b620003a7565b9050828152602081018484840111156200045e576200045d6200032c565b5b6200046b848285620003fc565b509392505050565b600082601f8301126200048b576200048a62000327565b5b81516200049d84826020860162000428565b91505092915050565b6000819050919050565b620004bb81620004a6565b8114620004c757600080fd5b50565b600081519050620004db81620004b0565b92915050565b60008060008060008060c087890312156200050157620005006200031d565b5b600087015167ffffffffffffffff81111562000522576200052162000322565b5b6200053089828a0162000473565b965050602087015167ffffffffffffffff81111562000554576200055362000322565b5b6200056289828a0162000473565b955050604087015167ffffffffffffffff81111562000586576200058562000322565b5b6200059489828a0162000473565b945050606087015167ffffffffffffffff811115620005b857620005b762000322565b5b620005c689828a0162000473565b9350506080620005d989828a01620004ca565b92505060a0620005ec89828a01620004ca565b9150509295509295509295565b600081519050919050565b7f4e487b7100000000000000000000000000000000000000000000000000000000600052602260045260246000fd5b600060028204905060018216806200064c57607f821691505b60208210810362000662576200066162000604565b5b50919050565b60008190508160005260206000209050919050565b60006020601f8301049050919050565b600082821b905092915050565b600060088302620006cc7fffffffffffffffffffffffffffffffffffffffffffffffffffffffffffffffff826200068d565b620006d886836200068d565b95508019841693508086168417925050509392505050565b6000819050919050565b60006200071b620007156200070f84620004a6565b620006f0565b620004a6565b9050919050565b6000819050919050565b6200073783620006fa565b6200074f620007468262000722565b8484546200069a565b825550505050565b600090565b6200076662000757565b620007738184846200072c565b505050565b5b818110156200079b576200078f6000826200075c565b60018101905062000779565b5050565b601f821115620007ea57620007b48162000668565b620007bf846200067d565b81016020851015620007cf578190505b620007e7620007de856200067d565b83018262000778565b50505b505050565b600082821c905092915050565b60006200080f60001984600802620007ef565b1980831691505092915050565b60006200082a8383620007fc565b9150826002028217905092915050565b6200084582620005f9565b67ffffffffffffffff81111562000861576200086062000342565b5b6200086d825462000633565b6200087a8282856200079f565b600060209050601f831160018114620008b257600084156200089d578287015190505b620008a985826200081c565b86555062000919565b601f198416620008c28662000668565b60005b82811015620008ec57848901518255600182019150602085019450602081019050620008c5565b868310156200090c578489015162000908601f891682620007fc565b8355505b6001600288020188555050505b505050505050565b614d6c80620009316000396000f3fe6080604052600436106102305760003560e01c806380310ea51161012e578063a9ec9a22116100ab578063d53913931161006f578063d539139314610849578063d547741f14610874578063dbfa58631461089d578063e985e9c5146108c8578063f2fde38b1461090557610230565b8063a9ec9a2214610762578063ac8daba01461078d578063b88d4fde146107b8578063b8cba204146107e1578063c87b56dd1461080c57610230565b806391d14854116100f257806391d148541461067d578063924eef47146106ba57806395d89b41146106e3578063a217fddf1461070e578063a22cb4651461073957610230565b806380310ea5146105a357806382189551146105e057806384c4bd4b146105fc5780638c445977146106275780638da5cb5b1461065257610230565b80632f2ff15d116101bc57806349a5aaf01161018057806349a5aaf0146104bc5780634c95ef60146104e75780636352211e1461051257806370a082311461054f578063715018a61461058c57610230565b80632f2ff15d146103d957806336568abe1461040257806342842e0e1461042b57806342966c68146104545780634960209a1461047d57610230565b80630ad41329116102035780630ad413291461030357806323b872dd1461032e578063248a9ca3146103575780632674c2a7146103945780632923ce11146103b057610230565b806301ffc9a71461023557806306fdde0314610272578063081812fc1461029d578063095ea7b3146102da575b600080fd5b34801561024157600080fd5b5061025c6004803603810190610257919061331a565b61092e565b6040516102699190613362565b60405180910390f35b34801561027e57600080fd5b50610287610940565b604051610294919061340d565b60405180910390f35b3480156102a957600080fd5b506102c460048036038101906102bf9190613465565b6109d2565b6040516102d191906134d3565b60405180910390f35b3480156102e657600080fd5b5061030160048036038101906102fc919061351a565b610a18565b005b34801561030f57600080fd5b50610318610b2f565b6040516103259190613573565b60405180910390f35b34801561033a57600080fd5b506103556004803603810190610350919061358e565b610b53565b005b34801561036357600080fd5b5061037e6004803603810190610379919061360d565b610bb3565b60405161038b9190613573565b60405180910390f35b6103ae60048036038101906103a9919061376f565b610bd3565b005b3480156103bc57600080fd5b506103d760048036038101906103d2919061387f565b610d4b565b005b3480156103e557600080fd5b5061040060048036038101906103fb9190613902565b610ee3565b005b34801561040e57600080fd5b5061042960048036038101906104249190613902565b610f04565b005b34801561043757600080fd5b50610452600480360381019061044d919061358e565b610f87565b005b34801561046057600080fd5b5061047b60048036038101906104769190613465565b610fa7565b005b34801561048957600080fd5b506104a4600480360381019061049f9190613465565b611003565b6040516104b393929190613951565b60405180910390f35b3480156104c857600080fd5b506104d161104a565b6040516104de9190613573565b60405180910390f35b3480156104f357600080fd5b506104fc61106e565b604051610509919061340d565b60405180910390f35b34801561051e57600080fd5b5061053960048036038101906105349190613465565b6110fc565b60405161054691906134d3565b60405180910390f35b34801561055b57600080fd5b5061057660048036038101906105719190613988565b611182565b60405161058391906139b5565b60405180910390f35b34801561059857600080fd5b506105a1611239565b005b3480156105af57600080fd5b506105ca60048036038101906105c59190613465565b61124d565b6040516105d791906134d3565b60405180910390f35b6105fa60048036038101906105f591906139d0565b611280565b005b34801561060857600080fd5b50610611611433565b60405161061e91906139b5565b60405180910390f35b34801561063357600080fd5b5061063c61143f565b604051610649919061340d565b60405180910390f35b34801561065e57600080fd5b506106676114cd565b60405161067491906134d3565b60405180910390f35b34801561068957600080fd5b506106a4600480360381019061069f9190613902565b6114f7565b6040516106b19190613362565b60405180910390f35b3480156106c657600080fd5b506106e160048036038101906106dc9190613a58565b611562565b005b3480156106ef57600080fd5b506106f8611644565b604051610705919061340d565b60405180910390f35b34801561071a57600080fd5b506107236116d6565b6040516107309190613573565b60405180910390f35b34801561074557600080fd5b50610760600480360381019061075b9190613a98565b6116dd565b005b34801561076e57600080fd5b506107776116f3565b6040516107849190613573565b60405180910390f35b34801561079957600080fd5b506107a2611717565b6040516107af91906139b5565b60405180910390f35b3480156107c457600080fd5b506107df60048036038101906107da9190613ad8565b61171d565b005b3480156107ed57600080fd5b506107f6611764565b604051610803919061340d565b60405180910390f35b34801561081857600080fd5b50610833600480360381019061082e9190613465565b6117f2565b604051610840919061340d565b60405180910390f35b34801561085557600080fd5b5061085e611804565b60405161086b9190613573565b60405180910390f35b34801561088057600080fd5b5061089b60048036038101906108969190613902565b611828565b005b3480156108a957600080fd5b506108b2611849565b6040516108bf91906139b5565b60405180910390f35b3480156108d457600080fd5b506108ef60048036038101906108ea9190613b5b565b61184f565b6040516108fc9190613362565b60405180910390f35b34801561091157600080fd5b5061092c60048036038101906109279190613988565b6118e3565b005b600061093982611966565b9050919050565b60606000805461094f90613bca565b80601f016020809104026020016040519081016040528092919081815260200182805461097b90613bca565b80156109c85780601f1061099d576101008083540402835291602001916109c8565b820191906000526020600020905b8154815290600101906020018083116109ab57829003601f168201915b5050505050905090565b60006109dd826119e0565b6004600083815260200190815260200160002060009054906101000a900473ffffffffffffffffffffffffffffffffffffffff169050919050565b6000610a23826110fc565b90508073ffffffffffffffffffffffffffffffffffffffff168373ffffffffffffffffffffffffffffffffffffffff1603610a93576040517f08c379a0000000000000000000000000000000000000000000000000000000008152600401610a8a90613c6d565b60405180910390fd5b8073ffffffffffffffffffffffffffffffffffffffff16610ab2611a2b565b73ffffffffffffffffffffffffffffffffffffffff161480610ae15750610ae081610adb611a2b565b61184f565b5b610b20576040517f08c379a0000000000000000000000000000000000000000000000000000000008152600401610b1790613cff565b60405180910390fd5b610b2a8383611a33565b505050565b7f8c04bd11d77ff50ce74eb27dbf3be5835bb80388d39725f7e4808cb26a02e7cd81565b610b64610b5e611a2b565b82611aec565b610ba3576040517f08c379a0000000000000000000000000000000000000000000000000000000008152600401610b9a90613d91565b60405180910390fd5b610bae838383611b81565b505050565b600060086000838152602001908152602001600020600101549050919050565b7f8c04bd11d77ff50ce74eb27dbf3be5835bb80388d39725f7e4808cb26a02e7cd610bfd81611e7a565b610c277ff1e558ad2d1ae84c04c78952391580ee1aabc290ce5ab9337aaa08da394d328f856114f7565b610c66576040517f08c379a0000000000000000000000000000000000000000000000000000000008152600401610c5d90613e23565b60405180910390fd5b60001515600a8481548110610c7e57610c7d613e43565b5b906000526020600020906003020160010160009054906101000a900460ff16151514610cdf576040517f08c379a0000000000000000000000000000000000000000000000000000000008152600401610cd690613ebe565b60405180910390fd5b610cf3610ceb846110fc565b858585611e8e565b836009600085815260200190815260200160002060006101000a81548173ffffffffffffffffffffffffffffffffffffffff021916908373ffffffffffffffffffffffffffffffffffffffff16021790555050505050565b7f9f2df0fed2c77648de5860a4cc508cd0818c85b8b8a1ab4ceeef8d981c8956a6610d7581611e7a565b610d9f7fbc7dbb233c603795f906644f7c42dc46861c7eaeae18d4f0099de42c6a7c92de866114f7565b610dde576040517f08c379a0000000000000000000000000000000000000000000000000000000008152600401610dd590613f50565b60405180910390fd5b6000610dea6010611eea565b9050600a60405180606001604052808681526020016001151581526020018581525090806001815401808255809150506001900390600052602060002090600302016000909190919091506000820151816000015560208201518160010160006101000a81548160ff021916908315150217905550604082015181600201555050610e756010611ef8565b610e7f8682611f0e565b856009600083815260200190815260200160002060006101000a81548173ffffffffffffffffffffffffffffffffffffffff021916908373ffffffffffffffffffffffffffffffffffffffff160217905550610edb8186611f2c565b505050505050565b610eec82610bb3565b610ef581611e7a565b610eff8383611f99565b505050565b610f0c611a2b565b73ffffffffffffffffffffffffffffffffffffffff168173ffffffffffffffffffffffffffffffffffffffff1614610f79576040517f08c379a0000000000000000000000000000000000000000000000000000000008152600401610f7090613fe2565b60405180910390fd5b610f83828261207a565b5050565b610fa28383836040518060200160405280600081525061171d565b505050565b610fb8610fb2611a2b565b82611aec565b610ff7576040517f08c379a0000000000000000000000000000000000000000000000000000000008152600401610fee90613d91565b60405180910390fd5b6110008161215c565b50565b600a818154811061101357600080fd5b90600052602060002090600302016000915090508060000154908060010160009054906101000a900460ff16908060020154905083565b7fbc7dbb233c603795f906644f7c42dc46861c7eaeae18d4f0099de42c6a7c92de81565b600c805461107b90613bca565b80601f01602080910402602001604051908101604052809291908181526020018280546110a790613bca565b80156110f45780601f106110c9576101008083540402835291602001916110f4565b820191906000526020600020905b8154815290600101906020018083116110d757829003601f168201915b505050505081565b60008061110883612168565b9050600073ffffffffffffffffffffffffffffffffffffffff168173ffffffffffffffffffffffffffffffffffffffff1603611179576040517f08c379a00000000000000000000000000000000000000000000000000000000081526004016111709061404e565b60405180910390fd5b80915050919050565b60008073ffffffffffffffffffffffffffffffffffffffff168273ffffffffffffffffffffffffffffffffffffffff16036111f2576040517f08c379a00000000000000000000000000000000000000000000000000000000081526004016111e9906140e0565b60405180910390fd5b600360008373ffffffffffffffffffffffffffffffffffffffff1673ffffffffffffffffffffffffffffffffffffffff168152602001908152602001600020549050919050565b6112416121a5565b61124b6000612223565b565b60096020528060005260406000206000915054906101000a900473ffffffffffffffffffffffffffffffffffffffff1681565b7f8c04bd11d77ff50ce74eb27dbf3be5835bb80388d39725f7e4808cb26a02e7cd6112aa81611e7a565b60011515600a84815481106112c2576112c1613e43565b5b906000526020600020906003020160010160009054906101000a900460ff16151514611323576040517f08c379a000000000000000000000000000000000000000000000000000000000815260040161131a9061414c565b60405180910390fd5b600a838154811061133757611336613e43565b5b906000526020600020906003020160000154341461138a576040517f08c379a0000000000000000000000000000000000000000000000000000000008152600401611381906141b8565b60405180910390fd5b61139e611396846110fc565b338585611e8e565b336009600085815260200190815260200160002060006101000a81548173ffffffffffffffffffffffffffffffffffffffff021916908373ffffffffffffffffffffffffffffffffffffffff1602179055506000600a848154811061140657611405613e43565b5b906000526020600020906003020160010160006101000a81548160ff021916908315150217905550505050565b60108060000154905081565b600b805461144c90613bca565b80601f016020809104026020016040519081016040528092919081815260200182805461147890613bca565b80156114c55780601f1061149a576101008083540402835291602001916114c5565b820191906000526020600020905b8154815290600101906020018083116114a857829003601f168201915b505050505081565b6000600760009054906101000a900473ffffffffffffffffffffffffffffffffffffffff16905090565b60006008600084815260200190815260200160002060000160008373ffffffffffffffffffffffffffffffffffffffff1673ffffffffffffffffffffffffffffffffffffffff16815260200190815260200160002060009054906101000a900460ff16905092915050565b3373ffffffffffffffffffffffffffffffffffffffff166009600083815260200190815260200160002060009054906101000a900473ffffffffffffffffffffffffffffffffffffffff1673ffffffffffffffffffffffffffffffffffffffff1614611603576040517f08c379a00000000000000000000000000000000000000000000000000000000081526004016115fa90614224565b60405180910390fd5b81600a828154811061161857611617613e43565b5b906000526020600020906003020160010160006101000a81548160ff0219169083151502179055505050565b60606001805461165390613bca565b80601f016020809104026020016040519081016040528092919081815260200182805461167f90613bca565b80156116cc5780601f106116a1576101008083540402835291602001916116cc565b820191906000526020600020905b8154815290600101906020018083116116af57829003601f168201915b5050505050905090565b6000801b81565b6116ef6116e8611a2b565b83836122e9565b5050565b7ff1e558ad2d1ae84c04c78952391580ee1aabc290ce5ab9337aaa08da394d328f81565b600e5481565b600061175e576040517f08c379a000000000000000000000000000000000000000000000000000000000815260040161175590614290565b60405180910390fd5b50505050565b600d805461177190613bca565b80601f016020809104026020016040519081016040528092919081815260200182805461179d90613bca565b80156117ea5780601f106117bf576101008083540402835291602001916117ea565b820191906000526020600020905b8154815290600101906020018083116117cd57829003601f168201915b505050505081565b60606117fd82612455565b9050919050565b7f9f2df0fed2c77648de5860a4cc508cd0818c85b8b8a1ab4ceeef8d981c8956a681565b61183182610bb3565b61183a81611e7a565b611844838361207a565b505050565b600f5481565b6000600560008473ffffffffffffffffffffffffffffffffffffffff1673ffffffffffffffffffffffffffffffffffffffff16815260200190815260200160002060008373ffffffffffffffffffffffffffffffffffffffff1673ffffffffffffffffffffffffffffffffffffffff16815260200190815260200160002060009054906101000a900460ff16905092915050565b6118eb6121a5565b600073ffffffffffffffffffffffffffffffffffffffff168173ffffffffffffffffffffffffffffffffffffffff160361195a576040517f08c379a000000000000000000000000000000000000000000000000000000000815260040161195190614322565b60405180910390fd5b61196381612223565b50565b60007f7965db0b000000000000000000000000000000000000000000000000000000007bffffffffffffffffffffffffffffffffffffffffffffffffffffffff1916827bffffffffffffffffffffffffffffffffffffffffffffffffffffffff191614806119d957506119d882612567565b5b9050919050565b6119e981612649565b611a28576040517f08c379a0000000000000000000000000000000000000000000000000000000008152600401611a1f9061404e565b60405180910390fd5b50565b600033905090565b816004600083815260200190815260200160002060006101000a81548173ffffffffffffffffffffffffffffffffffffffff021916908373ffffffffffffffffffffffffffffffffffffffff160217905550808273ffffffffffffffffffffffffffffffffffffffff16611aa6836110fc565b73ffffffffffffffffffffffffffffffffffffffff167f8c5be1e5ebec7d5bd14f71427d1e84f3dd0314c0f7b2291e5b200ac8c7c3b92560405160405180910390a45050565b600080611af8836110fc565b90508073ffffffffffffffffffffffffffffffffffffffff168473ffffffffffffffffffffffffffffffffffffffff161480611b3a5750611b39818561184f565b5b80611b7857508373ffffffffffffffffffffffffffffffffffffffff16611b60846109d2565b73ffffffffffffffffffffffffffffffffffffffff16145b91505092915050565b8273ffffffffffffffffffffffffffffffffffffffff16611ba1826110fc565b73ffffffffffffffffffffffffffffffffffffffff1614611bf7576040517f08c379a0000000000000000000000000000000000000000000000000000000008152600401611bee906143b4565b60405180910390fd5b600073ffffffffffffffffffffffffffffffffffffffff168273ffffffffffffffffffffffffffffffffffffffff1603611c66576040517f08c379a0000000000000000000000000000000000000000000000000000000008152600401611c5d90614446565b60405180910390fd5b611c73838383600161268a565b8273ffffffffffffffffffffffffffffffffffffffff16611c93826110fc565b73ffffffffffffffffffffffffffffffffffffffff1614611ce9576040517f08c379a0000000000000000000000000000000000000000000000000000000008152600401611ce0906143b4565b60405180910390fd5b6004600082815260200190815260200160002060006101000a81549073ffffffffffffffffffffffffffffffffffffffff02191690556001600360008573ffffffffffffffffffffffffffffffffffffffff1673ffffffffffffffffffffffffffffffffffffffff168152602001908152602001600020600082825403925050819055506001600360008473ffffffffffffffffffffffffffffffffffffffff1673ffffffffffffffffffffffffffffffffffffffff16815260200190815260200160002060008282540192505081905550816002600083815260200190815260200160002060006101000a81548173ffffffffffffffffffffffffffffffffffffffff021916908373ffffffffffffffffffffffffffffffffffffffff160217905550808273ffffffffffffffffffffffffffffffffffffffff168473ffffffffffffffffffffffffffffffffffffffff167fddf252ad1be2c89b69c2b068fc378daa952ba7f163c4a11628f55a4df523b3ef60405160405180910390a4611e758383836001612690565b505050565b611e8b81611e86611a2b565b612696565b50565b611e99848484611b81565b611ea58484848461271b565b611ee4576040517f08c379a0000000000000000000000000000000000000000000000000000000008152600401611edb906144d8565b60405180910390fd5b50505050565b600081600001549050919050565b6001816000016000828254019250508190555050565b611f288282604051806020016040528060008152506128a2565b5050565b611f3582612649565b611f74576040517f08c379a0000000000000000000000000000000000000000000000000000000008152600401611f6b9061456a565b60405180910390fd5b80600660008481526020019081526020016000209081611f949190614736565b505050565b611fa382826114f7565b6120765760016008600084815260200190815260200160002060000160008373ffffffffffffffffffffffffffffffffffffffff1673ffffffffffffffffffffffffffffffffffffffff16815260200190815260200160002060006101000a81548160ff02191690831515021790555061201b611a2b565b73ffffffffffffffffffffffffffffffffffffffff168173ffffffffffffffffffffffffffffffffffffffff16837f2f8788117e7eff1d82e926ec794901d17c78024a50270940304540a733656f0d60405160405180910390a45b5050565b61208482826114f7565b156121585760006008600084815260200190815260200160002060000160008373ffffffffffffffffffffffffffffffffffffffff1673ffffffffffffffffffffffffffffffffffffffff16815260200190815260200160002060006101000a81548160ff0219169083151502179055506120fd611a2b565b73ffffffffffffffffffffffffffffffffffffffff168173ffffffffffffffffffffffffffffffffffffffff16837ff6391f5c32d9c69d2a47ea670b442974b53935d1edc7fd64eb21e047a839171b60405160405180910390a45b5050565b612165816128fd565b50565b60006002600083815260200190815260200160002060009054906101000a900473ffffffffffffffffffffffffffffffffffffffff169050919050565b6121ad611a2b565b73ffffffffffffffffffffffffffffffffffffffff166121cb6114cd565b73ffffffffffffffffffffffffffffffffffffffff1614612221576040517f08c379a000000000000000000000000000000000000000000000000000000000815260040161221890614854565b60405180910390fd5b565b6000600760009054906101000a900473ffffffffffffffffffffffffffffffffffffffff16905081600760006101000a81548173ffffffffffffffffffffffffffffffffffffffff021916908373ffffffffffffffffffffffffffffffffffffffff1602179055508173ffffffffffffffffffffffffffffffffffffffff168173ffffffffffffffffffffffffffffffffffffffff167f8be0079c531659141344cd1fd0a4f28419497f9722a3daafe3b4186f6b6457e060405160405180910390a35050565b8173ffffffffffffffffffffffffffffffffffffffff168373ffffffffffffffffffffffffffffffffffffffff1603612357576040517f08c379a000000000000000000000000000000000000000000000000000000000815260040161234e906148c0565b60405180910390fd5b80600560008573ffffffffffffffffffffffffffffffffffffffff1673ffffffffffffffffffffffffffffffffffffffff16815260200190815260200160002060008473ffffffffffffffffffffffffffffffffffffffff1673ffffffffffffffffffffffffffffffffffffffff16815260200190815260200160002060006101000a81548160ff0219169083151502179055508173ffffffffffffffffffffffffffffffffffffffff168373ffffffffffffffffffffffffffffffffffffffff167f17307eab39ab6107e8899845ad3d59bd9653f200f220920489ca2b5937696c31836040516124489190613362565b60405180910390a3505050565b6060612460826119e0565b600060066000848152602001908152602001600020805461248090613bca565b80601f01602080910402602001604051908101604052809291908181526020018280546124ac90613bca565b80156124f95780601f106124ce576101008083540402835291602001916124f9565b820191906000526020600020905b8154815290600101906020018083116124dc57829003601f168201915b50505050509050600061250a612950565b9050600081510361251f578192505050612562565b60008251111561255457808260405160200161253c92919061491c565b60405160208183030381529060405292505050612562565b61255d84612967565b925050505b919050565b60007f80ac58cd000000000000000000000000000000000000000000000000000000007bffffffffffffffffffffffffffffffffffffffffffffffffffffffff1916827bffffffffffffffffffffffffffffffffffffffffffffffffffffffff1916148061263257507f5b5e139f000000000000000000000000000000000000000000000000000000007bffffffffffffffffffffffffffffffffffffffffffffffffffffffff1916827bffffffffffffffffffffffffffffffffffffffffffffffffffffffff1916145b806126425750612641826129cf565b5b9050919050565b60008073ffffffffffffffffffffffffffffffffffffffff1661266b83612168565b73ffffffffffffffffffffffffffffffffffffffff1614159050919050565b50505050565b50505050565b6126a082826114f7565b612717576126ad81612a39565b6126bb8360001c6020612a66565b6040516020016126cc9291906149d8565b6040516020818303038152906040526040517f08c379a000000000000000000000000000000000000000000000000000000000815260040161270e919061340d565b60405180910390fd5b5050565b600061273c8473ffffffffffffffffffffffffffffffffffffffff16612ca2565b15612895578373ffffffffffffffffffffffffffffffffffffffff1663150b7a02612765611a2b565b8786866040518563ffffffff1660e01b81526004016127879493929190614a67565b6020604051808303816000875af19250505080156127c357506040513d601f19601f820116820180604052508101906127c09190614ac8565b60015b612845573d80600081146127f3576040519150601f19603f3d011682016040523d82523d6000602084013e6127f8565b606091505b50600081510361283d576040517f08c379a0000000000000000000000000000000000000000000000000000000008152600401612834906144d8565b60405180910390fd5b805181602001fd5b63150b7a0260e01b7bffffffffffffffffffffffffffffffffffffffffffffffffffffffff1916817bffffffffffffffffffffffffffffffffffffffffffffffffffffffff19161491505061289a565b600190505b949350505050565b6128ac8383612cc5565b6128b9600084848461271b565b6128f8576040517f08c379a00000000000000000000000000000000000000000000000000000000081526004016128ef906144d8565b60405180910390fd5b505050565b61290681612ee2565b600060066000838152602001908152602001600020805461292690613bca565b90501461294d5760066000828152602001908152602001600020600061294c9190613251565b5b50565b606060405180602001604052806000815250905090565b6060612972826119e0565b600061297c612950565b9050600081511161299c57604051806020016040528060008152506129c7565b806129a684613030565b6040516020016129b792919061491c565b6040516020818303038152906040525b915050919050565b60007f01ffc9a7000000000000000000000000000000000000000000000000000000007bffffffffffffffffffffffffffffffffffffffffffffffffffffffff1916827bffffffffffffffffffffffffffffffffffffffffffffffffffffffff1916149050919050565b6060612a5f8273ffffffffffffffffffffffffffffffffffffffff16601460ff16612a66565b9050919050565b606060006002836002612a799190614b24565b612a839190614b66565b67ffffffffffffffff811115612a9c57612a9b613644565b5b6040519080825280601f01601f191660200182016040528015612ace5781602001600182028036833780820191505090505b5090507f300000000000000000000000000000000000000000000000000000000000000081600081518110612b0657612b05613e43565b5b60200101907effffffffffffffffffffffffffffffffffffffffffffffffffffffffffffff1916908160001a9053507f780000000000000000000000000000000000000000000000000000000000000081600181518110612b6a57612b69613e43565b5b60200101907effffffffffffffffffffffffffffffffffffffffffffffffffffffffffffff1916908160001a90535060006001846002612baa9190614b24565b612bb49190614b66565b90505b6001811115612c54577f3031323334353637383961626364656600000000000000000000000000000000600f861660108110612bf657612bf5613e43565b5b1a60f81b828281518110612c0d57612c0c613e43565b5b60200101907effffffffffffffffffffffffffffffffffffffffffffffffffffffffffffff1916908160001a905350600485901c945080612c4d90614b9a565b9050612bb7565b5060008414612c98576040517f08c379a0000000000000000000000000000000000000000000000000000000008152600401612c8f90614c0f565b60405180910390fd5b8091505092915050565b6000808273ffffffffffffffffffffffffffffffffffffffff163b119050919050565b600073ffffffffffffffffffffffffffffffffffffffff168273ffffffffffffffffffffffffffffffffffffffff1603612d34576040517f08c379a0000000000000000000000000000000000000000000000000000000008152600401612d2b90614c7b565b60405180910390fd5b612d3d81612649565b15612d7d576040517f08c379a0000000000000000000000000000000000000000000000000000000008152600401612d7490614ce7565b60405180910390fd5b612d8b60008383600161268a565b612d9481612649565b15612dd4576040517f08c379a0000000000000000000000000000000000000000000000000000000008152600401612dcb90614ce7565b60405180910390fd5b6001600360008473ffffffffffffffffffffffffffffffffffffffff1673ffffffffffffffffffffffffffffffffffffffff16815260200190815260200160002060008282540192505081905550816002600083815260200190815260200160002060006101000a81548173ffffffffffffffffffffffffffffffffffffffff021916908373ffffffffffffffffffffffffffffffffffffffff160217905550808273ffffffffffffffffffffffffffffffffffffffff16600073ffffffffffffffffffffffffffffffffffffffff167fddf252ad1be2c89b69c2b068fc378daa952ba7f163c4a11628f55a4df523b3ef60405160405180910390a4612ede600083836001612690565b5050565b6000612eed826110fc565b9050612efd81600084600161268a565b612f06826110fc565b90506004600083815260200190815260200160002060006101000a81549073ffffffffffffffffffffffffffffffffffffffff02191690556001600360008373ffffffffffffffffffffffffffffffffffffffff1673ffffffffffffffffffffffffffffffffffffffff168152602001908152602001600020600082825403925050819055506002600083815260200190815260200160002060006101000a81549073ffffffffffffffffffffffffffffffffffffffff021916905581600073ffffffffffffffffffffffffffffffffffffffff168273ffffffffffffffffffffffffffffffffffffffff167fddf252ad1be2c89b69c2b068fc378daa952ba7f163c4a11628f55a4df523b3ef60405160405180910390a461302c816000846001612690565b5050565b60606000600161303f846130fe565b01905060008167ffffffffffffffff81111561305e5761305d613644565b5b6040519080825280601f01601f1916602001820160405280156130905781602001600182028036833780820191505090505b509050600082602001820190505b6001156130f3578080600190039150507f3031323334353637383961626364656600000000000000000000000000000000600a86061a8153600a85816130e7576130e6614d07565b5b0494506000850361309e575b819350505050919050565b600080600090507a184f03e93ff9f4daa797ed6e38ed64bf6a1f010000000000000000831061315c577a184f03e93ff9f4daa797ed6e38ed64bf6a1f010000000000000000838161315257613151614d07565b5b0492506040810190505b6d04ee2d6d415b85acef81000000008310613199576d04ee2d6d415b85acef8100000000838161318f5761318e614d07565b5b0492506020810190505b662386f26fc1000083106131c857662386f26fc1000083816131be576131bd614d07565b5b0492506010810190505b6305f5e10083106131f1576305f5e10083816131e7576131e6614d07565b5b0492506008810190505b612710831061321657612710838161320c5761320b614d07565b5b0492506004810190505b60648310613239576064838161322f5761322e614d07565b5b0492506002810190505b600a8310613248576001810190505b80915050919050565b50805461325d90613bca565b6000825580601f1061326f575061328e565b601f01602090049060005260206000209081019061328d9190613291565b5b50565b5b808211156132aa576000816000905550600101613292565b5090565b6000604051905090565b600080fd5b600080fd5b60007fffffffff0000000000000000000000000000000000000000000000000000000082169050919050565b6132f7816132c2565b811461330257600080fd5b50565b600081359050613314816132ee565b92915050565b6000602082840312156133305761332f6132b8565b5b600061333e84828501613305565b91505092915050565b60008115159050919050565b61335c81613347565b82525050565b60006020820190506133776000830184613353565b92915050565b600081519050919050565b600082825260208201905092915050565b60005b838110156133b757808201518184015260208101905061339c565b60008484015250505050565b6000601f19601f8301169050919050565b60006133df8261337d565b6133e98185613388565b93506133f9818560208601613399565b613402816133c3565b840191505092915050565b6000602082019050818103600083015261342781846133d4565b905092915050565b6000819050919050565b6134428161342f565b811461344d57600080fd5b50565b60008135905061345f81613439565b92915050565b60006020828403121561347b5761347a6132b8565b5b600061348984828501613450565b91505092915050565b600073ffffffffffffffffffffffffffffffffffffffff82169050919050565b60006134bd82613492565b9050919050565b6134cd816134b2565b82525050565b60006020820190506134e860008301846134c4565b92915050565b6134f7816134b2565b811461350257600080fd5b50565b600081359050613514816134ee565b92915050565b60008060408385031215613531576135306132b8565b5b600061353f85828601613505565b925050602061355085828601613450565b9150509250929050565b6000819050919050565b61356d8161355a565b82525050565b60006020820190506135886000830184613564565b92915050565b6000806000606084860312156135a7576135a66132b8565b5b60006135b586828701613505565b93505060206135c686828701613505565b92505060406135d786828701613450565b9150509250925092565b6135ea8161355a565b81146135f557600080fd5b50565b600081359050613607816135e1565b92915050565b600060208284031215613623576136226132b8565b5b6000613631848285016135f8565b91505092915050565b600080fd5b600080fd5b7f4e487b7100000000000000000000000000000000000000000000000000000000600052604160045260246000fd5b61367c826133c3565b810181811067ffffffffffffffff8211171561369b5761369a613644565b5b80604052505050565b60006136ae6132ae565b90506136ba8282613673565b919050565b600067ffffffffffffffff8211156136da576136d9613644565b5b6136e3826133c3565b9050602081019050919050565b82818337600083830152505050565b600061371261370d846136bf565b6136a4565b90508281526020810184848401111561372e5761372d61363f565b5b6137398482856136f0565b509392505050565b600082601f8301126137565761375561363a565b5b81356137668482602086016136ff565b91505092915050565b600080600060608486031215613788576137876132b8565b5b600061379686828701613505565b93505060206137a786828701613450565b925050604084013567ffffffffffffffff8111156137c8576137c76132bd565b5b6137d486828701613741565b9150509250925092565b600067ffffffffffffffff8211156137f9576137f8613644565b5b613802826133c3565b9050602081019050919050565b600061382261381d846137de565b6136a4565b90508281526020810184848401111561383e5761383d61363f565b5b6138498482856136f0565b509392505050565b600082601f8301126138665761386561363a565b5b813561387684826020860161380f565b91505092915050565b60008060008060808587031215613899576138986132b8565b5b60006138a787828801613505565b945050602085013567ffffffffffffffff8111156138c8576138c76132bd565b5b6138d487828801613851565b93505060406138e587828801613450565b92505060606138f687828801613450565b91505092959194509250565b60008060408385031215613919576139186132b8565b5b6000613927858286016135f8565b925050602061393885828601613505565b9150509250929050565b61394b8161342f565b82525050565b60006060820190506139666000830186613942565b6139736020830185613353565b6139806040830184613942565b949350505050565b60006020828403121561399e5761399d6132b8565b5b60006139ac84828501613505565b91505092915050565b60006020820190506139ca6000830184613942565b92915050565b600080604083850312156139e7576139e66132b8565b5b60006139f585828601613450565b925050602083013567ffffffffffffffff811115613a1657613a156132bd565b5b613a2285828601613741565b9150509250929050565b613a3581613347565b8114613a4057600080fd5b50565b600081359050613a5281613a2c565b92915050565b60008060408385031215613a6f57613a6e6132b8565b5b6000613a7d85828601613a43565b9250506020613a8e85828601613450565b9150509250929050565b60008060408385031215613aaf57613aae6132b8565b5b6000613abd85828601613505565b9250506020613ace85828601613a43565b9150509250929050565b60008060008060808587031215613af257613af16132b8565b5b6000613b0087828801613505565b9450506020613b1187828801613505565b9350506040613b2287828801613450565b925050606085013567ffffffffffffffff811115613b4357613b426132bd565b5b613b4f87828801613741565b91505092959194509250565b60008060408385031215613b7257613b716132b8565b5b6000613b8085828601613505565b9250506020613b9185828601613505565b9150509250929050565b7f4e487b7100000000000000000000000000000000000000000000000000000000600052602260045260246000fd5b60006002820490506001821680613be257607f821691505b602082108103613bf557613bf4613b9b565b5b50919050565b7f4552433732313a20617070726f76616c20746f2063757272656e74206f776e6560008201527f7200000000000000000000000000000000000000000000000000000000000000602082015250565b6000613c57602183613388565b9150613c6282613bfb565b604082019050919050565b60006020820190508181036000830152613c8681613c4a565b9050919050565b7f4552433732313a20617070726f76652063616c6c6572206973206e6f7420746f60008201527f6b656e206f776e6572206f7220617070726f76656420666f7220616c6c000000602082015250565b6000613ce9603d83613388565b9150613cf482613c8d565b604082019050919050565b60006020820190508181036000830152613d1881613cdc565b9050919050565b7f4552433732313a2063616c6c6572206973206e6f7420746f6b656e206f776e6560008201527f72206f7220617070726f76656400000000000000000000000000000000000000602082015250565b6000613d7b602d83613388565b9150613d8682613d1f565b604082019050919050565b60006020820190508181036000830152613daa81613d6e565b9050919050565b7f43616e6e6f7420757365207469636b65742061742061646472657373206f746860008201527f6572207468616e20676174650000000000000000000000000000000000000000602082015250565b6000613e0d602c83613388565b9150613e1882613db1565b604082019050919050565b60006020820190508181036000830152613e3c81613e00565b9050919050565b7f4e487b7100000000000000000000000000000000000000000000000000000000600052603260045260246000fd5b7f5469636b657420666f722073616c650000000000000000000000000000000000600082015250565b6000613ea8600f83613388565b9150613eb382613e72565b602082019050919050565b60006020820190508181036000830152613ed781613e9b565b9050919050565b7f43616e6e6f74206d696e7420746f206163636f756e74206e6f74206f776e656460008201527f2062792047454100000000000000000000000000000000000000000000000000602082015250565b6000613f3a602783613388565b9150613f4582613ede565b604082019050919050565b60006020820190508181036000830152613f6981613f2d565b9050919050565b7f416363657373436f6e74726f6c3a2063616e206f6e6c792072656e6f756e636560008201527f20726f6c657320666f722073656c660000000000000000000000000000000000602082015250565b6000613fcc602f83613388565b9150613fd782613f70565b604082019050919050565b60006020820190508181036000830152613ffb81613fbf565b9050919050565b7f4552433732313a20696e76616c696420746f6b656e2049440000000000000000600082015250565b6000614038601883613388565b915061404382614002565b602082019050919050565b600060208201905081810360008301526140678161402b565b9050919050565b7f4552433732313a2061646472657373207a65726f206973206e6f74206120766160008201527f6c6964206f776e65720000000000000000000000000000000000000000000000602082015250565b60006140ca602983613388565b91506140d58261406e565b604082019050919050565b600060208201905081810360008301526140f9816140bd565b9050919050565b7f5469636b6574206e6f7420666f722073616c6500000000000000000000000000600082015250565b6000614136601383613388565b915061414182614100565b602082019050919050565b6000602082019050818103600083015261416581614129565b9050919050565b7f496e636f72726563742070726963650000000000000000000000000000000000600082015250565b60006141a2600f83613388565b91506141ad8261416c565b602082019050919050565b600060208201905081810360008301526141d181614195565b9050919050565b7f4e6f207469636b6574206f776e65720000000000000000000000000000000000600082015250565b600061420e600f83613388565b9150614219826141d8565b602082019050919050565b6000602082019050818103600083015261423d81614201565b9050919050565b7f43616e6e6f74207472616e736665722c2063616e206f6e6c792073656c6c0000600082015250565b600061427a601e83613388565b915061428582614244565b602082019050919050565b600060208201905081810360008301526142a98161426d565b9050919050565b7f4f776e61626c653a206e6577206f776e657220697320746865207a65726f206160008201527f6464726573730000000000000000000000000000000000000000000000000000602082015250565b600061430c602683613388565b9150614317826142b0565b604082019050919050565b6000602082019050818103600083015261433b816142ff565b9050919050565b7f4552433732313a207472616e736665722066726f6d20696e636f72726563742060008201527f6f776e6572000000000000000000000000000000000000000000000000000000602082015250565b600061439e602583613388565b91506143a982614342565b604082019050919050565b600060208201905081810360008301526143cd81614391565b9050919050565b7f4552433732313a207472616e7366657220746f20746865207a65726f2061646460008201527f7265737300000000000000000000000000000000000000000000000000000000602082015250565b6000614430602483613388565b915061443b826143d4565b604082019050919050565b6000602082019050818103600083015261445f81614423565b9050919050565b7f4552433732313a207472616e7366657220746f206e6f6e20455243373231526560008201527f63656976657220696d706c656d656e7465720000000000000000000000000000602082015250565b60006144c2603283613388565b91506144cd82614466565b604082019050919050565b600060208201905081810360008301526144f1816144b5565b9050919050565b7f45524337323155524953746f726167653a2055524920736574206f66206e6f6e60008201527f6578697374656e7420746f6b656e000000000000000000000000000000000000602082015250565b6000614554602e83613388565b915061455f826144f8565b604082019050919050565b6000602082019050818103600083015261458381614547565b9050919050565b60008190508160005260206000209050919050565b60006020601f8301049050919050565b600082821b905092915050565b6000600883026145ec7fffffffffffffffffffffffffffffffffffffffffffffffffffffffffffffffff826145af565b6145f686836145af565b95508019841693508086168417925050509392505050565b6000819050919050565b600061463361462e6146298461342f565b61460e565b61342f565b9050919050565b6000819050919050565b61464d83614618565b6146616146598261463a565b8484546145bc565b825550505050565b600090565b614676614669565b614681818484614644565b505050565b5b818110156146a55761469a60008261466e565b600181019050614687565b5050565b601f8211156146ea576146bb8161458a565b6146c48461459f565b810160208510156146d3578190505b6146e76146df8561459f565b830182614686565b50505b505050565b600082821c905092915050565b600061470d600019846008026146ef565b1980831691505092915050565b600061472683836146fc565b9150826002028217905092915050565b61473f8261337d565b67ffffffffffffffff81111561475857614757613644565b5b6147628254613bca565b61476d8282856146a9565b600060209050601f8311600181146147a0576000841561478e578287015190505b614798858261471a565b865550614800565b601f1984166147ae8661458a565b60005b828110156147d6578489015182556001820191506020850194506020810190506147b1565b868310156147f357848901516147ef601f8916826146fc565b8355505b6001600288020188555050505b505050505050565b7f4f776e61626c653a2063616c6c6572206973206e6f7420746865206f776e6572600082015250565b600061483e602083613388565b915061484982614808565b602082019050919050565b6000602082019050818103600083015261486d81614831565b9050919050565b7f4552433732313a20617070726f766520746f2063616c6c657200000000000000600082015250565b60006148aa601983613388565b91506148b582614874565b602082019050919050565b600060208201905081810360008301526148d98161489d565b9050919050565b600081905092915050565b60006148f68261337d565b61490081856148e0565b9350614910818560208601613399565b80840191505092915050565b600061492882856148eb565b915061493482846148eb565b91508190509392505050565b7f416363657373436f6e74726f6c3a206163636f756e7420000000000000000000600082015250565b60006149766017836148e0565b915061498182614940565b601782019050919050565b7f206973206d697373696e6720726f6c6520000000000000000000000000000000600082015250565b60006149c26011836148e0565b91506149cd8261498c565b601182019050919050565b60006149e382614969565b91506149ef82856148eb565b91506149fa826149b5565b9150614a0682846148eb565b91508190509392505050565b600081519050919050565b600082825260208201905092915050565b6000614a3982614a12565b614a438185614a1d565b9350614a53818560208601613399565b614a5c816133c3565b840191505092915050565b6000608082019050614a7c60008301876134c4565b614a8960208301866134c4565b614a966040830185613942565b8181036060830152614aa88184614a2e565b905095945050505050565b600081519050614ac2816132ee565b92915050565b600060208284031215614ade57614add6132b8565b5b6000614aec84828501614ab3565b91505092915050565b7f4e487b7100000000000000000000000000000000000000000000000000000000600052601160045260246000fd5b6000614b2f8261342f565b9150614b3a8361342f565b9250828202614b488161342f565b91508282048414831517614b5f57614b5e614af5565b5b5092915050565b6000614b718261342f565b9150614b7c8361342f565b9250828201905080821115614b9457614b93614af5565b5b92915050565b6000614ba58261342f565b915060008203614bb857614bb7614af5565b5b600182039050919050565b7f537472696e67733a20686578206c656e67746820696e73756666696369656e74600082015250565b6000614bf9602083613388565b9150614c0482614bc3565b602082019050919050565b60006020820190508181036000830152614c2881614bec565b9050919050565b7f4552433732313a206d696e7420746f20746865207a65726f2061646472657373600082015250565b6000614c65602083613388565b9150614c7082614c2f565b602082019050919050565b60006020820190508181036000830152614c9481614c58565b9050919050565b7f4552433732313a20746f6b656e20616c7265616479206d696e74656400000000600082015250565b6000614cd1601c83613388565b9150614cdc82614c9b565b602082019050919050565b60006020820190508181036000830152614d0081614cc4565b9050919050565b7f4e487b7100000000000000000000000000000000000000000000000000000000600052601260045260246000fdfea2646970667358221220da41e252cf8a3d3a551492ea6bb0ad9b2488c61eadb0c3c0b4f95c8ecc8ee9d364736f6c63430008130033",
  "immutableReferences": {},
  "source": "// SPDX-License-Identifier: MIT\r\npragma solidity ^0.8.9;\r\n\r\nimport \"./node_modules/@openzeppelin/contracts/token/ERC721/ERC721.sol\";\r\nimport \"./node_modules/@openzeppelin/contracts/token/ERC721/extensions/ERC721Burnable.sol\";\r\nimport \"./node_modules/@openzeppelin/contracts/access/Ownable.sol\";\r\nimport \"./node_modules/@openzeppelin/contracts/access/AccessControl.sol\";\r\nimport \"./node_modules/@openzeppelin/contracts/token/ERC721/extensions/ERC721URIStorage.sol\";\r\nimport \"./node_modules/@openzeppelin/contracts/utils/Counters.sol\";\r\nimport \"./node_modules/@openzeppelin/contracts/utils/Strings.sol\";\r\n\r\ncontract TicketNFT is ERC721, ERC721Burnable, ERC721URIStorage, Ownable, AccessControl {\r\n    using Counters for Counters.Counter;\r\n    mapping (uint256 => address) public ticketIndexToOwner;//Ticket index to owner\r\n    // Can change minter to array. This will enable multiple accounts to mint\r\n    bytes32 public constant MINTER_ROLE = keccak256(\"MINTER_ROLE\");//Account who can mint\r\n    bytes32 public constant VERIFIED_ACCOUNTS = keccak256(\"VERIFIED_ACCOUNTS\");//Accounts that are verified(in our database)\r\n    bytes32 public constant GEA_ACCOUNTS = keccak256(\"GEA_ACCOUNTS\");//Accounts belonging to GEA\r\n    bytes32 public constant GATE_ACCOUNTS = keccak256(\"GATE_ACCOUNTS\");//Accounts belonging to Gate\r\n    Ticket[] public _allTickets;//Array that contains all tickets index is ticket ID\r\n    //Common for all tickets\r\n    string public _eventName;\r\n    string public _eventLocation;\r\n    string public _eventType;\r\n    uint256 public _startDate;\r\n    uint256 public _endDate;\r\n    Counters.Counter public _tokenIdCounter;\r\n    struct Ticket{// Specific to individual ticket\r\n    uint256 _price;// Different categories may have different prices\r\n    bool _forSale;// If true indicates that any verified account can buy the ticket\r\n    uint256 _seatNumber;// Each ticket has a different seat number\r\n    } \r\n    constructor(string memory name, string memory symbol,string memory eventLocation,string memory eventType,\r\n     uint256 startDate, uint256 endDate) ERC721(name, symbol){\r\n        _setupRole(DEFAULT_ADMIN_ROLE, msg.sender);\r\n        _eventLocation = eventLocation;\r\n        _eventType = eventType;\r\n        _startDate = startDate;\r\n        _endDate = endDate;\r\n    } \r\n\r\n\r\n    function safeMint(address to, string memory uri, uint256 price, uint256 seatNumber) public onlyRole(MINTER_ROLE) {\r\n        require(hasRole(GEA_ACCOUNTS, to), \"Cannot mint to account not owned by GEA\");\r\n        uint256 tokenId = _tokenIdCounter.current();\r\n        _allTickets.push(Ticket(price,true,seatNumber));// Add new ticket to array of tickets(true because it is originally with GEA who want to sell immidiatly)\r\n        _tokenIdCounter.increment();//Increment counter\r\n        _safeMint(to, tokenId);// Mint ticket\r\n        ticketIndexToOwner[tokenId] = to;\r\n        _setTokenURI(tokenId, uri);// URI will hold metadata such as image\r\n    }\r\n    //Function to buy ticket\r\n    function buy(\r\n        uint256 tokenId,\r\n        bytes memory data)public payable onlyRole(VERIFIED_ACCOUNTS){\r\n            require(_allTickets[tokenId]._forSale == true,\"Ticket not for sale\");\r\n            require(msg.value == _allTickets[tokenId]._price, \"Incorrect price\");\r\n            super._safeTransfer(ownerOf(tokenId),msg.sender,tokenId, data);\r\n            ticketIndexToOwner[tokenId] = msg.sender;//Ticket is now owned by sender\r\n            _allTickets[tokenId]._forSale = false;//Ticket no longer for sale once transfered to new owner\r\n        }\r\n    //Function to either enable or disable sale of ticket\r\n    function sale(bool option,uint256 tokenId) public {\r\n        require(ticketIndexToOwner[tokenId]==msg.sender,\"No ticket owner\");\r\n        _allTickets[tokenId]._forSale = option;\r\n    }\r\n\r\n    //Function to use ticket at gate\r\n    function useTicket(address to,\r\n        uint256 tokenId,\r\n        bytes memory data)public payable onlyRole(VERIFIED_ACCOUNTS){\r\n            require(hasRole(GATE_ACCOUNTS, to), \"Cannot use ticket at address other than gate\");\r\n            require(_allTickets[tokenId]._forSale == false,\"Ticket for sale\");\r\n            super._safeTransfer(ownerOf(tokenId),to,tokenId, data);\r\n            ticketIndexToOwner[tokenId] = to;//Ticket is now owned by gate\r\n        }\r\n\r\n    function safeTransferFrom(\r\n        address from,\r\n        address to,\r\n        uint256 tokenId,\r\n        bytes memory data\r\n    ) public virtual override {\r\n        require(false,\"Cannot transfer, can only sell\");\r\n    }\r\n    // Overrides reequired by solidity\r\n     function _burn(uint256 tokenId) internal override(ERC721, ERC721URIStorage) {\r\n        super._burn(tokenId);\r\n    }\r\n\r\n    function tokenURI(uint256 tokenId)\r\n        public\r\n        view\r\n        override(ERC721, ERC721URIStorage)\r\n        returns (string memory)\r\n    {\r\n        return super.tokenURI(tokenId);\r\n    }\r\n    function supportsInterface(bytes4 interfaceId)\r\n        public\r\n        view\r\n        override(ERC721, AccessControl)\r\n        returns (bool)\r\n    {\r\n        return super.supportsInterface(interfaceId);\r\n    }\r\n}",
  "sourcePath": "C:\\Users\\talal\\Desktop\\Uni\\Capstone\\nftTicket\\contracts\\TicketNFT.sol",
  "compiler": {
    "name": "solc",
    "version": "0.8.19+commit.7dd6d404.Emscripten.clang"
  },
  "schemaVersion": "3.4.13",
  "updatedAt": "2023-04-16T02:27:57.018Z",
  "networkType": "ethereum",
  "devdoc": {
    "events": {
      "Approval(address,address,uint256)": {
        "details": "Emitted when `owner` enables `approved` to manage the `tokenId` token."
      },
      "ApprovalForAll(address,address,bool)": {
        "details": "Emitted when `owner` enables or disables (`approved`) `operator` to manage all of its assets."
      },
      "RoleAdminChanged(bytes32,bytes32,bytes32)": {
        "details": "Emitted when `newAdminRole` is set as ``role``'s admin role, replacing `previousAdminRole` `DEFAULT_ADMIN_ROLE` is the starting admin for all roles, despite {RoleAdminChanged} not being emitted signaling this. _Available since v3.1._"
      },
      "RoleGranted(bytes32,address,address)": {
        "details": "Emitted when `account` is granted `role`. `sender` is the account that originated the contract call, an admin role bearer except when using {AccessControl-_setupRole}."
      },
      "RoleRevoked(bytes32,address,address)": {
        "details": "Emitted when `account` is revoked `role`. `sender` is the account that originated the contract call:   - if using `revokeRole`, it is the admin role bearer   - if using `renounceRole`, it is the role bearer (i.e. `account`)"
      },
      "Transfer(address,address,uint256)": {
        "details": "Emitted when `tokenId` token is transferred from `from` to `to`."
      }
    },
    "kind": "dev",
    "methods": {
      "approve(address,uint256)": {
        "details": "See {IERC721-approve}."
      },
      "balanceOf(address)": {
        "details": "See {IERC721-balanceOf}."
      },
      "burn(uint256)": {
        "details": "Burns `tokenId`. See {ERC721-_burn}. Requirements: - The caller must own `tokenId` or be an approved operator."
      },
      "getApproved(uint256)": {
        "details": "See {IERC721-getApproved}."
      },
      "getRoleAdmin(bytes32)": {
        "details": "Returns the admin role that controls `role`. See {grantRole} and {revokeRole}. To change a role's admin, use {_setRoleAdmin}."
      },
      "grantRole(bytes32,address)": {
        "details": "Grants `role` to `account`. If `account` had not been already granted `role`, emits a {RoleGranted} event. Requirements: - the caller must have ``role``'s admin role. May emit a {RoleGranted} event."
      },
      "hasRole(bytes32,address)": {
        "details": "Returns `true` if `account` has been granted `role`."
      },
      "isApprovedForAll(address,address)": {
        "details": "See {IERC721-isApprovedForAll}."
      },
      "name()": {
        "details": "See {IERC721Metadata-name}."
      },
      "owner()": {
        "details": "Returns the address of the current owner."
      },
      "ownerOf(uint256)": {
        "details": "See {IERC721-ownerOf}."
      },
      "renounceOwnership()": {
        "details": "Leaves the contract without owner. It will not be possible to call `onlyOwner` functions anymore. Can only be called by the current owner. NOTE: Renouncing ownership will leave the contract without an owner, thereby removing any functionality that is only available to the owner."
      },
      "renounceRole(bytes32,address)": {
        "details": "Revokes `role` from the calling account. Roles are often managed via {grantRole} and {revokeRole}: this function's purpose is to provide a mechanism for accounts to lose their privileges if they are compromised (such as when a trusted device is misplaced). If the calling account had been revoked `role`, emits a {RoleRevoked} event. Requirements: - the caller must be `account`. May emit a {RoleRevoked} event."
      },
      "revokeRole(bytes32,address)": {
        "details": "Revokes `role` from `account`. If `account` had been granted `role`, emits a {RoleRevoked} event. Requirements: - the caller must have ``role``'s admin role. May emit a {RoleRevoked} event."
      },
      "safeTransferFrom(address,address,uint256)": {
        "details": "See {IERC721-safeTransferFrom}."
      },
      "safeTransferFrom(address,address,uint256,bytes)": {
        "details": "See {IERC721-safeTransferFrom}."
      },
      "setApprovalForAll(address,bool)": {
        "details": "See {IERC721-setApprovalForAll}."
      },
      "symbol()": {
        "details": "See {IERC721Metadata-symbol}."
      },
      "transferFrom(address,address,uint256)": {
        "details": "See {IERC721-transferFrom}."
      },
      "transferOwnership(address)": {
        "details": "Transfers ownership of the contract to a new account (`newOwner`). Can only be called by the current owner."
      }
    },
    "version": 1
  },
  "userdoc": {
    "kind": "user",
    "methods": {},
    "version": 1
  }
}